:100000000C9461050C947E050C947E050C94BE2620
:100010000C947E050C947E050C947E050C947E0554
:100020000C947E050C947E050C94C2150C947E15E0
:100030000C940F200C947E050C947E050C947E0588
:100040000C947E050C947E050C947E050C947E0524
:100050000C947E050C94A9160C947E050C947E05D8
:100060000C947E050C947E050C947E050C947E0504
:100070000C947E050C947E050C947E050C947E05F4
:100080000C947E050C947E050C947E050C947E05E4
:100090000C947E050C947E050C947E050C947E05D4
:1000A0000C947E050C947E050C947E052020202067
:1000B0006162636465666768696A6B6C6D6E6F70B8
:1000C0007172737475767778797A31323334353664
:1000D00037383930524542545F2D3D5B5D5C233BE0
:1000E00027602C2E2F202020000014001A0008006A
:1000F00015001700000004211600070009000A007F
:1001000000001D221B000600190005000000000071
:100110000000E30022522C000000130012000C002B
:1001200018001C00000034310F000E000D000B0001
:1001300000003832370036001000110000000000C7
:100140000000E2002941280000003A003B003C008A
:100150003D003E0000001E211F0020002100220063
:100160000000E10001000100010043000000000068
:100170000000E30023522B0000002A00420041004F
:1001800040003F0000002731260025002400230006
:100190000000E500010001004500440000000000EF
:1001A0000000E200010028000000000036023500D7
:1001B0003702000000001E0223022E00210220024E
:1001C0000000E10024021F0222028500000000005E
:1001D0000000E30001002C0000002A00300235027C
:1001E0002F02570000003102270256002602250286
:1001F0000000310030002D022F003300000000000D
:100200000000E2002352330200004800AC00AE00C0
:10021000AB0000000000E0004A004E004D00390035
:100220000000E1001B130613191350040000000026
:100230000000E30001002C0000004C002B012B13F8
:100240004B0000000000E4004F005200510050003D
:100250000000E500A800A900AA004F04000000006B
:100260000000E2000100280000000000240025003A
:10027000260000000000E0002100220023002700EB
:100280000000E1001E001F002000380000000000F8
:100290000000E30023522B0000002A00420041002E
:1002A000400000000000E4003F003E003D0063000D
:1002B0000000E5003C003B003A00000000000000A8
:1002C0000000E2000100280000DA0281FFD9F1DB22
:1002D00020A4A62EAF00A0C0D30000A1C8D3000068
:1002E000AED580A81F408D142000556E6465660051
:1002F00041646A757374005261697365004C6F776D
:1003000065720044656661756C74004C6179657254
:100310003A20003A002C206B007800808182838490
:1003200085868788898A8B8C8D8E8F909192939405
:10033000A0A1A2A3A4A5A6A7A8A9AAABACADAEAF45
:10034000B0B1B2B3B4C0C1C2C3C4C5C6C7C8C9CABC
:10035000CBCCCDCECFD0D1D2D3D40000010101017E
:100360000101010101020202020202020202030370
:100370000303030303030404040404040405050540
:100380000505060606060607070707070808080802
:10039000090909090A0A0A0B0B0B0C0C0C0D0D0DAF
:1003A0000E0E0E0F0F0F1010111111121213131445
:1003B00014151516161717181819191A1A1B1B1CBD
:1003C0001D1D1E1E1F202021222223242425262617
:1003D000272829292A2B2C2D2D2E2F30313232334C
:1003E0003435363738393A3B3C3D3E3F4041424355
:1003F0004445464748494A4C4D4E4F505153545539
:100400005658595A5B5D5E5F616264656668696BE8
:100410006C6D6F7072737577787A7B7D7E80828366
:100420008587888A8C8E8F91939596989A9C9EA0AA
:10043000A2A3A5A7A9ABADAFB1B3B5B7BABCBEC0B7
:10044000C2C4C6C9CBCDCFD1D4D6D8DBDDDFE2E480
:10045000E7E9EBEEF0F3F5F8FAFDFF00AF00AE05CB
:10046000010980A101850319012AB700150126B7EA
:1004700000950175108100C0050C0901A1018504DA
:1004800019012AA002150126A0029501751081000C
:10049000C005010906A1018506050719E029E71530
:1004A0000025019508750181020507190029EF153E
:1004B00000250195F07501810205081901290595AE
:1004C0000575019102950175039101C005010906A9
:1004D000A101050719E029E7150025019508750117
:1004E00081029501750881010507190029FF150092
:1004F00026FF0095067508810005081901290515D4
:10050000002501950575019102950175039101C0C2
:1005100009023B00020100A0FA09040000010301E6
:10052000010009211101000122440007058103088F
:10053000000109040100010300000009211101006C
:1005400001226D0007058203200001120100020054
:10055000000008534601000100010200010C0343A2
:10056000006F0072006E0065000000100366006FEF
:10057000006F007300740061006E00000004030946
:10058000040000000000003E5B4F5B3E003E6B4FEE
:100590006B3E001C3E7C3E1C00183C7E3C18001C40
:1005A000577D571C001C5E7F5E1C0000183C180025
:1005B00000FFE7C3E7FF00001824180000FFE7DB97
:1005C000E7FF0030483A060E002629792926004028
:1005D0007F05050700407F05253F005A3CE73C5A50
:1005E000007F3E1C1C0800081C1C3E7F0014227F5C
:1005F0002214005F5F005F5F0006097F017F00003B
:100600006689956A0060606060600094A2FFA294B1
:100610000008047E04080010207E20100008082A2C
:100620001C0800081C2A0808001E10101010000CDE
:100630001E0C1E0C0030383E383000060E3E0E06F2
:100640000000000000000000005F00000000070044
:10065000070000147F147F1400242A7F2A1200232D
:100660001308646200364956205000000807030052
:1006700000001C224100000041221C00002A1C7FB7
:100680001C2A0008083E080800008070300000089E
:10069000080808080000006060000020100804023C
:1006A000003E5149453E0000427F400000724949EA
:1006B0004946002141494D33001814127F1000278C
:1006C00045454539003C4A49493100412111090756
:1006D00000364949493600464949291E00000014A0
:1006E0000000000040340000000008142241001403
:1006F00014141414000041221408000201590906C0
:10070000003E415D594E007C1211127C007F494928
:100710004936003E41414122007F4141413E007F38
:1007200049494941007F09090901003E414151738E
:10073000007F0808087F0000417F41000020404101
:100740003F01007F08142241007F40404040007F6D
:10075000021C027F007F0408107F003E4141413EA1
:10076000007F09090906003E4151215E007F0919F9
:1007700029460026494949320003017F0103003F11
:100780004040403F001F2040201F003F4038403F76
:1007900000631408146300030478040300615949DA
:1007A0004D4300007F414141000204081020000039
:1007B0004141417F000402010204004040404040AA
:1007C000000003070800002054547840007F2844AC
:1007D000443800384444442800384444287F0038D2
:1007E000545454180000087E0902001824241C7870
:1007F000007F080404780000447D40000020404051
:100800003D00007F102844000000417F4000007C34
:1008100004780478007C08040478003844444438A0
:10082000007C1824241800182424187C007C080458
:1008300004080048545454240004043F4424003C59
:100840004040207C001C2040201C003C4030403CAC
:10085000004428102844004C9090907C004464543C
:100860004C44000008364100000000770000000002
:1008700041360800000201020402003C2623263C07
:100880000000000000000000000000000000000068
:1008900000C0E0F0F8F81800C0F0FCFEFFFFFFFF1A
:1008A000FFFFFF7E00000000000000000080C0E0AD
:1008B000E0E0E0E0E0E0E0C0800000000080C0E0B8
:1008C000E0E0E0E0E0E0E0C080000000E0E0C0C088
:1008D000E0E0E0E00000E0E0C0C0E0E0E0E0E0C038
:1008E000800000000080C0E0E0E0E0E0E0E0E0C088
:1008F000800000000000000000000000000000E098
:10090000F0F0F0E0ECEEF7F37020007C7C7C7E00F1
:100910007E7E7E7F7F7F000080C0E07E5B4F5BFE3F
:10092000C00000C000DCD7DEDEDED7DC00C0000087
:1009300000000000000000000000000000000000B7
:1009400000000000000000000000F8FCFEFFE000D6
:10095000FFFFFFFFFFFF80FFFFFFFFFFFFFFFFFF26
:100960001F0701000000000000000000FFFFFF81E2
:1009700000000000000081C3C3C30000FFFFFF812F
:1009800000000000000081FFFFFF0000FFFFFF01EB
:10099000000000000000FFFFFF010000000001FF59
:1009A000FFFF0000FFFFFF9D1C1C1C1C1C1C9DDF8B
:1009B000DFDF000000000000000000000000000F6A
:1009C0001F3F7F7F7F7F7F3F1E0C001F1F1F3F0049
:1009D0003F3F3F7F7F7F00307B7F78302020307823
:1009E0007F3B0003000F7F0F0F0F7F0F00030000FE
:1009F00000000000000000000000000000000000F7
:100A000000000000000000000000030F1F3F3F3FF8
:100A10003F1F1F3F3F7F7F7F3F3F1F3F7F7F7F7F86
:100A20007C7878381C0F00000000000000010307EC
:100A30000707070707070703010000000001030776
:100A4000070707070707070301000000070707005C
:100A5000000000000000070707000000000000077A
:100A60000707000000010307070707070707070339
:100A70000100000000000000000000000000000075
:100A80000000000000000000000000000000000066
:100A90000000000000000000000000000000000056
:100AA0000000000000000000000000000000000046
:100AB0000000000000000000000000000000000036
:100AC000000011241FBECFEFDAE0DEBFCDBF12E081
:100AD000A0E0B1E0E6E4F2E502C005900D92AA368E
:100AE000B107D9F726E0AAE6B2E001C01D92A0390D
:100AF000B207E1F70E9436200C94CA280C9400003B
:100B000090917D04937071F080937E0460937F04D4
:100B1000493708F048E74093800480917C04816065
:100B200080937C040895482F2091780490913F048D
:100B300057E0291302C080E0089530E0529FF00191
:100B4000539FF00D1124E05CFB4F8181681306C0B8
:100B50008081481303C085818111EECF2F5F3F4F05
:100B60002770E7CFFC01AC014C5F5F4F8FEF91E343
:100B70002191822728E030E087FF09C0880F89276C
:100B800021503109C9F7E417F50791F70895880F47
:100B9000F7CFE8EDF0E080818E7F80831092E20055
:100BA0001092DA001092E100A0EEB0E08C9181602A
:100BB0008C9380818F77808319BCA7EDB0E08C91F6
:100BC0008E7F8C9380818F7E808310922A0408957B
:100BD0002091E4003091E50095E6A9012091EC0018
:100BE000822F817020FF06C08091E80080FF06C040
:100BF00080E008952091E80022FD1AC0809135041C
:100C0000882389F0853089F08091EB0085FD0FC045
:100C10002091E4003091E50042175307F9F291501A
:100C2000E1F684E0089582E0089583E0089581E08C
:100C300008958091370487FF13C08091E80082FFF8
:100C400006C08091E8008B778093E80004C0809113
:100C500035048111F2CF0895809135048823D9F3AA
:100C60008091E80080FFF8CF8091E8008E77ECCF8C
:100C7000982F9093E900242F762F50E0891731F0B8
:100C80007091EC002091ED005091F00021FD07C023
:100C90009F5F973071F78093E90081E0089530916C
:100CA000EB003E7F3093EB003091ED003D7F3093C1
:100CB000ED003091EB0031603093EB007093EC006D
:100CC0002093ED005093F0002091EE0027FDE0CF3F
:100CD00080E00895B0E0A0E0E0E7F6E00C94F827AB
:100CE000C8EDD0E088818F7E8883E7EDF0E08081D9
:100CF0008160808384E082BF81E080932A048881C0
:100D00008E7F888302EE10E0F80110821092DA00E4
:100D100081EEC82ED12CF601108288818F778883CE
:100D200088818068888388818F7D888319BC109230
:100D3000350410923604109234041092330490EE6D
:100D4000E92EF12CF70180818B7F8083888181607F
:100D5000888342E060E080E00E943806F6018081EE
:100D60008E7F8083F80180818160808380818860AC
:100D70008083F70180818E7F808388818061888372
:100D8000CDB7DEB7E8E00C941428FC0180913D0457
:100D900090913E0486179707A0F06115710529F41C
:100DA0009091E8009E779093E80090E061157105BE
:100DB00051F4911108C08091E80082FF34C080E0B6
:100DC0000895BC01F2CF809135048823C1F18530AC
:100DD000C1F18091E80083FD30C08091E80082FD80
:100DE000EACF8091E80080FFE1CF8091F30020916D
:100DF000F200382F6115710519F02830310558F0CF
:100E000091E02830310509F090E02091E8002E773C
:100E10002093E800CBCF81918093F100615071095C
:100E20002F5F3F4FE7CF80913504882341F0853015
:100E300041F08091E80083FFBECF81E0089582E019
:100E4000089583E00895089587E797E79093010850
:100E50008093000888E19AE00FB6F894A8958093F3
:100E600060000FBE90936000FFCF2FB7F8946091A1
:100E700026047091270480912804909129042FBFA3
:100E80000895809144010895909145019130D1F4E5
:100E90009091230497FF16C0E82FE695E695E69516
:100EA000EE31E0F4F0E0EC58FD4F282F277081E0A0
:100EB00090E001C0880F2A95EAF7809592818923F6
:100EC00082830895EEE6F2E09191891303C0DF0179
:100ED00011971C9292E0E437F907B1F708959091C9
:100EE00045019130C1F49091230497FF14C0E82F7D
:100EF000E695E695E695EE31F8F4F0E0EC58FD4F16
:100F0000877021E030E001C0220F8A95EAF78281E4
:100F1000822B82830895AEE6B2E0EFEF90E02D9150
:100F2000821751F0EF3F19F4211101C0E92F9F5FA3
:100F30009630A9F7EF3F09F408950E2E000CFF0B31
:100F4000E459FD4FE6CFA3E0B0E0E9EAF7E00C9406
:100F5000FE27209121043091220428173907A1F09F
:100F60009093220480932104E0911F04F0912004C7
:100F7000309751F024E029839B838A830084F18594
:100F8000E02DCE01019609952396E2E00C941A28F3
:100F9000A3E0B0E0EEECF7E00C94FE2720911D04F6
:100FA00030911E0428173907A1F090931E048093F6
:100FB0001D04E0911F04F0912004309751F023E0CC
:100FC00029839B838A830084F185E02DCE010196DD
:100FD00009952396E2E00C941A2880911B0488233B
:100FE00059F0E0911F04F0912004309729F001900E
:100FF000F081E02D0995089580E00895FC01EE0F41
:10100000FF1FE80FF91FE758FC4F618340832283DD
:101010000895539A0895EDE7F4E0248130E1231B0D
:1010200008F420E0248380917C04816080937C0418
:101030000895EDE7F4E0248130E1230F08F42FEF69
:10104000248380917C04816080937C040895EDE783
:10105000F4E0438120E1421B08F440E08181628199
:1010600090E00E9480050895EDE7F4E0438120E1DF
:10107000420F08F44FEF8181628190E00E94800569
:101080000895EDE7F4E0628120E1621B08F460E07E
:101090008181438190E00E9480050895EDE7F4E0AE
:1010A000628120E1620F08F46FEF8181438190E05B
:1010B0000E9480050895EDE7F4E08181438162811B
:1010C0008850990B0E9480050895EDE7F4E0818136
:1010D00090E04381628108960E9480050895809186
:1010E0007D04837051F0846080937D0410924201EE
:1010F00080917C04816080937C04089580917D04BC
:10110000837051F0846080937D041092420180913D
:101110007C04816080937C040895EDE7F4E0808195
:1011200091E0892780831092420180917C04816044
:1011300080937C0408959BE0899F802D1124980F53
:10114000973308F096E320911C04222321F09C3170
:1011500028F09BE108958B3108F48BE10895FF920C
:101160000F931F93CF93DF93182F062FF42ED0E009
:10117000C0E0CE0120911C04211103C0CB3108F046
:101180004B972F2D402F612F0E94FE072196C633CB
:10119000D10579F7CDB7DEB7E5E00C94172880E0EC
:1011A0000895F894E82FE295EF70F0E031A1282F30
:1011B0002F7081E090E001C0880F2A95EAF7982F00
:1011C0009095932391A392A1892B82A3789408955B
:1011D0000F931F9380911B04882329F00E943507E9
:1011E0001F910F9108950E943507009118031091E7
:1011F000190320911A0330911B03600F711F821F86
:10120000931FEECF9091230492FF10C041E0282F4E
:101210002471243009F040E031E0282F2871283073
:1012200009F030E0431711F02CE0822793FF10C043
:1012300041E0282F2471243109F040E031E0282FCB
:101240002871283109F030E0431711F02CE0822793
:101250003091240430FF10C051E0282F217121303B
:1012600009F050E041E0282F2871283009F040E0D3
:10127000541711F029E0822731FF10C041E0282FD8
:101280002171213109F040E031E0282F2871283107
:1012900009F030E0431711F029E0822794FD877EA2
:1012A000089582389105B9F1B0F48133910509F4BC
:1012B0007DC048F48932910509F46DC08A329105E8
:1012C00009F47BC008958533910509F45FC0893323
:1012D000910509F10895833E9105D9F138F4803ED6
:1012E000910529F1823E910579F10895863E910597
:1012F000D9F1873E910509F43EC0843E910541F540
:101300002091240421FF24C08091230484FD19C06E
:1013100087EE90E0089520912304237009F05AC0CD
:101320002091240423FF14C089E290E008952091C5
:10133000230420FD38C03091240430FF09C024FF6D
:1013400043C090E080E008952091230422FDF7CF70
:1013500008952091230422FD3AC03091240430FDE9
:1013600039C024FFF5CFEDCF2091230423FFF0CF28
:1013700024FDE7CFCDCF2091230423FD2EC0309153
:10138000240431FFEECF84EE90E0089520912304F1
:1013900025FFDECFC9CF2091230425FD21C0209158
:1013A000240423FFD5CF89E390E0D2CF20912304FA
:1013B00026FFCECF8AE290E008952091230426FFF5
:1013C000C7CF81E390E0089583EE90E0089582EE28
:1013D00090E0089580EE90E0089586EE90E0089504
:1013E00085E390E00895972F7830B8F46630A8F43C
:1013F0008530B0F470E026E0929F600D711D1124DD
:10140000FB0190E3899FE00DF11D1124EE0FFF1FFA
:10141000E851FF4F85919491089580E090E0089500
:1014200081E0FCCF1F93CF93DF930E945109EC0121
:10143000C11580E5D807F0F5C11580E4D80708F09C
:101440009CC0C03ED10520F5CD3CD10508F082C03E
:10145000C83AD10578F4C53AD10508F073C0C13057
:10146000D10519F1209709F1C430D105F0F4D0E08D
:10147000C0E01BC0C33CD105D0F7C85AD0E0CC0FA8
:10148000DD1FC35BDE4F0990D881C02DD4640DC031
:10149000C11580E2D80708F0D1C0C11581E0D80796
:1014A00008F05AC0C83ED10510F7CE01DF91CF91A8
:1014B0001F910895C03682E5D80718F5C03482E53B
:1014C000D80708F06BC0C03282E5D80708F05FC0CB
:1014D000C11582E5D80708F497C02C2F26952695CC
:1014E00080E2289F900111248C2F8370C1E0D0E00E
:1014F00002C0CC0FDD1F8A95E2F7C22BD32BDD682B
:10150000D4CFC03A82E5D80760F4C03882E5D80766
:1015100008F459C0CF71D0E0DC2FCC27C46FD06A5B
:10152000C4CFC03C82E5D80708F462C0C03E82E563
:10153000D80708F09CCFDC2FCC27CC27DF71C06FF9
:10154000D06AB3CFC55AD0E0C65BDE4FC881D0E0C9
:10155000D064ABCFD065A9CF8D2F0E940209182F80
:10156000CE0199270E945109C12FD0E0DC2FCC2752
:10157000CC27DF71C82BD92B98CFCE0199270E9499
:101580005109CC27DF70C82BD92BD06A8ECFCF71F1
:10159000D0E0DC2FCC27C16FD06A87CF2C2F2695C7
:1015A0002695277080E2289F900111248C2F83704C
:1015B000C1E0D0E002C0CC0FDD1F8A95E2F7C22B5C
:1015C000D32BDC6872CF2C2F26952695277080E2CE
:1015D000289F900111248C2F8370C1E0D0E002C0BD
:1015E000CC0FDD1F8A95E2F7C22BD32BDA685DCFD3
:1015F0008C2F8F710E940209C82FD0E0DC2FCC27DE
:10160000CC27DF71D06251CF8C2F8F710E940209DD
:1016100055E0D695C7955A95E1F7CF70D0E0DC2F0D
:10162000CC27282F30E084FF05C044E0220F331F71
:101630004A95E1F7C22BD32BD06937CF8D2F8F710D
:101640000E940209182FCE0199270E945109C12F2B
:10165000D0E0DC2FCC27CC27DF71C82BD92BD2CF01
:1016600080959091E00298239093E00208958091F4
:10167000E0029091B702892B9091B602992391F0E4
:10168000892B90914501913071F49091230497FF3B
:101690000AC09EE126E732E040E0915040F441115B
:1016A0001092B602089596E02EE632E0F5CFF901E9
:1016B00051919F01552389F34F5FEFCF80917804BB
:1016C00090913F04981301C008958F5F8770FACFFF
:1016D000B0E0A0E0EEE6FBE00C94F7277C0100917F
:1016E000390310913A038091260390912703082B28
:1016F000192BCFE0D0E0CC24C394D12CBC2EC60152
:101700000C2E02C0880F991F0A94E2F780239123C0
:10171000892B49F4219790F7B12C8B2DCDB7DEB7EB
:10172000E9E00C941328B7018C2F0E94F3090E9462
:10173000120A019779F3F1CFCF93DF93EC010E9466
:10174000680BBE010E94F3090E94120ADF91CF913B
:101750000895983078F5863068F5E82FF0E086E057
:10176000989FE00DF11D11249E2F977083E0F69550
:10177000E7958A95E1F7EE0FFF1FEE0FFF1FEA5680
:10178000FD4F50E040E080E0219130E0092E02C0A2
:10179000369527950A94E2F721703327042E01C06D
:1017A000220F0A94EAF7822B4F5F5F4F44305105B6
:1017B00059F7089580E00895983098F5863088F5B7
:1017C000E82FF0E086E0989FE00DF11D11248E2FA8
:1017D000877041E001C0440F8A95EAF783E0F695EF
:1017E000E7958A95E1F7EE0FFF1FEE0FFF1FEA5610
:1017F000FD4F30E020E070E05191DF011197CB0107
:10180000022E02C0969587950A94E2F78170819521
:101810008527842385278C932F5F3F4F2430310504
:1018200059F7089590933A0380933903089521E07E
:1018300030E002C0220F331F8A95E2F720953095E1
:101840008091390390913A03822393230E94120CD2
:1018500008959091B502809589238093B502282F31
:10186000277069F4891759F09091240492FF07C0FA
:101870008695869586950E94170C1092B50208955C
:1018800021E030E002C0220F331F8A95E2F78091F9
:10189000390390913A03822B932B0E94120C0895E6
:1018A00090932703809326030895FC01248122232B
:1018B000C1F0808191810E949C0B92959F7096301F
:1018C00091F058F4925F9F70923058F4803F19F075
:1018D00030F4883E30F481E008959A5FF4CF843F7D
:1018E000D1F380E00895883EB0F3813FD1F7F3CF84
:1018F000A6E0B0E0EEE7FCE00C94FD2749835A83B4
:1019000049815A819923A1F0222391F0CA010E94B2
:10191000680B182F682F89819A810E94DC0B6981DE
:101920007A81812F0E94F3092696E3E00C9419280E
:10193000CA010E94A90B182FF2CFCF93DF93682F13
:1019400081E06A3019F06D3031F480E00E942B0D97
:10195000DF91CF91089580918E0690918F0626E0B9
:10196000FC01A8E8B6E001900D922A95E1F7603EEF
:1019700008F458C026E0FC0111922A95E9F7C091BD
:101980008E06D0918F0646E050E0BE0188E896E0D2
:101990000E9462289E0128583440892B41F1C901D8
:1019A00045E0969587954A95E1F741E050E0BA0108
:1019B00002C0660F771F8A95E2F7CB01609186041B
:1019C00070918704862B972BB9016B5F7F4FE5E001
:1019D00076956795EA95E1F702C0440F551F6A9521
:1019E000E2F7842B952B90938704809386042A5FDB
:1019F0003F4F40918504642F70E0C9010E94DA27AF
:101A0000481B463010F4240F311D211572E03707B2
:101A100010F030E020E028573B4F30938F062093A2
:101A20008E0696CFF6E06F9FB00111246F577A4F64
:101A300046E050E00E945928A2CFCF93DF93EC01FB
:101A4000FE018491811103C0DF91CF9108950E941E
:101A50009D0C2196F5CFCF93382FE0918E06F09113
:101A60008F06E858F44020918504622F70E0CF0182
:101A70000E94DA27281B822F332361F066E00E9440
:101A80002528C82FC15010F4CF91089580E20E94FC
:101A90009D0CF8CF9F01280F311D2115324018F001
:101AA00080E0F0E0E0E08E0F9F2F911D88579B4F64
:101AB00090938F0680938E06E7CF0E941D0D81E0E4
:101AC0000E942B0D089580914501813059F5809138
:101AD000230487FF27C00E94370B8093750240E2E2
:101AE00050E068EB72E084E792E00E946228892B64
:101AF000C1F080E2E4E7F2E0A8EBB2E001900D92E1
:101B00008A95E1F7E0911F04F0912004309749F0A5
:101B100086E0809374020480F581E02D84E792E0F2
:101B2000099508950E94370B80936C0248E050E0BD
:101B300068ED72E08CE692E00E946228892B89F3BE
:101B400088E0ECE6F2E0A8EDB2E001900D928A9513
:101B5000E1F7E0911F04F0912004309711F3028027
:101B6000F381E02D8CE692E0DBCF1092E0028091D1
:101B700045018130C1F48091230487FF14C0E6E75A
:101B8000F2E08EE1DF011D928A95E9F790E080E0B6
:101B90000E94C80790E080E00E94A3071092B7025D
:101BA0000E94630D0895EEE6F2E086E0EBCFAAE234
:101BB000B0E0EDEDFDE00C94FD2787E394E020918B
:101BC000F100FC012193CF01F4E08F339F07B9F7B7
:101BD00080913804833009F470C0B8F4813009F47E
:101BE00047C0823009F4B5C08091E80083FF89C204
:101BF00080913704909138049A3008F082C2E92F1E
:101C0000F0E0E453F74D0C9453288A3009F490C067
:101C10008B3009F46FC0893039F7809137048132F5
:101C200019F780913B0490913C040297E8F680916B
:101C3000E800877F8093E8008091E80082FF38C049
:101C40009091F3008091F200029731F48091F100BD
:101C5000813011F0863021F48091F10080934401AD
:101C60008091E8008B778093E8000E941906BCCF32
:101C700080913704813A09F0B7CF8091E800877FDF
:101C80008093E80080913B0490913C04892B61F49F
:101C900068E08BE294E070E00E94C5068091E80065
:101CA0008B778093E800A0CF60E090E080E0F3CFF6
:101CB000809135048111C0CF97CF80913704813A4C
:101CC00009F092CF80913B0490913C04892B09F05C
:101CD0008BCF8091E800877F8093E8008091E800B7
:101CE00080FFFCCF809145018093F1008091E80056
:101CF0008E77B9CF80913704813209F075CF80910A
:101D00003B0490913C04892B09F06ECF8091E80050
:101D1000877F8093E8000E94190681E09091390442
:101D2000911101C080E0809345010E94B50D5CCF08
:101D300080913704813209F057CF8091E800877F86
:101D40008093E8000E94190680913A048093430131
:101D50004BCF80913704813A09F046CF8091E8005B
:101D6000877F8093E8008091E80080FFFCCF80911E
:101D70004301BACF803899F0823809F0C2C180910E
:101D80003B048F70873008F0BCC18093E9008091DC
:101D9000EB0085FB882780F91092E90006C080914E
:101DA000330490913404911182609091E800977F00
:101DB0009093E8008093F1001092F1008091E80088
:101DC0008E779BC1882309F489C1823009F099C1BB
:101DD0008091390481118CC180913B048F702FEF69
:101DE000280F263008F08DC18093E9002091EB0088
:101DF00020FF7EC1933031F48091EB0080628093AC
:101E0000EB0076C19091EB0090619093EB0021E0A4
:101E100030E001C0220F8A95EAF72093EA00109281
:101E2000EA008091EB008860EACF81116AC11091CD
:101E300039041F778091E3008078812B8093E30041
:101E40008091E800877F8093E8000E9419068091C6
:101E5000E80080FFFCCF8091E30080688093E3007E
:101E600082E0111183E0809335044BC180588230A9
:101E700008F047C18091390490913A048C3D23E0E9
:101E80009207A1F583E08A838AE289834FB7F894A9
:101E9000DE01139620E03EE051E2E32FF0E05093A4
:101EA0005700E49120FF03C0E295EF703F5FEF70B1
:101EB0008E2F90E0EA30C0F0C7968D939D932F5FF0
:101EC000243159F74FBF8091E800877F8093E80065
:101ED0006AE270E0CE0101960E94C5068091E8009A
:101EE0008B778093E8000DC1C096E7CF40913B040B
:101EF00050913C04292F33272330310509F444C085
:101F000078F52130310509F46FC08BE390E0E0E112
:101F1000F5E02230310509F0F4C02091E800277F78
:101F20002093E80020913D0430913E0482179307EE
:101F300008F49C0140E02115310509F064C041110D
:101F400062C08091E80082FDC9CF8091350488236A
:101F500029F2853019F28091E80083FFF2CFBECFDD
:101F600021323105A9F12232310509F0CAC04115EB
:101F7000510509F443C04130510509F0C2C08DE656
:101F800090E0EFE5F4E0C9CF992781309105C1F0E9
:101F9000009759F0029709F0B4C0EDE5F5E0E4913F
:101FA0008E2F90E0EDE5F5E007C0EDE7F5E0E49178
:101FB0008E2F90E0EDE7F5E0009709F4A2C0ADCFD9
:101FC000EBE6F5E0E4918E2F90E0EBE6F5E0F4CF60
:101FD0004115510571F04130510509F092C089E079
:101FE00090E0EBE3F5E099CF82E190E0EBE4F5E0FF
:101FF00094CF89E090E0E2E2F5E08FCF84E490E0D6
:10200000ECECF4E08ACF80913504882309F466CFA4
:10201000853009F463CF8091E80083FD5FCF809124
:10202000E80082FD8ECF8091E80080FF84CF909100
:10203000F3008091F2002115310519F088309105E7
:1020400050F041E0089709F040E08091E8008E7779
:102050008093E80070CF44914093F1003196215075
:1020600031090196E8CF803809F04BC08091E80033
:10207000877F8093E800809136048093F1009ECEA4
:1020800081113FC0109139041230D8F58091E800D9
:10209000877F8093E800109336040E94190611236D
:1020A00011F084E005C08091E30087FDFACF81E064
:1020B0008093350442E061EC81E00E94380642E200
:1020C00061EC82E00E94380680913504843021F072
:1020D00081E08093460115C082E0FBCF80913904F6
:1020E000813079F481E0933009F080E0809334040A
:1020F0001092E9008091E800877F8093E8000E94B9
:1021000019068091E80083FF0AC08091E800877F6C
:102110008093E8008091EB0080628093EB00AA96A8
:10212000E3E00C941928882321F00E94300B0E94D0
:10213000630D0895882339F09091E002982B9093D5
:10214000E0020E94630D0895882339F19CEF980FF7
:10215000913A28F40E9444070E94630D089590E28A
:10216000980F983050F4877091E001C0990F8A95CC
:10217000EAF7892F0E94300BEFCF9BE5980F933041
:1021800028F490E080E00E94C8070895885A8B31B7
:1021900020F490E080E00E94A3070895CF93C82F19
:1021A0008823B1F18CEF8C0F813AA0F58091450125
:1021B000813001F58091230487FF1CC0EC2FE69548
:1021C000E695E695F0E0EC58FD4F828190E04C2FCB
:1021D000477021E030E002C0220F331F4A95E2F73A
:1021E00082239323892B79F08C2F0E9444070E942D
:1021F000630D09C0EEE6F2E08191C817A9F382E011
:10220000E437F807C9F78C2F0E946F070E94630D0F
:10221000CF91089580E28C0F883068F4C77021E078
:1022200030E001C0220FCA95EAF78091E002822BCC
:102230008093E002EBCFEBE5EC0FE33040F4F0E00D
:10224000E65BFE4F808190E00E94C807E1CFC85A4C
:10225000CB31F0F6EC2FF0E0EE0FFF1FE35BFE4F0B
:10226000808191810E94A307D3CF0F931F93CF93B7
:10227000DF938B01EA0190913504943061F58093EE
:10228000E9008FEF9091E800815095FD06C095ED33
:102290009A95F1F700008111F5CF8091E80085FF54
:1022A0001AC00E94E805811111C08091E80085FDE7
:1022B00006C08091E8008E778093E800F2CFF801A5
:1022C00081918F018093F100219779F78091E80047
:1022D0008E778093E800DF91CF911F910F91089541
:1022E00043E050E0BC0182E00E943511089540E2D5
:1022F00050E0BC0182E00E9435110895CF93DF9336
:10230000EC0148E050E0BC0181E00E94351188E01A
:10231000FE01ABE2B4E001900D928A95E1F7DF9106
:10232000CF9108953BB1377F2BB128604FB7F89418
:1023300089E793E0FC015191CF0168E02BB90000DF
:1023400000C057FF3BB9550F000000C000C000C0DF
:102350003BB900C06A9591F7F4E08B319F0751F7C4
:102360004FBF8FE594E00197F1F700C0000008959A
:10237000B0E0A0E0EEEBF1E10C94F6277C015B010C
:102380006A018091170301E010E08A3010F40AE03E
:1023900010E0C1E0D0E0B501C701F6010995811157
:1023A00004C021960C171D072CF4CDB7DEB7EAE068
:1023B0000C941228CC9F9001CD9F300D300D11242C
:1023C00090E080E045E34A95F1F70000019682171E
:1023D0009307C1F7E0CF0E94B50D2FEF84E39CE097
:1023E000215080409040E1F700C0000088E19AE071
:1023F0000FB6F894A895809360000FBE909360008C
:10240000FFCFAB0124E630E0BC0188E70E948E25B7
:1024100021E0892B09F020E0822F08958091770335
:1024200090917803911103C091E089270895882342
:1024300069F062E070E08DE594E00E940112811184
:1024400003C08091770308951092770380917703FA
:10245000EBCFCF93C0917703809178038823D1F09D
:102460000E943507605A75418F4F9F4F60937303E9
:10247000709374038093750390937603C11108C021
:1024800062E070E08BE594E00E940112811105C0CA
:10249000C09177038C2FCF91089581E080937703CB
:1024A000F7CFB0E0A0E0E7E5F2E10C94F6270E9458
:1024B000E80860936B0370936C0380936D039093B3
:1024C0006E0330917D04D32FD37019F0D32FD6959E
:1024D000D695209142012130D9F0222359F02230A3
:1024E00009F410C1233009F417C1CDB7DEB7EAE013
:1024F0000C94122810923F0160936F037093700345
:10250000809371039093720381E080934201EDCF39
:1025100090913E0181E0D9130BC0832F83702091ED
:102520003D0130E091E08217130609F490E0892F15
:1025300081708093410180918204909140019817AD
:1025400039F08093400140E060E080E00E94AF08F5
:10255000DD2321F0D13061F090E02AC0909141015B
:10256000992331F140E060E080E00E94AF08F4CFB1
:1025700080913F010E949B08A82E092FD0907E04D5
:1025800040917F04E0918004F0E0E55AFC4F411156
:1025900024C0C4911C2FFC2EB12C20911C04A01629
:1025A00008F48FC091E0222309F4A5C00B31A0F6F6
:1025B00080913F0121E0280F20933F0191119FC09E
:1025C00092E09093420190914101911198C0DD23D6
:1025D00009F4A0C00E949B0888CFE42EF12CC4917E
:1025E000BC2EEC2FF0E026E0D29EC00111242FEF8C
:1025F00030E0B9010E94DA278D2D90E0880F991FF5
:1026000055E5569FD001579FB00D11248A1B9B0B97
:10261000D82EDD0CD80ED901AE19BF09AE9FC0016E
:10262000AF9F900DBE9F900D1124192F4D9DA001BD
:102630001124452F5527D901A41BB50BAE9FA0012E
:10264000AF9F500DBE9F500D1124D901AD19B10996
:102650006D01CE9CD001CF9CB00DDE9CB00D11243D
:10266000AB2FBB272A1B3B0B2E9FD0012F9FB00DFA
:102670003E9FB00D1124FB2E62307105A1F050F485
:102680006115710509F488CF6130710581F0F92E6B
:10269000152F82CF6430710569F080F066307105C6
:1026A00009F47ACFF4CFC92F1B2FFB2C75CFFC2E4A
:1026B000C52F72CFCB2FF92E1B2D6ECFF52EC92F24
:1026C000FBCFF501D501AD5CBD4F9C9180914001E0
:1026D000982369F0211105C0BBE1AB16B1040CF0E1
:1026E0007B97212F4F2D6C2FCF010E94FE072FEFDC
:1026F000A21AB20A52CF063308F45ACF2DCFD11105
:1027000069CFF3CED0933E01832F837080933D0138
:102710000E94921183E0F9CE80917C04882351F0CD
:1027200048E050E067E170E08DE794E00E94962871
:1027300010927C04C0906F03D0907003E0907103FE
:10274000F090720380911B048823C1F02FB7F89496
:1027500060912604709127048091280490912904A7
:102760002FBF6C197D098E099F09603171058105A4
:10277000910508F4BACE10924201B7CE0E94E80843
:10278000F0CF9091240492FB222720F9281779F0AA
:1027900080FB92F9909324046091230470912404A7
:1027A00084E090E00E94C42882E00E94290C0895F1
:1027B000A4E0B0E0EEEDF3E10C94FD2740910F03AF
:1027C0005091100360911103709112032FB7F89488
:1027D0008091260490912704A0912804B0912904A7
:1027E0002FBF841B950BA60BB70B11E08436910508
:1027F000A105B10570F10E94E8086E5F7F4F8F4F11
:102800009F4F69837A838B839C8380911901909178
:102810001A0187509D4F4091180150E045305105F5
:1028200010F044E050E0BE016F5F7F4F0E946F28C0
:1028300083E090E00E946427182F882351F00E94C3
:10284000350760930F0370931003809311039093E7
:102850001203812F2496E3E00C941928EF92FF9243
:102860001F93CF93DF9300D000D00F92CDB7DEB788
:102870007B0190E080E00E946427182F882309F4F0
:102880006DC04091030150E04115510511F041E048
:1028900050E0609104017091050167507D4FCE01B9
:1028A00005960E946F284091F1025091F2026091CA
:1028B000F3027091F4022FB7F8948091260490915E
:1028C0002704A0912804B09129042FBF841B950BE5
:1028D000A60BB70B84369105A105B10538F48AEF34
:1028E00092E00E94B2059D818917C1F181E090E0DC
:1028F0000E946427882309F458C040910B0150E0DE
:102900004530510510F044E050E060910C017091A9
:102910000D0167507D4FCE0101960E946F288AEF0E
:1029200092E00E94B2059D8189133FC00E94350745
:102930006093F1027093F2028093F3029093F40299
:1029400089819A81AB81BC818093ED029093EE02E4
:10295000A093EF02B093F00211E00EC08091FA0252
:102960009091FB02A091FC02B091FD0289839A83B1
:10297000AB83BC831111E4CF8091ED029091EE0204
:10298000A091EF02B091F002F70180839183A283BE
:10299000B383812F0F900F900F900F900F90DF91C6
:1029A000CF911F91FF90EF90089510E0E5CF4F92E7
:1029B0005F926F927F928F929F92AF92BF92EF92AF
:1029C000FF920F931F93CF93DF937B01FB01408016
:1029D0005180628073809FB7F89480902604909015
:1029E0002704A0902804B09029049FBF841895085C
:1029F000A608B708F4E68F169104A104B10418F4F0
:102A0000C1E0442329F1C82F880FDD0BFE0183E0CC
:102A1000EE0FFF1F8A95E1F7E050FF4F8181928111
:102A200087509D4F408150E00417150708F4A80116
:102A3000B9010E946F28CE010E946427C82F882305
:102A400039F00E943507F701608371838283938395
:102A50008C2FDF91CF911F910F91FF90EF90BF903E
:102A6000AF909F908F907F906F905F904F90089560
:102A7000A9E0B0E0EEE3F5E10C94FC2788E0EDE797
:102A8000F4E0DE01119601900D928A95E1F7198626
:102A900049E050E066E073E0CE0101960E946228B2
:102AA00041E0892B09F440E009E010E09E012F5F2E
:102AB0003F4F63E173E084E00E94D7142996E4E07D
:102AC0000C9418280F931F93CF93DF93EC0144E0ED
:102AD00050E06EEF72E00E94622841E0892B09F419
:102AE00040E004E010E09E0165EF72E082E00E94A9
:102AF000D714DF91CF911F910F9108951F920F92DC
:102B00000FB60F9211242F933F934F935F936F93C0
:102B10007F938F939F93AF93BF93CF93DF93EF9365
:102B2000FF93D091E900DF708091EC00C82FC17055
:102B300080FDC0E81092E9008091F000877F8093CB
:102B4000F00078940E94D70D1092E9008091F00077
:102B500088608093F000CD2BCF70C093E900FF9187
:102B6000EF91DF91CF91BF91AF919F918F917F9125
:102B70006F915F914F913F912F910F900FBE0F90EA
:102B80001F9018951F920F920FB60F9211242F933A
:102B90003F934F935F936F937F938F939F93AF93E5
:102BA000BF93EF93FF938091E10082FF09C0809172
:102BB000E20082FF05C08091E1008B7F8093E100FD
:102BC0008091DA0080FF24C08091D80080FF20C06F
:102BD0008091DA008E7F8093DA008091D90080FFA7
:102BE000AAC080E189BD82E189BD09B400FEFDCFA4
:102BF00081E08093350480912A04811109C00E94EC
:102C0000C9050E946A068091E20084608093E20018
:102C10008091E10080FF1AC08091E20080FF16C021
:102C20008091E2008E7F8093E2008091E2008061DB
:102C30008093E2008091D80080628093D80019BC14
:102C400085E08093350483E0809346018091E10024
:102C500084FF30C08091E20084FF2CC080E189BDF8
:102C600082E189BD99B5892F817090FFFBCF90914A
:102C7000D8009F7D9093D8009091E1009F7E909323
:102C8000E1009091E2009F7E9093E2009091E2003B
:102C900091609093E20090913604992309F451C019
:102CA00094E09093350490913504943009F482E0D7
:102CB000809346018091E10083FF2CC08091E20067
:102CC00083FF28C08091E100877F8093E10082E04C
:102CD00080933504109236048091E1008E7F8093BA
:102CE000E1008091E2008E7F8093E2008091E2001B
:102CF00080618093E20042E060E080E00E9438065C
:102D00008091F00088608093F00081E0809346011C
:102D100080934501FF91EF91BF91AF919F918F916A
:102D20007F916F915F914F913F912F910F900FBEC7
:102D30000F901F90189519BC1092350410922A0418
:102D400067CF9091E30097FD02C0982FAACF93E040
:102D5000A8CF78941F921FB61F9211248F939F9330
:102D6000AF93BF938091260490912704A0912804EB
:102D7000B09129040196A11DB11D80932604909362
:102D80002704A0932804B0932904BF91AF919F9189
:102D90008F911F901FBE1F9018959C014FB7F894FC
:102DA0008091260490912704A0912804B0912904D1
:102DB0004FBF821B930B08952FB7F8948091260480
:102DC00090912704A0912804B09129042FBF089561
:102DD0000F931F93CF93DF93C62FD42F022FFC01A5
:102DE00085818823A9F060937B040E94DC16909370
:102DF0007A0480937904C77081E001C0880FCA9576
:102E0000EAF70E949A10DF91CF911F910F910895D8
:102E100080917B04681335C08091790490917A0485
:102E20000E94CD16883C910560F510E21D0FCD176C
:102E3000B9F080E28C0F883040F4C77081E001C0A7
:102E4000880FCA95EAF70E949310183048F481E081
:102E50009D2F977001C0880F9A95EAF70E949A10EB
:102E6000802F0E94CE10802F0E94A410183058F698
:102E7000D77081E001C0880FDA95EAF70E949310BD
:102E8000C2CFC77081E001C0880FCA95EAF7F6CFBC
:102E9000B0E0A0E0EEE4F7E10C94F6278C01FC0131
:102EA0008481882309F467C021E0408151816281D7
:102EB000738195810E94780CEC01F801958199232A
:102EC00009F482C481818093450380818093440307
:102ED00080E280933501D0934303C09342039E0167
:102EE00030522115304238F4F8018681807F09F490
:102EF0005EC0FE010AC09E01305421153041C8F465
:102F0000F8018681807FFE0109F0FF27ED33F1058E
:102F100028F4E455FF4FE491E0933501FE01E851B8
:102F2000FC47E730F10508F042C0EA52F74D0C9437
:102F300053289E013A9521153F41D8F29E01205A0F
:102F400032452032310550F3FE01E0CF26E241EE5A
:102F500061EEC8010E94E8168091B502877059F0B1
:102F6000F8018581882339F08091240482FF03C011
:102F700082E00E94290CCDB7DEB7EAE00C9412285B
:102F800027E245EE65EEE5CF26E241EE60EEE1CFC9
:102F900027E245EE64EEDDCF26E241EE62EED9CFC8
:102FA00027E245EE66EED5CF28E241E0EBCF109266
:102FB0007B049E0130572332310508F019C484E0A8
:102FC00090E00E9490289093240480932304FE01B3
:102FD000E150F047E232F10520F4E352F74D0C9452
:102FE00053288091230481608093230495C08091AD
:102FF00024048860809324048FC08091230482601D
:10300000F3CF809123048460EFCF80912304886004
:10301000EBCF809124048160EDCF80912404826005
:10302000E9CF809123048061DFCF80912304806207
:10303000DBCF809123048064D7CF0E94B50D8091AF
:1030400023048068D1CF809123048C60CDCF809100
:1030500024048360CFCF809123048E7FC5CF8091DD
:103060002404877FC7CF809123048D7FBDCF8091BB
:1030700023048B7FB9CF80912304877FB5CF8091C4
:1030800024048E7FB7CF809124048D7FB3CF8091AD
:1030900023048F7EA9CF809123048F7DA5CF8091BB
:1030A00023048F7BA1CF0E94B50D809123048F77DD
:1030B0009BCF80912304837F97CF809124048C7FC2
:1030C00099CF8091230482FB992790F921E09227E0
:1030D00090FB82F990FB83F987CF80912404982F8D
:1030E000909591708E7F892B90FB81F983CF909181
:1030F0002304892F8F7B96FF806476CF0E94B50DC5
:1031000090912304892F97FB87F980586DCF61E058
:103110008EE090E00E94A628609123047091240420
:1031200084E090E00E94C4280E94B50D15CF60E0B5
:10313000EFCF90912304892F8F7E94FF806154CF2D
:1031400090912304892F8E7F90FF81604DCF9091C5
:103150002404892F877F93FF88604CCF85E358C371
:1031600085E343C3992369F18272FE01E052F84777
:10317000EB30F10508F06DC0E150F74D0C94532889
:103180000E948D08E9CE882309F448C00E946F0888
:10319000E3CE882309F448C00E945B08DDCE882373
:1031A00009F448C00E944108D7CE882309F448C0DA
:1031B0000E942708D1CE882309F448C00E940B083A
:1031C000CBCE8091E0028272FE01E054F847ED30F0
:1031D000F10508F03EC0E65FF64D0C94532880914F
:1031E0007D04837011F41092420180917D048C7FE4
:1031F000816080937D0480917C04816080937C0455
:10320000ABCE80917D04837011F0109242018091C9
:103210007D048C7FEECF882309F4B8CF0E947E080E
:103220009BCE882309F4B8CF0E94650895CE8823E9
:1032300009F4B8CF0E944E088FCE882309F4B8CF86
:103240000E94340889CE882309F4B8CF0E94190857
:1032500083CE9E01205E324520323105A8F49111C3
:1032600015C0CF7181E090E0FC0102C0EE0FFF1F9E
:10327000CA95E2F7EF016E2F83E090E00E94A62846
:10328000CE010E94500C68CE992381F0C330FCE738
:10329000DF0709F478C008F05BC0C1153CE7D3072D
:1032A00009F464C0C130DC4709F473C0F8018581BA
:1032B000C081D181882309F47AC0CE010E94680BB5
:1032C000F82E682FCE010E94DC0BBE018F2D0E94CC
:1032D000F3090E94120AD82FC92FA82EF801C58021
:1032E000B680B2943FE0B3228091B502877009F1B5
:1032F000EC2CCC20F9F0892F807F803469F080E2BB
:103300008D0F8830B0F0892F807E803229F4F1E073
:10331000FD1778F4BB2069F08091240482FF09C076
:1033200082E00E94290C8091B5028770EE24E3941C
:103330008111E12CDC2ED2942FE0D2222BE02D152E
:1033400008F49AC0ED2DF0E0E95EF64D0C94532898
:10335000CB359CE7D90749F1CC35ECE7DE07D9F04E
:10336000CA35DC4709F0A2CF81E01CC00E94B50D30
:103370002FEF34E38CE0215030408040E1F700C073
:1033800000000E9424076FEF7FEF90E080E00E9432
:10339000C4280E94EB118091240482FB882780F9C5
:1033A00091E089270E94C11381CF80E0FBCFCE013D
:1033B0000E94A90BF82E89CF3C2F3F70F32EC07FBF
:1033C00019F0F29490EFF922CC20B9F0FF2069F0C7
:1033D00080E28D0F883010F0A11009C08091E002CA
:1033E000F82AF092E0020E94630D8D2F43C0809175
:1033F000B702F82AF092B702F6CF8D2F0E94A410E0
:10340000FF20D1F1D05ED83010F0A11004C08F2D74
:103410000E94300B06C0F0948091B702F822F0921F
:10342000B7020E94630D28C08C2F8F70F82EC07FCA
:10343000C03219F0F29480EFF822AA2059F091E0FE
:10344000A91609F478C0CC2009F484C0BB2009F483
:1034500046C0CBCF8091240482FD3DC0CC20A9F191
:10346000FF2039F08091E002F82AF092E0020E94F9
:10347000630D80E00E94CE10ED2DE850FF0B3497D5
:1034800010F40E94ED07EE20A9F08091B50280FDB6
:1034900011C0F80115828695869586950E94400C8C
:1034A000C8010E9448178091B50286958695869539
:1034B0000E94170C20E0F8014081518162817381E4
:1034C000848195810E94780C56CD80E00E94A410E2
:1034D000FF2091F29CCFCC20A1F0B11004C08F2D21
:1034E0000E949A10C9CFE1E0BE12C6CF8091B60209
:1034F0009F2D9823F91609F4BFCFF82AF092B6024F
:10350000BBCFB110B9CF8F2D0E9493109091B6020E
:103510008F2D892329F08F2D809589238093B602E2
:10352000809195029F2D982309F4A6CFF094F8225C
:10353000F0929502A1CFCC2029F0F5E0FB1508F41C
:103540009BCFCDCF24E02B1508F496CF8F2D0E9472
:10355000931092CFBB20D1F339E3A31209C08FEFB0
:1035600097EEE3E081509040E040E1F700C00000BA
:103570008D2F0E94A41080CF8C2F86958695837006
:1035800069F0813009F078CF8D2F9C2F9370C11096
:1035900002C080E090E00E94A3076ECF8D2F9C2F89
:1035A0009370C11002C080E090E00E94C80764CF11
:1035B0008C2F837009F03FC0C1105ECF4D2F429514
:1035C00046954770440F440F2D2F2F7030E0042E86
:1035D00002C0220F331F0A94E2F790E080E0D4FF8C
:1035E00009C08FE090E002C0880F991F4A95E2F76A
:1035F00080959095C695C695C370C23099F078F4C1
:103600004091260350912703C13039F0822B932B30
:10361000842395230E94500C2FCF242B352B822BF3
:10362000932BF8CF822B932B2091260330912703E5
:1036300082279327EFCF8695CC2011F08C2F8170B5
:10364000882309F419CF4D2F429546954770440FB2
:10365000440F2D2F2F7030E0042E02C0220F331F95
:103660000A94E2F790E080E0D4FF09C08FE090E098
:1036700002C0880F991F4A95E2F780959095C695EC
:10368000C695C370C23099F078F4409139035091D7
:103690003A03C13039F0822B932B842395230E9467
:1036A000120CEACE242B352B822B932BF8CF822BB6
:1036B000932B2091390330913A0382279327EFCF40
:1036C000CF70CC2029F08C2F0E94400C8D2F08CF7A
:1036D0008D2F0E9493108C2F0E94170CCDCE8D2F12
:1036E000F2EFAF1699F1FA1570F020EFA216D1F0B3
:1036F00031EFA31691F0CC2009F456C0B11075CE6D
:103700008C2F8F7127C093EFA91639F1E4EFAE1219
:10371000F2CF9091240492FD2EC08C2F8F71CC207B
:10372000D9F218C0CC2069F0F4E0FB1508F4A4CE5F
:10373000CF7181E090E002C0880F991FCA95E2F72F
:10374000B8CF25E02B1508F497CEF2CF8C2F8F71D0
:10375000C110C2CF0E94400C8FCE90E080E0CC2000
:1037600009F49DCFCF7181E090E002C0880F991FCE
:10377000CA95E2F794CFCC2061F08C2F8F7192FF25
:10378000E9CF98E0899F9001112423602093B5022E
:10379000E1CF81E00E94290CE1E0EB1508F06CCE4E
:1037A00082E00E94290C68CEBB2059F0893309F0D1
:1037B000DFCEFFEF27EE33E0F15020403040E1F75D
:1037C000D5CE8C2F8F7188CFFE01E851FC47E730B2
:1037D000F10508F4AACBC6312CE7D20709F0F1CCE9
:1037E000809194028111BCCC89E20E94440712C0EE
:1037F0008091E002C631FCE7DF0709F0B3CC8A7A9A
:1038000091E009F490E0909394028111A7CC89E2B1
:103810000E946F070E94630D9FCBCF93DF9380912F
:10382000B402807F09F04DC08091B302882309F46F
:1038300048C0E091780450913F04C091AF02D0910C
:10384000AE026091B0027091B10247E05E17C9F11B
:103850008E2F90E0E49FF0011124E05CFB4F248167
:10386000222391F1489FF001499FF00D1124DF01BF
:10387000A05CBB4F11962C9111972C1325C02C9155
:103880002D1322C015962C91159721111DC012964B
:103890002D913C91261B370B283C3105A8F48091D3
:1038A000B4028F7080618093B402EA5BFB4F808129
:1038B0008F70806180838EEA92E00E9448170E9498
:1038C0005E0BDF91CF910895FC013196E770BECF7A
:1038D000A4E1B0E0EEE6FCE10C94F4278C0186E074
:1038E000F801DE011F9601900D928A95E1F7F8012B
:1038F0008481E5809EEAA92E92E0B92E9091B202D1
:10390000911128C0882319F1EE20F1F0C8010E941E
:10391000550CF82E8823C1F087E0F801D5010190FD
:103920000D928A95E1F78091B202813031F4809155
:10393000AE029091AF020E949C0B0E940D1C8F2D35
:103940006496ECE00C941028C8010E944817FF24EC
:10395000F394F5CFD080C18082809380F090B30241
:103960002091B0023091B102A401421B530BFF2001
:1039700009F4D9C0483C510508F092C08823F9F2F7
:103980009091AF028091B402282F207F09F056C099
:10399000C91214C09091AE02D91210C0E11048C0F3
:1039A0008F7080618093B4028EEA92E00E94481783
:1039B0008091B402F8018683F12CC1CFE11038C0A8
:1039C0006C2D8D2D0E9493056C2D8D2D0E949305DD
:1039D000E82E8111F1CFDF86C88A8F8598890E94F1
:1039E0009C0B292F22952F70243058F49F70223081
:1039F00088F0992399F0F8019681907F79F4FE2C54
:103A00009ECF2A5F2F70223068F0C8010E944817AD
:103A1000EF2CF5CF992311F0882389F3805E88304D
:103A200070F3F3CF803F58F3815F833070F7E7CFB7
:103A30008091B40281608093B402BECFC91207C0E6
:103A40009091AE02D91203C0EE2009F48DC0C801D6
:103A50000E94550C882309F477CFEE2009F474CF27
:103A60008091B402803288F02091AE023091AF0292
:103A7000398728879B868A869091B2029C871D860B
:103A80008E87CE0108960E94481787E0F801AEEABB
:103A9000B2E001900D928A95E1F70E940D1C57CF7C
:103AA0009091B402292F207F51F48EEA92E00E9477
:103AB000481787E0F50111928A95E9F77DCF8823B1
:103AC00009F43DCF8091AF028C1110C08091AE02FD
:103AD000D8120CC0E1100AC09683C8010E94481792
:103AE00087E0F50111928A95E9F729CFC8010E9474
:103AF000550C882309F428CFEE2009F425CF8091B6
:103B0000B402803210F22091AE023091AF023A83BB
:103B100029839C828B829091B2029D831E828F8327
:103B2000CE010196B0CF483C5105D0F6882309F468
:103B30000ECFFE2CEE2009F407CF8091AF028C113E
:103B400020C08091AE02D8121CC08091B40280FDCA
:103B50000FC0982F907F61F08683903F31F0982FAF
:103B6000907F905F8F70892B8683C8010E944817D1
:103B700087E0F801AEEAB2E001900D928A95E1F794
:103B8000DECEC8010E94550C81117FCF8091B40216
:103B900081608093B402C8010E944817D0CEABE187
:103BA000B0E0E5EDFDE10C94FC274E8B5F8B688F58
:103BB000798F8A8F9B8F192F91111092B7021D8ACE
:103BC00086E0FE017696DE011F9601900D928A95A1
:103BD000E1F70A8D002341F021E04F85588969897A
:103BE0007A89C8010E94780C0B8B1C8B87E0FE0140
:103BF0003F96DE01189601900D928A95E1F7CE016D
:103C000008960E94681C81112AC087E0FE01389640
:103C1000DE01119601900D928A95E1F78C8588233B
:103C2000F1F020913F0430E0C90101968770992797
:103C30004091780448171906E9F097E0929FD00167
:103C4000939FB00D1124A05CBB4FFE0131960190F3
:103C50000D929A95E1F780933F040E945E0B17E066
:103C60008091780490913F04891312C06B96E4E030
:103C70000C9418280E94B50D10923F0410927804FD
:103C800087E0EEEAF2E0DF011D928A95E9F7E7CFDF
:103C9000819FC0011124805C9B4F0E94681C882377
:103CA00029F38091780490E001968770992780939A
:103CB0007804D6CFACE0B0E0E0E6FEE10C94F32768
:103CC0008E010F5F1F4F88E0D8011D928A95E9F79A
:103CD00085E8C82E81E0D82EF12CE12CAA24A394EB
:103CE000B12C2FE8822E21E0922EF60181916F01F6
:103CF0008F3F09F442C0F894E82FE295EF70F0E0AE
:103D000021A18F70A50102C0440F551F8A95E2F7CB
:103D1000CA01922F982B91A392A18095892382A307
:103D2000789400C0E9E8F1E0712C31E021912F3F57
:103D300009F4A3C0A22FA295AF70B0E090968C9129
:103D400090E02F7002C0959587952A95E2F780FD47
:103D500094C0832F782A330F8E169F0639F7F60109
:103D6000319780818F3F11F00E94D10850EA5A9517
:103D7000F1F7F801EE0DFF1D70828FEFE81AF80AD7
:103D800094E0E916F10409F0B0CF48E050E0B80142
:103D90008CE193E00E946228009741F028E0F8014E
:103DA000ACE1B3E001900D922A95E1F70091250373
:103DB00010E0085D1C4F892B09F461C081E08093FD
:103DC000E5020E94DC169093E4028093E302F12C5A
:103DD000E0901B04EE2009F4ACC019861A861B86FD
:103DE0001C86809117038A3008F06DC04EE254E1C2
:103DF000BE01675F7F4FC8010E94B811882309F494
:103E000087C042E655E1BE01675F7F4FC8010E944F
:103E1000B811882309F47CC048ED53E1BE01675F07
:103E20007F4FC8010E94B811882309F471C048E38C
:103E300055E1BE01675F7F4FC8010E94B81188231A
:103E400009F466C0109217038091240390E044E0C7
:103E500050E0BE01675F7F4F885D9C4F0E946228E3
:103E600021E02093EC02892B09F044C0E12C8E2D37
:103E70008F292C96EDE00C940F2880E06BCFF0900A
:103E8000E502FF2009F4A3CF8091E3029091E402C0
:103E90000E94CD16059708F49ACF44E050E06CE1FB
:103EA00073E0C8010E946228892B59F084E0ECE19C
:103EB000F3E0D80101900D928A95E1F71092E502A6
:103EC00087CFF12CFBCF8091E6029091E7020E9410
:103ED000CD16843F914008F089CF8091EC02882371
:103EE00029F2FE01399684E0DF011D928A95E9F7F7
:103EF0001092EC02E0912403F0E0E85DFC4F89852C
:103F00009A85AB85BC8580839183A283B383AFCF31
:103F1000809117038F3F31F08F5F809317038A30B2
:103F200008F492CF0E94DC169093E7028093E60299
:103F3000D4CFC0902403D12CF601E85DFC4F6F0173
:103F400084E0F801AAEFB2E001900D928A95E1F7C2
:103F50008AEF92E00E94B2058093F90284E0EEEFCE
:103F6000F2E0D60101900D928A95E1F7809002036C
:103F700090900303A0900403B09005038091E802A1
:103F80009091E902A091EA02B091EB02881699069D
:103F9000AA06BB06B1F08092E8029092E902A092D4
:103FA000EA02B092EB020E943507861A970AA80A25
:103FB000B90A8092180390921903A0921A03B09242
:103FC0001B0388E0E6E0F3E0ADE7B4E001900D927A
:103FD0008A95E1F74CCFA6E0B0E0E1EFFFE10C9469
:103FE000FC270E94DC168C018091E1029091E20294
:103FF0008017910781F019821A820E94DC16682FBF
:1040000049815A81792F80E090E00E94CF1D109362
:10401000E2020093E1022696E4E00C9418281F9235
:104020001FB61F9211248F939F93AF93BF938091DC
:104030002504811113C08091260490912704A0913A
:104040002804B09129044196A11DB11D8093260436
:1040500090932704A0932804B0932904BF91AF91B3
:104060009F918F911F901FBE1F901895CDB7DEB7FF
:104070002B970FB6F894DEBF0FBECDBF85B7806813
:1040800085BF85B7806885BF84B7877F84BF0FB63B
:10409000F894A895809160008861809360001092E8
:1040A00060000FBE80E890E00FB6F8948093610046
:1040B000909361000FBE81E0809346018FEC98E001
:1040C00090936B0280936A020E94C9050E946A065F
:1040D0008091E20084608093E200789480913504BE
:1040E0008823A1F01091E9001F709091EC00892FB6
:1040F000817090FD80E8182B1092E9008091E80013
:1041000083FD0E94D70D1F701093E90082E084BDEB
:1041100093E095BD9AEF97BD80936E0010921803BF
:104120001092190310921A0310921B038091D80069
:1041300080618093D8002AE12A95F1F700C0809130
:10414000D900182F117080FD04C00E94C90510927B
:10415000350410931B0410931C04109328011111B3
:104160000E947826809128018091280194E0811195
:1041700090E09093250384E0891B8093240384E9D5
:104180000E94D10886E60E94D10887E90E94D108E2
:1041900086EC0E94D10809E811E0D8018D918D01CB
:1041A0008F3F11F00E94D108B1E00F381B07A9F72B
:1041B00088E0E8E2F3E0DF01282F1D922A95E9F775
:1041C000ECE1F3E0DF011D928A95E9F790E080E0F1
:1041D0000E949028853E9E4F09F461C065EE7EEFF7
:1041E00090E080E00E94C42860E082E090E00E94BD
:1041F000A62881E090E0909327038093260361E056
:1042000083E090E00E94A62860E074E184E090E002
:104210000E94C42860E086E090E00E94A62860E04A
:1042200087E090E00E94A62840E050E0BA0188E0D4
:1042300090E00E94B82860E083E290E00E94A62807
:1042400060E08CE090E00E94A62860E08DE090E0C5
:104250000E94A62819821A821B821C821D821E823D
:104260001F82188648E050E067E170E0CE010196B9
:104270000E94962840E050E0BA018FE190E00E9451
:10428000B82840E050E0BA018FE090E00E94B828E2
:1042900040E050E0BA0183E190E00E94B82882E05B
:1042A00090E00E9488288093300384E090E00E9490
:1042B000902890932404809323040E945A1EEFEFC9
:1042C000F6E721E0E150F0402040E1F700C00000B7
:1042D0000E945A1E80911C04E4E08111E0E0F0E0AD
:1042E000E85DFC4F808181FF08C06FEF7FEF90E0B9
:1042F00080E00E94C4280E94240783E090E00E948E
:10430000882890E00E94500C0E94090881E0809368
:104310007C0448E050E067E170E08DE794E00E94A3
:10432000782810927C0480917D048C7FF9F485E0DC
:1043300080937D048091470190914801A0914901AB
:1043400080937E0490937F04A09380048FE78093F2
:1043500081048FEF8093820448E050E067E170E0D1
:104360008DE794E00E94962810927C0480911B04B3
:104370008111B8C082E08093660380E88093850451
:104380000E9416256BE070E08FED92E00E94011212
:104390008823E9F18091660365E070E081FDA4C0A7
:1043A0008AED92E00E940112882389F16DE070E0AD
:1043B00088EC92E00E940112882349F10E9435079F
:1043C000605A75418F4F9F4F6093730370937403CE
:1043D0008093750390937603E8E8F4E080E092E040
:1043E000DF019C011D9221503040E1F7F0938F06D0
:1043F000E0938E068FEF9FEF90938704809386045F
:1044000081E0809378038093770310926703809113
:104410001B04811102C00E947B2689E291E09093E7
:10442000200480931F049AE0C92ED12CE12CF12C9A
:1044300080913504853049F480913504853009F444
:1044400056C00E94B50D0E94ED070E945A1E01E35E
:1044500013E088E2A82E83E0B82ED501F8019191EF
:104460008D9123E0E933F20709F479C09817B9F385
:1044700030901B04912CD5018D905D01F801419085
:104480008F01481431F1712C552453944824842D04
:104490008521B9F03320A9F079829A820E94DC1636
:1044A0009C838B83F1E0FD8391E0882D852109F4C5
:1044B00090E09E8349815A816B817C818D810E942D
:1044C000CF1D7394550C26E07212E1CFF80131979D
:1044D0008082939438E09312CECF0E94E80881E066
:1044E000898742C080E047CF85ED92E05BCF809125
:1044F0003504843041F10E9451120E940E12109234
:10450000250488E190E0A0E40FB6F894A895809384
:1045100060000FBEA093600083B7817F846083BF7B
:1045200083B7816083BF7894889583B78E7F83BF7C
:104530000FB6F894A8958091600088618093600020
:10454000109260000FBE0E945A1EE8E2F3E08191D3
:104550008111FDC1B3E0E033FB07C9F76DCF9813BC
:1045600087CF0E94EB1F19860E9451128091780319
:10457000882309F4B6C080916803909169030E9472
:10458000CD16C29708F48DC00E94DC169093690383
:104590008093680388E894E090938F0680938E065A
:1045A00080911B04882309F4F2C08BE093E00E9401
:1045B0001D0D2091390330913A03832F99270097DD
:1045C00051F19C0188E0A901A4E056954795AA9570
:1045D000E1F74115510511F08C5F9A01A90156953B
:1045E0004795569547954115510511F08E5F9A01F3
:1045F00036952795232B09F08F5F813009F481C010
:10460000882359F0823009F47FC0833009F47FC0D9
:104610008AEE92E004C080E0D6CF83E093E00E946F
:104620005D0D80914503805D0E949D0C89E193E0C2
:104630000E941D0D80914403805D0E949D0C85E1C8
:1046400093E00E941D0D40904203509043038091DF
:104650003301909134014816590609F05BC08091EE
:104660004103803209F056C0EBE3F3E08F01819102
:104670008032E1F3F80101900020E9F79F01215019
:10468000310959010A151B0508F47BC083E193E049
:104690000E941D0D809135010E949D0C81E00E94B9
:1046A0002B0D8091860490918704892B09F074C0AA
:1046B000809177038823A9F00E9435070091730346
:1046C000109174032091750330917603601B710B78
:1046D000820B930B6F3F7F4F8F4F9F4710F40E94C9
:1046E0000E12898581110E9429120E94ED07909176
:1046F0006A03891709F49CCE80936A030E943507E8
:1047000097CE8DEF92E08BCF87EF92E088CF80EF4E
:1047100092E085CF509234014092330180E2809341
:104720004103712C612C109240036BE3862E63E0F1
:10473000962E76E3A72E73E0B72E8401C301B20153
:10474000A70196010E943128605D603319F480163C
:10475000910631F0411451046104710409F460E2DE
:10476000D80114966C93C301B201A70196010E946F
:10477000312829013A0101501109A016B106F1F6BC
:1047800073CFD8018D918D010E949D0C7BCF8BE161
:1047900093E00E941D0D85CF80917803882309F452
:1047A00087CF80916703811183CF0E9429122091C6
:1047B0008604309187042115310509F479CF80E012
:1047C000082F10E044244394512C082E02C0440CBE
:1047D000551C0A94E2F7A20142235323452B11F4FE
:1047E0008F5FEECF9091660390FF98C0880F880F7F
:1047F000880F8093380110923B01895F80933901C3
:1048000083E080933C0124E630E047E050E066E33B
:1048100071E088E70E944A25892B09F049CFA80159
:1048200095E0440F551F9A95E1F78091660380FF4C
:1048300087C0E6E4F3E080E2DF011D928A95E9F7A4
:10484000E3E9F1E0FB87EA876FE871E087E0A82EF3
:10485000AA85BB852D91BB87AA87FB012190BF014B
:10486000240E352E311CC10188579B4F1C01E22FAD
:10487000F0E0EA5BFC4F90E080E08A2C881ABB24D1
:10488000B394082E01C0BB0C0A94EAF7310100E092
:10489000D3011D913D011B21282D201B2770922E35
:1048A000022E000C330BB12F01C0BB0F9A94EAF714
:1048B0009B2E3195219531092770332701C016951C
:1048C0002A95EAF7912A1081912A90820F5F083089
:1048D000F9F6019631968830910579F6EA85FB85DF
:1048E000E759F14009F0B4CF04E610E020E230E0EF
:1048F00046E453E060E488E70E94D425892B09F060
:10490000D7CE409450948091860490918704482299
:1049100059225092870440928604CACE8295880F0D
:10492000807680933801980136952795369527959E
:1049300020933B01815E8093390120933C0163CF3A
:1049400048575B4F04E610E020E230E0D3CF80917F
:104950003404882309F470CDE0E1E9BDF2E1F9BD4A
:1049600009B400FEFDCF8091D8008F7D8093D800E0
:104970008091E00082608093E0008091E00081FD02
:10498000FCCF0E94B50D58CDEF92FF920F931F936D
:10499000CF93DF93182FEB011092BC0084EA809331
:1049A000BC000E94DC167C018091BC0087FF27C000
:1049B0008091B900887F883029F08091B900887F84
:1049C000803189F51093BB0084E88093BC000E947D
:1049D000DC168C018091BC0087FF1EC02091B900BD
:1049E000287F90E080E0283191F081E090E0203451
:1049F00011F490E080E091958195910908C0C7017C
:104A00000E94CD16C817D90778F68EEF9FEFCDB765
:104A1000DEB7E6E00C941628C8010E94CD16C81730
:104A2000D907C0F6F2CF8FEF9FEFF1CF1092B90008
:104A30008CE08093B80008950F931F93CF93DF937A
:104A4000EB018093BB0084E88093BC000E94DC16DD
:104A50008C018091BC0087FF11C02091B900287F94
:104A600081E090E0283211F490E080E0919581950A
:104A70009109DF91CF911F910F910895CF3FDC07EE
:104A800041F3C8010E94CD16C817D90710F78EEF61
:104A90009FEFEFCFB0E0A0E0E0E5F5E20C94F32764
:104AA000782E5B016A0189010E94DC164C01C1E08D
:104AB000D0E00431110558F0C5E0D0E00F3F1007F9
:104AC00031F0C80164E170E00E94DA27EB01BE0119
:104AD000872D0E94C4247C0197FF09C00F3F100757
:104AE000B1F3C4010E94CD160817190780F7E5013C
:104AF000CA0CDB1CCC15DD0511F0F7FE09C084E9FA
:104B00008093BC00C701CDB7DEB7EDE00C940F2851
:104B1000B80189910E941C257C01ECCFB0E0A0E097
:104B2000E4E9F5E20C94F327782E5B016A01890130
:104B30000E94DC164C01C1E0D0E00431110558F0B0
:104B4000C5E0D0E00F3F100731F0C80164E170E02C
:104B50000E94DA27EB01BE01872D0E94C4247C014C
:104B600097FF09C00F3F1007B1F3C4010E94CD1693
:104B70000817190780F7E501CA0CDB1CCC15DD0509
:104B800011F0F7FE09C084E98093BC00C701CDB7DE
:104B9000DEB7EDE00C940F28FE018491B8010E946D
:104BA0001C257C012196EACFB0E0A0E0EAEDF5E219
:104BB0000C94F227682E762E5A0169010E94DC16A9
:104BC0004C01C1E0D0E00431110558F0C5E0D0E05F
:104BD0000F3F100731F0C80164E170E00E94DA274E
:104BE000EB01BE01862D0E94C4247C0197FF1DC0ED
:104BF0000F3F1007B1F3C4010E94CD160817190723
:104C000080F784E98093BC00C701CDB7DEB7EEE042
:104C10000C940E28B80189910E941C257C01CC16A9
:104C2000DD0679F3F7FEF6CFECCFB801872D0E94B1
:104C30001C257C01E501CA0CDB1CF1CF8EE14A9BEF
:104C400002C08150E1F74A9BFECF08955A9880E256
:104C50008A95F1F75A9A0895FC013BE03A95F1F7ED
:104C600098E020E080E031E040E14A95F1F7880FDC
:104C70004A9B02C08160232742E04A95F1F7000079
:104C800040E14A95F1F7915079F790E19A95F1F763
:104C900099B132E03A95F1F7000040E14A95F1F719
:104CA00092FB992790F992272081920F9083089583
:104CB000A1E0B0E0EEE5F6E20C94FA2719828C014F
:104CC0007C01E60EF11C0E151F0541F481E099816F
:104CD000911180E02196E6E00C9416280E941E2691
:104CE000CE0101960E942C26F80181938F01EBCF13
:104CF000529A5A9A089552985A9AEA9AE9E6F0E036
:104D000080818F7C808308956150770B91E001C092
:104D1000990F6A95EAF720E031E0911108C022234B
:104D200091F05A9A80E28A95F1F75A980895492F9E
:104D3000482339F05A9A232740E24A95F1F796958D
:104D4000ECCF5A98F9CF5A98EDCFFF920F931F935B
:104D5000CF93DF93EC018C01060F111DC017D10713
:104D600029F4CDB7DEB7E5E00C941728F9900E943E
:104D7000262668E08F2D0E948426F0CF1F920F9286
:104D80000FB60F9211240F931F932F933F934F93BE
:104D90005F936F937F938F939F93AF93BF93EF93A3
:104DA000FF93CF93DF930F92CDB7DEB719820E94A6
:104DB0001E26CE0101960E942C26082F06950695E8
:104DC0000695282F22952570902F9570290F922FE8
:104DD000937026952695920F982797708981982B26
:104DE00009F05CC0063008F059C080E18A95F1F7FF
:104DF0005A9A529A82E08A95F1F700C05A9888E050
:104E0000089F80011124D801A050BF4F1696ED9144
:104E1000FC9117973097A9F06091830170918401FC
:104E200014962D913C911597260F371F11968D9151
:104E30009C911297680F791F13964C9113978C9140
:104E40000995F801E050FF4F6381662351F02091EE
:104E500083013091840184819581820F931F0E9488
:104E6000A5260E94262680E18A95F1F75A98529845
:104E70005A9A80E18A95F1F7F801E050FF4F60817E
:104E8000662351F0209183013091840181819281C8
:104E9000820F931F0E9458260E941E260F90DF91BA
:104EA000CF91FF91EF91BF91AF919F918F917F91A2
:104EB0006F915F914F913F912F911F910F910F90A3
:104EC0000FBE0F901F9018950F931F93CF93DF93F2
:104ED000EC0106970CF04CC0F894529A5A9885E071
:104EE0008A95F1F700009C2F969595708C2F857010
:104EF000980F892F83709695969523E0CC0FDD1F30
:104F00002A95E1F7980F8E01092B0E94262600C0F2
:104F100068E0802F0E94842680E18A95F1F75298FC
:104F20005A9A4A9B1EC087E090E04A991CC0FE0135
:104F3000E050FF4F63816623F9F0209183013091A7
:104F4000840184819581820F931F0E9458268111CC
:104F500013C0529A5A9A7894DF91CF911F910F9172
:104F6000089500C0DECF019729F4529A5A9A789496
:104F700080E0F2CF00C0D9CF0E941E2680E28A9541
:104F8000F1F75A98529A80E18A95F1F7C050DF4FB5
:104F90006881662351F020918301309184018981D9
:104FA0009A81820F931F0E94A5260E94262678943C
:104FB00081E0D2CFAA1BBB1B51E107C0AA1FBB1FB8
:104FC000A617B70710F0A61BB70B881F991F5A9595
:104FD000A9F780959095BC01CD0108952F923F923D
:104FE0004F925F926F927F928F929F92AF92BF92F9
:104FF000CF92DF92EF92FF920F931F93CF93DF93A5
:10500000CDB7DEB7CA1BDB0B0FB6F894DEBF0FBE01
:10501000CDBF09942A88398848885F846E847D844E
:105020008C849B84AA84B984C884DF80EE80FD8050
:105030000C811B81AA81B981CE0FD11D0FB6F894C6
:10504000DEBF0FBECDBFED010895991B79E004C00E
:10505000991F961708F0961B881F7A95C9F78095B7
:105060000895A1E21A2EAA1BBB1BFD010DC0AA1FA9
:10507000BB1FEE1FFF1FA217B307E407F50720F0C1
:10508000A21BB30BE40BF50B661F771F881F991F3C
:105090001A9469F760957095809590959B01AC0185
:1050A000BD01CF010895EE0FFF1F0590F491E02D93
:1050B0000994FB01DC0102C005900D924150504063
:1050C000D8F70895FB01DC0104C08D91019080198F
:1050D00021F441505040C8F7881B990B0895FB01FB
:1050E000DC0102C001900D9241505040D8F7089564
:1050F000DC01CB01FC01F999FECF06C0F2BDE1BD98
:10510000F89A319600B40D9241505040B8F7089586
:10511000F999FECF92BD81BDF89A992780B508957F
:10512000A8E1B0E042E050E00C947A28DC01A40F42
:10513000B51F4150504048F0CB01840F951F2E9170
:105140000E94A72841505040D0F70895262FF99982
:10515000FECF92BD81BDF89A019700B4021639F0D6
:105160001FBA20BD0FB6F894FA9AF99A0FBE0895A7
:105170000396272F0E94A7280E94A628252F0E9469
:10518000A728242F0C94A7280196272F0E94A72830
:105190000C94A628F894FFCFBA0EE20E8110E20E0E
:1051A0008110150F360F811033104010C417C81727
:1051B000A617C017CC17D017D4172B18A018331860
:1051C000FD170118371805183B18471811189918BA
:1051D00015184B1819184F1877181D1853187E18E2
:1051E00023185918611809183F180D184318271863
:1051F0005D186D1887189718F7172F18A718C0187B
:10520000C3180B19C9181119CF181719D5181D195A
:10521000DB182319EF180119C018C3180B19C91886
:105220001119CF181719D5181D19DB182319DC19F6
:10523000DC19141A141ABC1A3C1A3C1A3C1AD81A53
:06524000601B6F1B6F1BD9
:105246000000000100000000000000040100000052
:105256000405000000000000040900000000000032
:10526600090D0000000000000141077E117711239F
:10527600077011FF00200021007F220003FFFF00BE
:10528600FF00030000010000FF78818283E200E94D
:1052960000EA00B500B600B700CD008301CC008A55
:1052A60001920194012102230224022502260227EB
:1052B600022A02B300B4006F0070009F01CB019F69
:1052C60002A002F902946697C6F4F5F6F7313300A8
:1052D60008101818100800181712110A09191613C1
:1052E600100B081A15140F0C07FFFFFF0E0D0633DF
:1052F600322D2C252434312E2B262335302F2A27E8
:1053060022FFFFFF2928215510320D1014102632D6
:105316003055345F3F552755155504440244134410
:1053260025503A3C373223320D3200210321142115
:1053360025102A101810070007001800298B10AE38
:105346000DD014D026AE308B34813F8B278B158B36
:10535600049C029C139C25903AA437AE23AE0DAE56
:1053660000BF03BF14BF25D02AD018D007E007E03E
:1053760018E02902020202020201040404040404E1
:1053860001010404040404040404040101010202EA
:1053960002020202010404040404040101040404D8
:0A53A60004040404040401010100E2
:00000001FF
