:100000000C948A050C94A7050C94A7050C9446271C
:100010000C94A7050C94A7050C94A7050C94A705B0
:100020000C94A7050C94A7050C94F8230C94E024D9
:100030000C946E150C94A7050C94A7050C94A705B9
:100040000C94A7050C94A7050C94A7050C94A70580
:100050000C94A7050C94D2230C94A7050C94A70527
:100060000C94A7050C94A7050C94A7050C94A70560
:100070000C94A7050C94A7050C94A7050C94A70550
:100080000C94A7050C94A7050C94A7050C94A70540
:100090000C94A7050C94A7050C94A7050C94A70530
:1000A0000C94A7050C94A7050C94A70500AF00AE0F
:1000B0000000000000003E5B4F5B3E003E6B4F6B5C
:1000C0003E001C3E7C3E1C00183C7E3C18001C5729
:1000D0007D571C001C5E7F5E1C0000183C18000051
:1000E000FFE7C3E7FF00001824180000FFE7DBE785
:1000F000FF0030483A060E00262979292600407F65
:1001000005050700407F05253F005A3CE73C5A00A3
:100110007F3E1C1C0800081C1C3E7F0014227F220E
:1001200014005F5F005F5F0006097F017F000066CB
:1001300089956A0060606060600094A2FFA29400EC
:1001400008047E04080010207E20100008082A1CE5
:100150000800081C2A0808001E10101010000C1EB1
:100160000C1E0C0030383E383000060E3E0E0600E5
:1001700000000000000000005F0000000007000712
:100180000000147F147F1400242A7F2A12002313F6
:10019000086462003649562050000008070300003A
:1001A000001C224100000041221C00002A1C7F1C70
:1001B0002A0008083E080800008070300000080887
:1001C0000808080000006060000020100804020019
:1001D0003E5149453E0000427F4000007249494976
:1001E00046002141494D33001814127F1000274565
:1001F000454539003C4A4949310041211109070070
:10020000364949493600464949291E000000140074
:1002100000000040340000000008142241001414C3
:1002200014141400004122140800020159090600A8
:100230003E415D594E007C1211127C007F494949B4
:1002400036003E41414122007F4141413E007F490D
:10025000494941007F09090901003E4141517300AC
:100260007F0808087F0000417F4100002040413F97
:1002700001007F08142241007F40404040007F027F
:100280001C027F007F0408107F003E4141413E0078
:100290007F09090906003E4151215E007F091929A5
:1002A000460026494949320003017F0103003F40CF
:1002B00040403F001F2040201F003F4038403F008B
:1002C0006314081463000304780403006159494D62
:1002D0004300007F4141410002040810200000411A
:1002E00041417F00040201020400404040404000C0
:1002F0000003070800002054547840007F2844443D
:100300003800384444442800384444287F00385496
:100310005454180000087E0902001824241C780098
:100320007F080404780000447D4000002040403DE8
:1003300000007F102844000000417F4000007C0442
:10034000780478007C080404780038444444380079
:100350007C1824241800182424187C007C08040429
:10036000080048545454240004043F4424003C40F2
:1003700040207C001C2040201C003C4030403C00C1
:100380004428102844004C9090907C004464544CC5
:1003900044000008364100000000770000000041E2
:1003A000360800000201020402003C2623263C001D
:1003B000000000000000000000000000000000003D
:1003C000C0E0F0F8F81800C0F0FCFEFFFFFFFFFFF0
:1003D000FFFF7E00000000000000000080C0E0E0A1
:1003E000E0E0E0E0E0E0C0800000000080C0E0E08D
:1003F000E0E0E0E0E0E0C080000000E0E0C0C0E05D
:10040000E0E0E00000E0E0C0C0E0E0E0E0E0C0806C
:100410000000000080C0E0E0E0E0E0E0E0E0C0805C
:100420000000000000000000000000000000E0F0FC
:10043000F0F0E0ECEEF7F37020007C7C7C7E007E38
:100440007E7E7F7F7F000080C0E07E5B4F5BFEC0D2
:100450000000C000DCD7DEDEDED7DC00C00000001C
:10046000000000000000000000000000000000008C
:10047000000000000000000000F8FCFEFFE000FFAC
:10048000FFFFFFFFFF80FFFFFFFFFFFFFFFFFF1FDB
:100490000701000000000000000000FFFFFF8100D6
:1004A000000000000081C3C3C30000FFFFFF810004
:1004B000000000000081FFFFFF0000FFFFFF0100C0
:1004C0000000000000FFFFFF010000000001FFFF2F
:1004D000FF0000FFFFFF9D1C1C1C1C1C1C9DDFDF80
:1004E000DF000000000000000000000000000F1FFF
:1004F0003F7F7F7F7F7F3F1E0C001F1F1F3F003FFE
:100500003F3F7F7F7F00307B7F7830202030787FB7
:100510003B0003000F7F0F0F0F7F0F000300000051
:1005200000000000000000000000000000000000CB
:10053000000000000000000000030F1F3F3F3F3F8E
:100540001F1F3F3F7F7F7F3F3F1F3F7F7F7F7F7C1E
:100550007878381C0F000000000000000103070736
:10056000070707070707030100000000010307074B
:100570000707070707070301000000070707000038
:100580000000000000070707000000000000070748
:100590000700000001030707070707070707030114
:1005A000000000000000000000000000000000004B
:1005B000000000000000000000000000000000003B
:1005C000000000000000000000000000000000002B
:1005D000000000000000000000000000000000001B
:1005E000000000000000000000000000000000000B
:1005F00005010980A101850319012AB7001501260B
:10060000B700950175108100C0050C0901A1018595
:100610000419012AA002150126A002950175108176
:1006200000C005010906A1018506050719E029E7B3
:10063000150025019508750181020507190029EFAC
:100640001500250195F0750181020508190129059C
:10065000950575019102950175039101C005010988
:1006600006A101050719E029E71500250195087580
:100670000181029501750881010507190029FF15FF
:100680000026FF0095067508810005081901290557
:1006900015002501950575019102950175039101DC
:1006A000C009023B00020100A0FA09040000010396
:1006B0000101000921110100012244000705810305
:1006C00008000109040100010300000009211101D3
:1006D0000001226D000705820320000112010002C3
:1006E00000000008534601000100010200010C0354
:1006F00043006F0072006E0065000000100366008A
:100700006F006F007300740061006E00000004034E
:1007100009040001010101010101010102020202BB
:10072000020202020203030303030303030404049B
:100730000404040405050505050606060606070764
:1007400007070708080808090909090A0A0A0B0B1C
:100750000B0C0C0C0D0D0D0E0E0E0F0F0F101011BB
:100760001111121213131414151516161717181841
:1007700019191A1A1B1B1C1D1D1E1E1F20202122A9
:1007800022232424252626272829292A2B2C2D2DEF
:100790002E2F30313232333435363738393A3B3C0C
:1007A0003D3E3F404142434445464748494A4C4DFF
:1007B0004E4F50515354555658595A5B5D5E5F61C8
:1007C0006264656668696B6C6D6F7072737577785B
:1007D0007A7B7D7E8082838587888A8C8E8F9193B9
:1007E0009596989A9C9EA0A2A3A5A7A9ABADAFB1E0
:1007F000B3B5B7BABCBEC0C2C4C6C9CBCDCFD1D4C5
:10080000D6D8DBDDDFE2E4E7E9EBEEF0F3F5F8FA6A
:10081000FDFF00DA0281FFD9F1DB20A4A62EAF0094
:10082000A0C0D30000A1C8D30000AED580A81F404F
:100830008D142000808182838485868788898A8BB5
:100840008C8D8E8F9091929394A0A1A2A3A4A5A623
:10085000A7A8A9AAABACADAEAFB0B1B2B3B4C0C19A
:10086000C2C3C4C5C6C7C8C9CACBCCCDCECFD0D1F0
:10087000D2D3D4003A002C206B007800556E64650A
:10088000660041646A757374005261697365004C57
:100890006F7765720044656661756C74004C6179B0
:1008A00065723A2000000014001A000800150017B5
:1008B00000000004211622070009000A0000001DA4
:1008C000001B00060019000500000000000000E306
:1008D0000022522C000000130012000C0018001C13
:1008E00000000034310F320E000D000B0000003804
:1008F000003700360010001100000000000000E288
:10090000002941283200003A003B003C003D003EF7
:100910000000001E211F222000210022000000E113
:10092000000100010001004300000000000000E39E
:100930000023522B0000002A004200410040003FEB
:10094000000000273126222500240023000000E5B6
:10095000000100010045004400000000000000E22A
:10096000000100280000001400360235003702386C
:10097000020000407E23022E00210220020000E13E
:100980000024021F0222023600000000000000E3E3
:100990000001002C0000002A00300235022F02570F
:1009A0000000003102270256002602250200003115
:1009B0000030002D022F003300000000000000E294
:1009C000002352330200004800AC00AE00AB000030
:1009D000000000E0004A224E004D003900000000F7
:1009E000001B13061319135004000000000000E35D
:1009F0000001002C0000004C002B012B134B0000C9
:100A0000000000E4004F00520051005000000000C0
:100A100000A800A900AA004F04000000000000E2A6
:100A20000001002800202020206162636465666761
:100A300068696A6B6C6D6E6F7071727374757677BE
:100A400078797A3132333435363738393052454255
:100A5000545F2D3D5B5D5C233B27602C2E2F2020B7
:100A60002000000000000000000000000000000066
:100A70000000000000000000000000000000000076
:100A800000000000007E0F00D4FFFFFFC700000041
:100A90007800000000000000002A2B280000000061
:100AA000000000000000000000000000290000001D
:100AB000002C1E3420212224342627252E362D37C3
:100AC00038271E1F202122232425263333362E3794
:100AD000381F0405060708090A0B0C0D0E0F10112C
:100AE00012131415161718191A1B1C1D2F31302339
:100AF0002D350405060708090A0B0C0D0E0F101101
:100B000012131415161718191A1B1C1D2F31303506
:100B10004C21000011241FBECFEFDAE0DEBFCDBFB5
:100B200012E0A0E0B1E0ECE3F3E502C005900D9225
:100B3000AC39B107D9F726E0ACE9B2E001C01D92AB
:100B4000A43CB207E1F70E94511F0C9451290C9468
:100B5000000090937C0680937B06089590937E0618
:100B600080937D06089521E030E002C0220F331FFC
:100B70008A95E2F780917D0690917E06822B932BD9
:100B80000E94AE05089521E030E002C0220F331F1D
:100B90008A95E2F72095309580917D0690917E06AA
:100BA000822393230E94AE050895983090F58630F5
:100BB00080F5E82FF0E086E0989FE00DF11D11240C
:100BC0008E2F877041E001C0440F8A95EAF783E0D9
:100BD000F695E7958A95E1F7EE0FFF1FEE0FFF1FE1
:100BE000E15BF94F20E030E070E05191DF01CB0193
:100BF000022E02C0969587950A94E2F7817081953E
:100C00008527842385278E932F5F3F4F243031051E
:100C100061F70895983078F5863068F5E82FF0E0B0
:100C200086E0989FE00DF11D11249E2F977083E0C0
:100C3000F695E7958A95E1F7EE0FFF1FEE0FFF1F80
:100C4000E15BF94F40E050E080E0219130E0092E77
:100C500002C0369527950A94E2F721703327042EB7
:100C600001C0220F0A94EAF7822B4F5F5F4F443096
:100C7000510559F7089580E0089580918406909178
:100C80008306981301C008958F5F8770FACF909103
:100C90007F068095892380937F06282F2770211156
:100CA0000DC0891759F09091810692FF07C0869573
:100CB000869586950E94C30510927F0608958091BF
:100CC000780690918206892B50917906511591F002
:100CD00090914301913021F49091800697FD0BC0D3
:100CE00096E020EA32E040E0915048F44111109241
:100CF0007906852B08959EE128EA32E0F4CFF901C8
:100D000061919F01611581F34F5FEECF982F909510
:100D10008091780689238093780608957830B8F416
:100D20006630A8F48430B0F4E62FF0E096E0799FC6
:100D3000E00DF11D112490E3899FE00DF11D1124B8
:100D4000EE0FFF1FEB55F74F85919591089580E0C9
:100D500090E0089581E0FCCF803E9105D9F1C8F480
:100D60008133910509F482C048F48932910509F470
:100D700072C08A32910509F480C0089589339105C3
:100D8000E9F082389105D1F08533910509F45EC010
:100D90000895843E9105D9F148F4823E910539F1D8
:100DA000833E910549F181EE90E00895863E9105DC
:100DB000C9F1873E910509F43EC00895209180064F
:100DC0002370211164C02091810623FF14C089E2A1
:100DD00090E008952091800620FD45C03091810665
:100DE00030FF09C024FD24C083EE90E008952091D7
:100DF000800622FDF7CF08952091800622FD44C091
:100E00003091810630FD43C024FFF5CF11C0209101
:100E1000810621FFF0CF8091800684FD09C087EE16
:100E200090E008952091800623FFE5CF24FFF7CFBF
:100E300080E090E008952091800623FD2BC0309142
:100E4000810631FFE1CF84EE90E008952091800685
:100E500025FFD1CFBCCF2091800625FD1EC020915B
:100E6000810623FFC8CF89E390E008952091800692
:100E700026FFC1CF8AE290E008952091800626FFE8
:100E8000BACF81E390E0089582EE90E0089580EE7D
:100E900090E0089586EE90E0089585E390E008954F
:100EA0009091800692FF10C041E0282F24712430D9
:100EB00009F040E031E0282F2871283009F030E0B7
:100EC000431711F02CE0822793FF10C041E0282F38
:100ED0002471243109F040E031E0282F28712831B5
:100EE00009F030E0431711F02CE0822730918106A1
:100EF00030FF10C051E0282F2171213009F050E05F
:100F000041E0282F2871283009F040E0541711F0F3
:100F100029E0822731FF10C041E0282F21712131C3
:100F200009F040E031E0282F2871283109F030E045
:100F3000431711F029E0822794FD877E08951F93BF
:100F4000CF93DF930E94AC06EC01811522E5920756
:100F500008F055C0811540E5940708F0D1C0803EE7
:100F6000910520F58D3C910508F0A4C0883A9105C3
:100F700070F4853A910508F09AC081309105D1F15D
:100F80000497813A9105B0F1C0E0D0E033C0885AAF
:100F900091094B97C8F7C85AD0E0CC0FDD1FC05D50
:100FA000DD4F0990D881C02DD46424C0811550E450
:100FB0009507C0F4C11580E2D80708F0B7C0C83E55
:100FC000D105C0F0CE019A9581159F41E8F68D2F8D
:100FD0000E945007182FCE0199270E94AC06EC0101
:100FE000D12B08C099270E94AC06CC27DF70C82BF4
:100FF000D92BD06ACE01DF91CF911F91089580380F
:1010000042E59407C8F5803652E5950708F05BC0C5
:10101000C03482E5D807D0F4C03292E5D90708F091
:101020004BC08C2F8695869520E2829FC0011124AB
:10103000C37021E030E0A90102C0440F551FCA95DA
:10104000E2F7EA01C82BD92BDD68D4CF8C2F869527
:101050008695877050E2859FC0011124C37021E0FE
:1010600030E0A90102C0440F551FCA95E2F7EA011A
:10107000C82BD92BDC68BECF803C52E5950758F4CD
:101080008F71C03AD245A0F590E0982F8827EC01E7
:10109000C46FD06AAFCF805C9245809708F074CF60
:1010A000DC2FCC27CC27DF71C06FD06AA3CFA497E9
:1010B000D064A0CFD0659ECFCF71D0E0DC2FCC27FD
:1010C000C16FD06A97CF86958695877020E2829F00
:1010D000C0011124C37021E030E0A90102C0440F17
:1010E000551FCA95E2F7EA01C82BD92BDA6882CFDF
:1010F0000E945007C82FD0E0DC2FCC27D0627ACFD7
:101100008F710E94500793E0CC0FDD1F9A95E1F795
:10111000CC27DF70282F30E084FF04C050E1859F8A
:1011200090011124C22BD32BD06964CF8D2F8F71E6
:101130000E945007182FCE0199270E94AC06EC019F
:10114000D12BDCCFA0E0B0E0E8EAF8E00C947E28F8
:101150008C01E0907D06F0907E0680917B06909158
:101160007C06E82AF92ACFE0D0E0CC24C394D12C25
:10117000C6010C2E02C0880F991F0A94E2F78E2137
:101180009F21892B49F4219798F7B12C8B2DCDB74E
:10119000DEB7E9E00C949A28BC2EB8018C2F0E948F
:1011A0008E060E949F07019771F3F0CF0F931F9354
:1011B000CF93FC01858100811181811591F061152A
:1011C00081F0C8010E94A208C82F682FC8010E94A0
:1011D000D505B8018C2F0E948E06CF911F910F91DB
:1011E0000895C8010E940A06C82FF3CFCF93DF935A
:1011F000D82FC92F0E94A2086D2F7C2F0E948E0627
:101200000E949F07DF91CF910895FC018481811591
:10121000A1F0808191810E94F608282F92959F70FD
:10122000963099F060F4925F9F70923030F4203FD6
:10123000B1F038F481E0283E38F080E008959A5FFC
:10124000F3CF81E0243FC9F7089591E0213F09F0F1
:1012500090E081E0283E08F080E0892B089581E04D
:10126000089580E00895F894E82FE295EF70F0E09B
:1012700041A18F7021E030E0B90102C0660F771FF5
:101280008A95E2F7CB01962F9095942391A392A192
:10129000892B82A378940895FF920F931F93CF9385
:1012A000DF93182F062FF42EC0E0D0E0CE0120915E
:1012B0001E06211103C0CB3108F04B972F2D402F74
:1012C000612F0E94CC092196C633D10579F7CDB79D
:1012D000DEB7E5E00C949E289BE0899F802D1124C9
:1012E000980F973308F096E320911E06211104C051
:1012F0008B3128F48BE108959C3108F09BE108952F
:10130000EFE6F6E0808191E0892780831092460124
:1013100080917706816080937706089580916F06AB
:101320008370811551F0846080936F06109246019E
:1013300080917706816080937706089580916F068B
:101340008370811551F0846080936F06109246017E
:10135000809177068160809377060895EFE6F6E046
:10136000248130E1230F08F42FEF24838091770646
:101370008160809377060895EFE6F6E0248130E1FE
:10138000231B08F420E024838091770681608093FA
:1013900077060895539A0895FC01EE0FFF1FE80F9A
:1013A000F91FEC50FD4F61834083228308958091A3
:1013B0001D06811559F0E0914506F09146063097DB
:1013C00029F00190F081E02D0995089580E00895BD
:1013D000A3E0B0E0EEEEF9E00C9485289C0180914A
:1013E000F2029091F30282179307A1F03093F30277
:1013F0002093F202E0914506F0914606309751F0B5
:1014000083E089833B832A830084F185E02DCE012C
:10141000019609952396E2E00C94A128A3E0B0E0A0
:10142000E4E1FAE00C9485289C018091F00290910F
:10143000F10282179307A1F03093F1022093F0029A
:10144000E0914506F0914606309751F084E089839B
:101450003B832A830084F185E02DCE010196099516
:101460002396E2E00C94A12890914301913091F0F1
:10147000A0EAB2E0EFEF90E02D91821751F0EF3F3C
:1014800019F4211101C0E92F9F5F9630A9F7EF3FB2
:10149000C9F408959091800697FFEACFE82FE6956A
:1014A000E695E695803FA8F7F0E0EA55FD4F877096
:1014B00021E030E001C0220F8A95EAF78281822B79
:1014C000828308950E2E000CFF0BE256FD4FF8CFDD
:1014D00090914301913021F49091800697FD0CC0CA
:1014E000E0EAF2E09191891302C0DF011E9252E01E
:1014F000E63AF507B9F70895E82FE695E695E695FB
:10150000803FC8F7F0E0EA55FD4F877021E030E0FA
:10151000A90102C0440F551F8A95E2F7CA018095C0
:1015200092818923828308958091420108952FB783
:10153000F8946091EC027091ED028091EE0290912E
:10154000EF022FBF08950F931F9380911D06811501
:1015500029F00E94970A1F910F9108950E94970AFF
:1015600000911F061091200620912106309122063D
:10157000600F711F821F931FEECF0F931F93462F93
:10158000572FBC012FB7F8948091EC029091ED0297
:10159000A091EE02B091EF022FBF8C019D01041BC0
:1015A000150B260B370BC901B8011F910F91089538
:1015B00087E797E7909301088093000888E19AE015
:1015C0000FB6F894A895809360000FBE90936000CA
:1015D000FFCF0895FC019B018091E2029091E3020C
:1015E0008617970740F0672B29F48091E8008E77E3
:1015F0008093E800C90140E0009741F4411106C022
:101600008091E80082FF2FC080E008952091AA0316
:101610002115A9F12530A9F12091E80023FD2DC065
:101620002091E80022FDECCF2091E80020FFE4CFDC
:101630003091F3002091F200009719F02830310525
:1016400058F041E02830310509F040E02091E800F1
:101650002E772093E800D0CF41914093F10001977D
:101660002F5F3F4FE9CF8091AA03811541F085306C
:1016700041F08091E80083FFC3CF81E0089582E0CC
:10168000089583E008958091DC0287FF13C0809164
:10169000E80082FF06C08091E8008B778093E80025
:1016A00008958091AA038111F2CF08958091AA0331
:1016B0008115D9F38091E80080FFF8CF8091E80090
:1016C0008E77ECCF2091E4003091E50095E6A901FA
:1016D0002091EC00822F817020FF06C08091E800ED
:1016E00080FF06C080E008952091E80022FD1AC026
:1016F0008091AA03811589F0853089F08091EB00F3
:1017000085FD0FC02091E4003091E500421753079A
:10171000F9F29A95E1F684E0089582E0089583E075
:10172000089581E00895E8EDF0E080818E7F808368
:101730001092E2001092DA001092E100A0EEB0E008
:101740008C9181608C9380818F77808319BCA7ED09
:10175000B0E08C918E7F8C9380818F7E80831092FD
:10176000DB020895FC01AC014C5F5F4F8FEF61E33A
:101770009191892728E030E0982F990F87FF09C0C1
:10178000892F862721503040B9F7E417F50781F7F4
:101790000895892FF7CF90916F069370911571F08E
:1017A0008093700660937106493708F048E74093CC
:1017B0007206809177068160809377060895EFE640
:1017C000F6E0818190E04381628108960E94CB0B14
:1017D0000895EFE6F6E08181438162818850990B9C
:1017E0000E94CB0B0895EFE6F6E0628120E1620FE4
:1017F00008F46FEF8181438190E00E94CB0B089544
:10180000EFE6F6E0628120E1621B08F460E081818E
:10181000438190E00E94CB0B0895EFE6F6E0438110
:1018200020E1420F08F44FEF8181628190E00E9435
:10183000CB0B0895EFE6F6E0438120E1421B08F46C
:1018400040E08181628190E00E94CB0B0895982F47
:101850009093E900891771F07091EC002091ED00F0
:101860005091F00021FD09C09F5F973089F7809368
:10187000E9000895762F242F50E03091EB003E7F51
:101880003093EB003091ED003D7F3093ED003091CF
:10189000EB0031603093EB007093EC002093ED008F
:1018A0005093F0002091EE0027FDDECF0895A0E0D8
:1018B000B0E0EDE5FCE00C947F28C8EDD0E0888135
:1018C0008F7E8883E7EDF0E080818160808384E013
:1018D00082BF81E08093DB0288818E7F888302EE65
:1018E00010E0F80110821092DA0081EEC82ED12C9F
:1018F000F601108288818F77888388818068888349
:1019000088818F7D888319BC1092AA031092DA0215
:101910001092A9031092D90290EEE92EF12CF70152
:1019200080818B7F808388818160888342E060E052
:1019300080E00E94270CF60180818E7F8083F80171
:10194000808181608083808188608083F7018081CD
:101950008E7F8083888180618883CDB7DEB7E8E0A1
:101960000C949B28E09184069091830627E0E9136C
:1019700002C080E00895AE2FB0E02E9FF001112448
:10198000EB57F94F3181361306C03081381303C04D
:101990003581341304C0FD013196E770E8CF81E052
:1019A00008953BB1377F2BB128604FB7F89484EF8F
:1019B00092E0FC010196508168E02BB9000000C064
:1019C00057FF3BB9550F000000C000C000C03BB935
:1019D00000C06A9591F753E08639950751F74FBFDC
:1019E0008FE594E00197F1F700C0000008950F9390
:1019F0001F93CF93DF938B01EA019091AA03943058
:101A000059F58093E9008FEF9091E80095FD06C0AD
:101A100095ED9A95F1F700008A95B1F78091E8006D
:101A200085FF1AC00E94620B811111C08091E800ED
:101A300085FD06C08091E8008E778093E800F2CFA4
:101A4000F80181918F018093F100219779F78091BE
:101A5000E8008E778093E800DF91CF911F910F917E
:101A60000895CF93DF93D82FC92F48E050E0682F17
:101A7000792F81E00E94F70C88E0ED2FFC2FA4EE77
:101A8000B2E001900D928A95E1F7DF91CF91089530
:101A9000BC0140E250E082E00E94F70C0895BC01D6
:101AA00043E050E082E00E94F70C0895A0E0B0E02F
:101AB000ECE5FDE00C947D28F82EE92EB62EA72E3D
:101AC0008A018091D0029AE0C92ED12C8A3018F078
:101AD000CC24C394D12CC1E0D0E06B2D7A2D8F2D76
:101AE0009E2DF8010995811116C02196CC16DD06B0
:101AF00094F0CC9FC001CD9F900D900D112420E05B
:101B000030E045E34A95F1F700002F5F3F4F28177B
:101B10003907B9F7E2CFCDB7DEB7EAE00C949928E0
:101B20009091810692FB222720F9281779F080FBFB
:101B300092F990938106609180067091810684E00D
:101B400090E00E944B2982E00E9447060895809110
:101B50004301813059F58091800687FF27C00E949C
:101B60005F068093A70240E250E065E276E086EAF5
:101B700092E00E94E928892BC1F080E2E6EAF2E0D7
:101B8000A5E2B6E001900D928A95E1F7E091450655
:101B9000F0914606309749F086E08093A6020480D3
:101BA000F581E02D86EA92E0099508950E945F068E
:101BB00080939E0248E050E067E476E08EE992E090
:101BC0000E94E928892B89F388E0EEE9F2E0A7E496
:101BD000B6E001900D928A95E1F7E0914506F0910B
:101BE0004606309711F30280F381E02D8EE992E0F2
:101BF000DBCFCF93C82F8115D1F08CEF8C0F813ABA
:101C0000A0F580914301813021F48091800687FD09
:101C100010C0E0EAF2E08191C81709F122E0E63A4B
:101C2000F207C9F78C2F0E94340A0E94A70DCF91AA
:101C30000895EC2FE695E695E695F0E0EA55FD4F20
:101C4000828190E04C2F477021E030E002C0220FEB
:101C5000331F4A95E2F782239323892B19F38C2FA4
:101C60000E94680A0E94A70DDDCF80E28C0F8830A9
:101C700068F4C77081E090E001C0880FCA95EAF768
:101C8000C0917806C82BC0937806CFCF8BE58C0F18
:101C9000833038F42C2F2452330BC9010E94E809F9
:101CA000C6CFC85ACB3118F6EC2FF0E0EE0FFF1F6D
:101CB000EA59FD4F808191810E940E0AB8CF8115AB
:101CC00039F19CEF980F913A28F40E94680A0E941B
:101CD000A70D089590E2980F983050F4877091E026
:101CE00001C0990F8A95EAF7892F0E948606EFCFE7
:101CF0009BE5980F933028F480E090E00E94E8097B
:101D00000895885A8B3120F480E090E00E940E0AFA
:101D100008951F93CF93DF93182FEB010E94F90DC5
:101D2000209739F4812F0E945F0EDF91CF911F9190
:101D300008958FE99FE00197F1F700C00000219717
:101D4000EFCF811539F090917806892B8093780632
:101D50000E94A70D0895811521F00E9486060E9419
:101D6000A70D089510927806809143018130C1F447
:101D70008091800687FF14C0E8EAF2E08EE1DF017F
:101D80001D928A95E9F780E090E00E94E80980E0E2
:101D900090E00E940E0A109282060E94A70D0895FC
:101DA000E0EAF2E086E0EBCF0E94B20E2FEF84E390
:101DB0009CE0215080409040E1F700C0000088E1A5
:101DC0009AE00FB6F894A895809360000FBE9093A8
:101DD0006000FFCFAAE2B0E0E0EFFEE00C948428C0
:101DE0008CED92E0FC0101962091F100208322E02D
:101DF000843E9207B9F78091DD02893009F45AC018
:101E0000C8F4823009F4B6C0833009F485C081304B
:101E100091F18091E80083FFEAC08091DC0290910B
:101E2000DD029A3008F0E3C0E92FF0E0ED5AF64DFC
:101E30000C94DA288A3009F48CC08B3051F78091E9
:101E4000DC02813231F78091E0029091E102892B2E
:101E500001F78091E800877F8093E8000E94430BA0
:101E600081E09091DE02911101C080E080934301F6
:101E70000E94B20ECECF8091DC02813A51F6809161
:101E8000E800877F8093E8008091E0029091E10272
:101E9000892B61F060E080E090E070E00E94EA0A47
:101EA0008091E8008B778093E800B3CF68E084EE00
:101EB00092E0F3CF8091DC02813209F0AACF8091C9
:101EC000E0029091E102029708F0A3CF8091E80030
:101ED000877F8093E8008091E80082FF18C090918E
:101EE000F3008091F200029731F48091F10081308B
:101EF00011F0863021F48091F100809342018091AD
:101F0000E8008B778093E8000E94430B82CF80919A
:101F1000AA038111E0CF7DCF8091DC02813A09F0E4
:101F200078CF8091E0029091E102892B09F071CF86
:101F30008091E800877F8093E8008091E80080FF2F
:101F4000FCCF809143018093F1008091E8008E776F
:101F5000D9CF8091DC02813209F05BCF8091E8001B
:101F6000877F8093E8000E94430B8091DF0280937B
:101F700041014FCF8091DC02813A09F04ACF809134
:101F8000E800877F8093E8008091E80080FFFCCF25
:101F900080914101D8CF803889F0823841F5809115
:101FA000E0028F70873018F58093E9008091EB0094
:101FB00085FB882780F91092E90006C08091A9036B
:101FC000880F9091D902892B9091E800977F909388
:101FD000E8008093F1001092F1008091E8008E7784
:101FE00023C0811116C08091DE02813011F18091F1
:101FF000E80083FF0AC08091E800877F8093E800B3
:102000008091EB0080628093EB00AA96E3E00C9451
:10201000A028823061F78091DE02811589F010924C
:10202000E9008091E800877F8093E8000E94430BDD
:10203000DECF81E0933009F080E08093A903EFCFF9
:102040008091E0028F702FEF280F263080F680936A
:10205000E9002091EB0020FFE2CF933031F4809132
:10206000EB0080628093EB00DACF9091EB009061FF
:102070009093EB0021E030E0A90102C0440F551F0E
:102080008A95E2F74093EA001092EA008091EB0013
:102090008860E8CF8111ABCF1091DE021F7780916D
:1020A000E3008078812B8093E3008091E800877FB4
:1020B0008093E8000E94430B8091E80080FFFCCFF2
:1020C0008091E30080688093E30083E0111101C0F8
:1020D00082E08093AA038BCF8058823008F087CFAC
:1020E0002091DE023091DF022C3D53E0350799F557
:1020F00083E08A838AE289834FB7F894DE011396DE
:1021000020E03EE051E2E32FF0E05093570084914D
:1021100020FF03C082958F703F5F8F708A30C8F0B8
:10212000895C90E08D939D932F5F243161F74FBFC1
:102130008091E800877F8093E8006AE270E0CE013A
:1021400001960E94EA0A8091E8008B778093E8006C
:102150004ECF805DE6CF832F99278330910529F1FB
:1021600060F48130910509F475C0029709F03FCF02
:102170008BE390E0E1EAF6E02CC02091E0023091A0
:10218000E1028132910509F459C0829709F02FCFFD
:102190002115310509F468C02130310509F027CF38
:1021A0008DE690E0E0EFF5E014C0C90199272130F9
:1021B000A9F182309105D1F1892B09F018CFEEE019
:1021C000F7E0E4918E2F90E0EEE0F7E0009709F45D
:1021D0000ECF2091E800277F2093E8002091E202B3
:1021E0003091E3028217930708F49C0140E0211527
:1021F000310509F03EC041113CC08091E80082FDEC
:10220000A2CF8091AA03811509F49DCF853009F4EE
:102210009ACF8091E80083FFF0CF95CFECEFF6E006
:10222000E4918E2F90E0ECEFF6E0D0CFEEEEF6E00A
:10223000E4918E2F90E0EEEEF6E0C8CF2115310547
:1022400071F02130310509F0D2CE89E090E0ECEC5C
:10225000F6E0BFCF82E190E0ECEDF6E0BACF89E0A6
:1022600090E0E3EBF6E0B5CF84E490E0EDE5F6E056
:10227000B0CF8091AA03811509F465CF853009F4A8
:1022800062CF8091E80083FD5ECF8091E80082FDFF
:10229000B4CF8091E80080FFAACF9091F3008091A5
:1022A000F2002115310519F08830910550F041E018
:1022B000089709F040E08091E8008E778093E8006D
:1022C00096CF44914093F100319621503109019607
:1022D000E8CF803809F08BCE8091E800877F80932B
:1022E000E8008091DA028093F10077CE81117FCEF1
:1022F0001091DE02123008F07ACE8091E800877FDC
:102300008093E8001093DA020E94430B1115A9F0A4
:1023100084E08093AA0342E061EC81E00E94270CF4
:1023200042E261EC82E00E94270C8091AA03843093
:1023300051F482E0809344015ACE8091E30087FDFE
:10234000E7CF81E0E6CF81E0F5CFA4E0B0E0EBEAB3
:10235000F1E10C9484286091F7057091F805809163
:10236000F9059091FA050E94BD0A11E064367105E5
:102370008105910578F10E94A30ADC01CB01029648
:10238000A11DB11D89839A83AB83BC8380913201E7
:1023900090913301895F994F20913101422F50E094
:1023A000253010F044E050E0BE016F5F7F4F0E9487
:1023B000F62883E090E00E94ED27182F811551F058
:1023C0000E94970A6093F7057093F8058093F905CA
:1023D0009093FA05812F2496E3E00C94A028A0E0C6
:1023E000B0E0E5EFF1E10C947E28C82F7B01B42E1C
:1023F000D52FB9016801A8018B2D9D2F0E94E928D6
:102400008C01F70160817181828193810E94BD0AF4
:10241000643671058105910518F40115110529F13E
:102420000C2F0C2E000C110B88E0C802F0011124B7
:10243000E75EFE4F81819281895F994F2081422F13
:1024400050E0C216D10408F4A6016B2D7D2F0E9426
:10245000F628C8010E94ED27811541F00E94970AD5
:10246000F701608371838283938381E0CDB7DEB708
:10247000E9E00C949A280F931F93AC0104E010E05C
:102480002CE036E06BEF75E082E00E94EF111F91C7
:102490000F910895A9E0B0E0E0E5F2E10C94832803
:1024A00088E0EFE6F6E0DE01119601900D928A9544
:1024B000E1F7198609E010E024E136E0AE014F5F54
:1024C0005F4F63EF75E084E00E94EF112996E4E02E
:1024D0000C949F28EF92FF921F93CF93DF9300D02D
:1024E00000D00F92CDB7DEB77B0180E090E00E9474
:1024F000ED27182F811509F460C080911C01482F29
:1025000050E0811511F041E050E060911D017091A3
:102510001E01695F794FCE0105960E94F6286091F1
:1025200003067091040680910506909106060E94AC
:10253000BD0A643671058105910538F488E096E09E
:102540000E94B20B9D818917C1F181E090E00E9449
:10255000ED27811509F43FC080912401482F50E0F8
:10256000853010F044E050E0609125017091260123
:10257000695F794FCE0101960E94F62888E096E0C7
:102580000E94B20B9D81891326C00E94970A609316
:1025900003067093040680930506909306068981CE
:1025A0009A81AB81BC818093FF0590930006A09334
:1025B0000106B093020681E00FC080910806909159
:1025C0000906A0910A06B0910B0689839A83AB8312
:1025D000BC831111E4CF80E04091FF0550910006CB
:1025E0006091010670910206F70140835183628376
:1025F00073830F900F900F900F900F90DF91CF91FA
:102600001F91FF90EF900895A0E0B0E0EAE0F3E1C1
:102610000C947C280E94A30A6093960370939703FE
:10262000809398039093990320916F06D22FD370D3
:10263000D11519F0D22FD695D6953091460132306A
:1026400009F40AC180F4311116C0109200016093A0
:102650009A0370939B0380939C0390939D0381E066
:102660008093460103C0333009F4FEC0CDB7DEB716
:10267000EBE00C94982880910401D8131EC02370BD
:102680004091030150E081E02417150609F480E031
:10269000809302018091740690910101981739F09E
:1026A0008093010140E060E080E00E944C09D11578
:1026B00031F0D13071F080E030C081E0E9CF80911D
:1026C00002018115C1F340E060E080E00E944C0906
:1026D000F2CF809100010E946C09982EA92EE09003
:1026E0007006B0907106E0917206F0E0EE5EF84F71
:1026F000B11025C0E491CE2F1E2F0E2FE92CF12C06
:1027000090911E06AE1411F008F088C081E091157A
:1027100009F49FC0ABE1AA1670F6909100019F5F8B
:10272000909300018111A2CF82E0809346018091B5
:10273000020181119BCFD11199CF83E091CF0E2D52
:1027400010E0CB2CD12CE491CE2F26E0E29E70013C
:1027500011242FEF30E0C701B9010E946128000F5A
:10276000111F45E5469FC001479F900D1124081B8E
:10277000190B402F440F400FC9018C199D096C01A2
:10278000EC9DC001ED9D900D1124192FB49E6001A8
:102790001124CD2CDD24D901AC19BD096D01EC9DAE
:1027A000D001ED9DB00D11246901C41AD108A60114
:1027B000B49E6001B59ED00C1124CD2CDD242C19C3
:1027C0003D09E29FA001E39F500D1124052F6330C6
:1027D0007105D1F02CEFE21623E0F20658F46130D7
:1027E0007105B1F06230710509F088CFC92F152F3E
:1027F0000E2F84CF6430710571F06630710509F4D5
:102800007DCF092F1B2F7ACF0B2FC92F1E2F76CFED
:102810000E2FCB2F73CFC52F092FF8CFF701EA5119
:10282000FE4F8081209101018223811571F0F70113
:10283000911105C08BE1E816F1040CF07B97212F74
:10284000402F6C2FCF010E94CC099FEFE91AF90AA3
:1028500057CFB6E3AB1660CFD0930401237020931B
:1028600003010E94D10C69CF80917706811551F048
:1028700048E050E067E170E08FE696E00E941D2995
:1028800010927706C0909A03D0909B03E0909C032F
:10289000F0909D0380911D06811589F0C701B60156
:1028A0000E94BD0A382F292FCB01A32FB22F4097AA
:1028B000A105B10508F4DACE10924601D7CE0E94E8
:1028C000A30ADC01CB018C199D09AE09BF09EFCF2A
:1028D000AB0124E630E0BC0188E70E9404269C019D
:1028E00081E0232B09F080E008958091F1058115A6
:1028F00069F08091EE05811549F062E070E08EEAA2
:1029000090E00E94681481111092EE050895809164
:10291000F1058115F9F00E94970ADC01CB01805A7C
:102920009541AF4FBF4F8093EA059093EB05A0937D
:10293000EC05B093ED058091EE0581110BC062E0CE
:1029400070E08CEA90E00E946814811519F081E033
:102950008093EE050895CF93DF93682F81E06A306E
:1029600019F06D3031F480E00E942B15DF91CF918A
:1029700008958091BC039091BD0326E0FC01A3ED76
:10298000B2E001900D922A95E1F7603E08F458C03C
:1029900026E0FC0111922A95E9F7C091BC03D09181
:1029A000BD0346E050E0BE0183ED92E00E94E928BD
:1029B0009E01265E3340892B41F1C90145E0969581
:1029C00087954A95E1F741E050E0BA0102C0660FF1
:1029D000771F8A95E2F7CB016091E8057091E905D0
:1029E000862B972BB9016B5F7F4FE5E07695679556
:1029F000EA95E1F702C0440F551F6A95E2F7842B70
:102A0000952B9093E9058093E8052A5F3F4F40910D
:102A1000BE03642F70E0C9010E946128481B463044
:102A200010F4240F311D211572E0370710F020E05B
:102A300030E02A513C4F3093BD032093BC0396CF26
:102A4000F6E06F9FB001112460557F4F46E050E0E3
:102A50000E94E028A2CFCF93382FE091BC03F091E1
:102A6000BD03E65EF3402091BE03622F70E0CF010C
:102A70000E946128281B822F311561F066E00E94B8
:102A8000AC28C82FC15010F4CF91089580E20E9465
:102A9000AB14F8CF8E0F9F2F911D811522E0920766
:102AA00010F080E090E08A519C4F9093BD0380939A
:102AB000BC03EACFCF93DF93EC01FE018491811137
:102AC00003C0DF91CF9108950E94AB142196F5CFFA
:102AD0000E945A1581E00E942B1508951F920F92B3
:102AE0000FB60F9211248F939F93AF93BF93809152
:102AF000A803811599F48091EC029091ED02A091C8
:102B0000EE02B091EF024196A11DB11D8093EC023F
:102B10009093ED02A093EE02B093EF02BF91AF91BC
:102B20009F918F910F900FBE0F901F9018952FB708
:102B3000F8948091EC029091ED02A091EE02B09198
:102B4000EF022FBF08959C014FB7F8948091EC02DB
:102B50009091ED02A091EE02B091EF024FBF821B67
:102B6000930B0895FF920F931F93CF93DF93C62F7C
:102B7000D42F122F8115A9F060936D060E9497152E
:102B80009093D2028093D102C77081E001C0880F78
:102B9000CA95EAF70E94A10ECDB7DEB7E5E00C9426
:102BA0009E2880916D06681332C08091D102909169
:102BB000D2020E94A315803A910548F500E20D0F5C
:102BC000CD17A9F0C770FF24F3948F2D01C0880F93
:102BD000CA95EAF70E94AB0E083048F48D2F877033
:102BE00001C0FF0C8A95EAF78F2D0E94A10E60E0CC
:102BF00070E0812F0E94890E083070F6D77081E056
:102C000001C0880FDA95EAF70E94AB0EC5CFC770F6
:102C100081E001C0880FCA95EAF7F6CFA0E0B0E0E6
:102C2000E4E1F6E10C947C287C01FC0184818115AF
:102C300009F447C061E0C7010E94D608EC01F70122
:102C40008581811509F413C5918190936A0690815D
:102C50009093690690E290934501D0936806C093E3
:102C600067069E0130522115304280F5F7019681AA
:102C70009031E0F1FE01FF27ED33F10528F4EB5D23
:102C8000F54FE491E0934501C034FEE7DF0739F5E5
:102C90000E94971590936C0680936B0680EE0E94BD
:102CA000F90D80917F068770811559F0F7018581B4
:102CB000811539F08091810682FF03C082E00E9475
:102CC0004706CDB7DEB7EBE00C9498289E01305450
:102CD0002115304130F5F7019681903158F6FE010B
:102CE000E851FC47E730F10508F41FC510926D0666
:102CF0009E0130572332310508F0ECC484E090E0A7
:102D00000E9417299093810680938006FE01E1506E
:102D1000F047E232F10508F0C3C0E35AF64D0C94D7
:102D2000DA289E013A9521153F4108F4A3CF9E0170
:102D3000205A324520323105C8F2FE019DCF823043
:102D400039F4E6012296FE0184910E94F90DBFC478
:102D5000833039F4E6012296FE0184910E945F0ED1
:102D6000B6C4843009F0B3C4E6012296FE01849112
:102D700020E030E04AE0FE0131968053990B8A3022
:102D8000910568F02115310509F4A1C48FE99FE090
:102D90000197F1F700C0000021503109F3CF429FA5
:102DA000B001439F700D11249C01260F371F8491A1
:102DB000EF01E1CFE82FF0E0EF56F54F9490282F88
:102DC00026952695269530E0F901EF57F54F0491A9
:102DD000877010E0082E02C0159507950A94E2F757
:102DE00001701127F901EF58F54FA490B12C082E6E
:102DF00002C0B594A7940A94E2F7A0FAAA24BB24CF
:102E0000A0F8F901EF59F54FC491D0E002C0D59573
:102E1000C7958A95E2F7C170DD270115110519F0F4
:102E200081EE0E94F90DA114B10419F086EE0E9402
:102E3000F90D60E070E0892D0E94890EA114B104A3
:102E400019F086EE0E945F0E0115110519F081EE52
:102E50000E945F0ECD2B29F060E070E08CE20E94B2
:102E6000890EE60134C426E241EE61EE0E94B215FD
:102E700018CF27E245EE65EEF9CF26E241EE60EE8F
:102E8000F5CF27E245EE64EEF1CF26E241EE62EEA9
:102E9000EDCF27E245EE66EEE9CF28E241E0EBCF49
:102EA0008091800681608093800660918006709199
:102EB000810684E090E00E944B290E94B20EF1CE80
:102EC00080918106886080938106EFCF8091800693
:102ED0008260E9CF809180068460E5CF8091800692
:102EE0008860E1CF809181068160EDCF809181067D
:102EF0008260E9CF809180068061D5CF8091800685
:102F00008062D1CF809180068064CDCF0E94B20EC6
:102F1000809180068068C7CF809180068C60C3CF87
:102F2000809181068360CFCF809180068E7FBBCF5A
:102F300080918106877FC7CF809180068D7FB3CF38
:102F4000809180068B7FAFCF80918006877FABCF4B
:102F5000809181068E7FB7CF809181068D7FB3CF20
:102F6000809180068F7E9FCF809180068F7D9BCF42
:102F7000809180068F7B97CF0E94B20E8091800651
:102F80008F7791CF80918006837F8DCF809181064E
:102F90008C7F99CF80918006992782FF939590FB33
:102FA00082F990FB83F97FCF80918106982F9095CD
:102FB00090FB80F990FB81F986CF90918006892F54
:102FC0008F7B96FF80646FCF0E94B20E9091800637
:102FD000892F97FB87F9805866CF61E08EE090E0FB
:102FE0000E942D2962CF60E0F9CF90918006892F51
:102FF0008F7E94FF806157CF90918006892F8E7FBE
:1030000090FF816050CF90918106892F877F93FF39
:10301000886059CF89E280C39272FE01E052F8477E
:10302000EB30F10508F064C0E158F64D0C94DA2855
:10303000909178069272FE01E054F847ED30F10568
:1030400008F056C0E657F64D0C94DA280E94800925
:1030500028CE9115B1F10E949E0923CE9115B1F1B0
:103060000E94E90B1ECE9115B1F10E94000C19CE01
:103070009115B1F10E941A0C14CE9115B1F10E9474
:10308000BC090FCE80916F068370811102C010922F
:10309000460180916F068C7F816080936F068091DE
:1030A0007706816080937706FCCD80916F068370F0
:1030B00081111092460180916F068C7FEECF9115A1
:1030C00051F20E948E09EDCD911551F20E94DF0B55
:1030D000E8CD911551F20E94F30BE3CD911551F219
:1030E0000E940D0CDECD911551F20E94AE09D9CD92
:1030F0009E01205E324520323105A8F481112AC09C
:10310000CF7181E090E0FC0102C0EE0FFF1FCA9575
:10311000E2F7EF016E2F83E090E00E942D29CE01AF
:103120000E94A905BECD8115A9F0CA35FCE7DF07CD
:1031300009F49AC008F072C0C1303CE7D30709F423
:1031400091C0C3308CE7D80709F486C0C115DC47AD
:1031500009F475C0F701858100811181811509F499
:1031600087C0C8010E94A208C82F682FC8010E940A
:10317000D505B8018C2F0E948E060E949F07D82F7C
:10318000C92FF701C580068102950F7080917F06D7
:103190008770811501F1DC2CC114F1F0892F807F3B
:1031A000803461F080E28D0F8830A8F0892F807E16
:1031B000803221F4D23078F0011569F080918106D7
:1031C00082FF09C082E00E94470680917F068770D7
:1031D000DD24D3948111D12C8C2F82958F7088306F
:1031E00009F438C108F068C0843008F046C01C2FCC
:1031F0001F70823008F471C0C07FC03211F0129588
:10320000107FD11509F49FC0D13009F4E8C0C11472
:1032100009F4F2C0011509F4B4C074C0CB35ECE771
:10322000DE0721F180918106002482FF0394802D26
:10323000CC35DC4709F08ECF0E94900D8BCF0E94D9
:10324000B20E2FEF34E38CE0215030408040E1F7A4
:1032500000C000000E94D80A6FEF7FEF80E090E08E
:103260000E944B290E94D40E81E0E6CF80E0E4CF9B
:10327000C8010E940A06C82F7CCF843009F4CDC053
:10328000D114A9F080917F0680FD11C0F70115824D
:103290008695869586950E94B305C7010E940E16F5
:1032A00080917F068695869586950E94C30560E08D
:1032B000C7010E94D60805CD893009F456C18A5F3E
:1032C0008F708230E8F6D23F09F060C18C2F8F7189
:1032D000C11059C10E94B305F2C0C03110F012955F
:1032E000107FC114B9F0111569F080E28D0F88309C
:1032F00010F0D11109C080917806812B8093780657
:103300000E94A70D8D2F2FC080918206812B809364
:103310008206F6CF8D2F0E945F0E111509F4B0CFF3
:1033200080E28D0F883010F0D11104C0812F0E94EF
:10333000860606C0109580918206812380938206BE
:103340000E94A70D9DCF8091810682FD16C0C114F9
:1033500069F0111539F080917806812B80937806F9
:103360000E94A70D80E00E94F90D8ACF80E00E94A4
:103370005F0E111509F484CFD9CFC114A1F001114A
:1033800004C0812F0E94A10E7BCF013009F078CFBD
:1033900080917906912F9823191709F471CF812B09
:1033A000809379066DCF01116BCF812F0E94AB0EF8
:1033B00090917906812F8923811529F0812F80959D
:1033C00089238093790680917A06912F982391150D
:1033D00009F456CF1095182310937A0651CFC114D3
:1033E00021F0063008F04CCFCCCF053008F048CFA4
:1033F000812F0E94AB0E44CF0115D1F3D93349F48C
:10340000FFEF27EE33E0F15020403040E1F700C0FD
:1034100000008D2F0E945F0E33CF8C2F86958695EE
:103420008370811569F0813009F02ACF8D2F9C2F90
:103430009370C11002C080E090E00E940E0A20CF7D
:103440008D2F9C2F9370C11002C080E090E00E94ED
:10345000E80916CF8C2F8370811142C0C1102FC094
:103460004D2F429546954770440F440F2D2F2F70D6
:1034700030E0042E02C0220F331F0A94E2F780E0EE
:1034800090E0D4FF09C08FE090E002C0880F991F40
:103490004A95E2F780959095C695C695C370C2305F
:1034A000B1F0C33089F040917B0650917C06C13069
:1034B00049F0822B932B842395230E94A9050E9417
:1034C000D709DECE242B352B822B932BF6CF822BE4
:1034D000932B20917B0630917C0682279327EDCF9A
:1034E000C11491F1C0FFEBCF4D2F42954695477027
:1034F000440F440F2D2F2F7030E0042E02C0220FF6
:10350000331F0A94E2F780E090E0D4FF09C08FE017
:1035100090E002C0880F991F4A95E2F78095909538
:10352000C695C695C370C230B9F0C33091F04091D2
:103530007D0650917E06C13051F0822B932B84235F
:1035400095230E94AE05BBCF823070F6B8CF242BF6
:10355000352B822B932BF5CF822B932B20917D063D
:1035600030917E0682279327ECCFCF70C11439F0BB
:103570008C2F0E94B3058D2F0E94A10EA0CF8D2FFE
:103580000E94AB0E8C2F0E94C30599CF70F4D03FE0
:10359000C9F0D13F91F0C11409F455C0011509F4E7
:1035A0004FC08D2F0E94F90D8ACFD33F19F1D43F20
:1035B00091F79091810692FD2BC08C2F8F71C114D1
:1035C00011F388CEC114A1F0053008F078CFCF7187
:1035D00081E090E0FC0102C0EE0FFF1FCA95E2F708
:1035E000EF0180917D0690917E068E279D27A9CFC1
:1035F0000630EBCF80E090E0C11409F4A2CFCF7188
:1036000081E090E002C0880F991FCA95E2F799CF38
:10361000C11461F08C2F8F7192FF5CCE982F990F9F
:10362000990F990F936090937F0654CE81E00E948A
:103630004706023008F443CF82E00E9447063FCF9E
:103640008C2F8F7147CE011579F0D93349F4FFEFF4
:1036500027EE33E0F15020403040E1F700C0000099
:103660008D2F0E945F0E2BCF8C2F8F718CCFC0348B
:103670002EE7D20709F053C080EE0E945F0E8091C2
:103680006B0690916C060E94A315803A910508F094
:1036900008CB81E1C82E8BE0D82EF60184918115EC
:1036A00009F4FFCA813009F085CBE6012196FE01BD
:1036B0008491813009F043CB2196FE01849160E52D
:1036C00070E0893311F060E070E00E94890E21966D
:1036D0006E01E3CF90917806C6313CE7D30709F03D
:1036E0009BCC9A7A81E0911101C080E080936E06B4
:1036F00085E3911101C089E20E94340A0E94A70D5E
:10370000D0CAC6319CE7D90709F092CC80916E06E9
:10371000811509F47FCC85E30E94680AEFCFFE0192
:10372000E851FC47E730F10560F7E956F64D0C9497
:10373000DA288091C306803178F48091C206811521
:1037400059F0E0918406209183063091BE064091A5
:10375000BD0657E02E1301C008956E2F70E05E9FE6
:10376000F0011124DF01AB57B94F14968C911497D7
:10377000811561F111968C911197831327C08C915B
:10378000841324C015968C91159781111FC0129631
:103790008D919C91A091BF06B091C0068A1B9B0B96
:1037A000803A910598F48091C3068F708061809370
:1037B000C306E557F94F80818F70806180838DEB60
:1037C00096E00E940E160E943D060895FB01319678
:1037D000E770C0CFADE0B0E0E0EFFBE10C947A28F9
:1037E0008C0186E0F801DE01189601900D928A9511
:1037F000E1F7F801F580C4808DEB882E86E0982EE5
:103800007090C106711020C0C114D9F0F11409F4F0
:103810000DC1C8010E940509811509F407C187E09F
:10382000F801D40101900D928A95E1F7F1E0CF12F1
:1038300006C08091BD069091BE060E94F6080E94C7
:10384000991BFF24F39454C0E080A280B380D090F1
:10385000C2068091BF069091C0069501281B390BC6
:10386000D11409F4C6C0203A310508F09CC0C11437
:1038700041F39091BE06C1808091C306803108F06B
:1038800058C0C91214C09091BD069E1110C0F1100D
:103890004AC08F7080618093C3068DEB96E00E94D2
:1038A0000E168091C306F8018683F12C21C0F11019
:1038B0003AC040E06C2D8E2D0E94B20C40E06C2D81
:1038C0008E2D0E94B20CF82E8111EFCF888599853C
:1038D0000E94F608292F22952F70903470F49F7063
:1038E0002230A0F09115B1F0F8019681903190F45A
:1038F0008F2D2D96EDE00C9496282A5F2F702230A4
:1039000068F0C8010E940E16FD2CF2CF911511F03F
:10391000811571F3805E883058F3F3CF803F40F318
:10392000815F8330F9CF8091C30681608093C306A5
:10393000BCCFC91213C09091BD069E110FC0F110EB
:103940000DC08683C8010E940E1687E0F801ADEB1A
:10395000B6E001900D928A95E1F773CFC8010E94FD
:103960000509811509F462C0F11409F45FC0809162
:10397000C306803278F02091BD063091BE063A83AE
:103980002983BC82AB827D821E828F83CE01019609
:103990000E940E1687E0F801ADEBB6E001900D92A3
:1039A0008A95E1F74CCF8091C306803150F48DEBBE
:1039B00096E00E940E1687E0F40111928A95E9F7CD
:1039C00074CFC11409F43DCF2091BE069181291313
:1039D000C5CF9091BD069E11C1CFF110BFCF868398
:1039E000C8010E940E1687E0F40111928A95E9F74A
:1039F00028CF203A3105F8F6C11409F422CFF1148A
:103A0000A9F09091BE068181981306C08091BD06F1
:103A10008E1102C087E09BCFC8010E940509811169
:103A2000B9CF8091C30681608093C306C8010E940C
:103A30000E1607CFABE1B0E0E0E2FDE10C94832885
:103A40004E8B5F8B688F798F8A8F192F9B8F911187
:103A5000109282061D8A86E0FE017696DE011F9690
:103A600001900D928A95E1F70A8D011539F00B8BC3
:103A70001C8B61E0CE010F960E94D6080B8B1C8B2D
:103A800087E0FE013F96DE01189601900D928A951F
:103A9000E1F7CE0108960E94EA1B811128C020910F
:103AA00083063091840687E0FE013896DE01119688
:103AB00001900D928A95E1F78C858115C1F0822FD6
:103AC00090E001968770992738171906D9F097E08A
:103AD000929FD0011124AB57B94FFE01319601904E
:103AE0000D929A95E1F7809383060E943D0617E0B8
:103AF0008091840690918306891312C06B96E4E04E
:103B00000C949F280E94B20E109283061092840695
:103B100087E0EDEBF6E0DF011D928A95E9F7E7CF4C
:103B2000189FC00111248B57994F0E94EA1B8115E1
:103B300029F38091840690E00196877099278093FD
:103B40008406D6CFA6E0B0E0E8EAFDE10C94832835
:103B50000E9497158C01809123069091240680176E
:103B6000910779F019821A820E949715BC01498148
:103B70005A8180E090E00E941A1D10932406009361
:103B800023062696E4E00C949F28ACE0B0E0EBEC32
:103B9000FDE10C947828FE01319688E0DF011D924A
:103BA0008A95E9F78CE1E82E82E0F82E8F0190E209
:103BB000C92E92E0D92E3F01AA24A394B12C36E25B
:103BC000832E32E0932EF70181917F018F3F09F41C
:103BD0003EC0F894E82FE295EF70F0E021A18F70DD
:103BE000A50102C0440F551F8A95E2F7CA01922F22
:103BF000982B91A392A18095892382A3789400C0E9
:103C0000E0E2F2E031E0512C21912F3F79F0A22F38
:103C1000A295AF70A05EB0E08C9190E02F7002C0D2
:103C2000959587952A95E2F780FF86C080E0582A0F
:103C3000330F8E169F0641F7F70182918F3F11F0E7
:103C40000E94330950EA5A95F1F7D8015C920F5F50
:103C50001F4FCE14DF0409F0B6CF48E050E0B301A7
:103C60008EE993E00E94E9289C01892B41F088E0CD
:103C7000F301AEE9B3E001900D928A95E1F700916E
:103C8000A70310E005551C4F232B09F457C081E012
:103C90008093CF020E9497159093CE028093CD021D
:103CA00080911D06811509F4A0C07E01B9E0EB0EDC
:103CB000F11C84E0F70111928A95E9F78091D00216
:103CC0008A3008F05DC04AE652E1B701C8010E949F
:103CD000560D811509F477C04BE352E1B701C801D5
:103CE0000E94560D811509F46EC045EA51E1B701F5
:103CF000C8010E94560D811509F465C04AE452E1DD
:103D0000B701C8010E94560D811509F45CC01092DC
:103D1000D0028091A60390E044E050E0B7018555C1
:103D20009C4F0E94E92821E02093CC02892BE9F5E1
:103D30002C96EFE00C949428832F79CF8091CF02BA
:103D4000811509F4ADCF8091CD029091CE020E94F1
:103D5000A315059708F4A4CF44E050E06EE973E0A2
:103D6000C8010E94E928892B41F084E0EEE9F3E0E4
:103D7000D80101900D928A95E1F71092CF0290CF71
:103D80008091CA029091CB020E94A315843F91407A
:103D900008F099CF8091CC02811551F284E0D701CF
:103DA0001D928A95E9F71092CC02E091A603F0E00B
:103DB000E555FC4F89859A85AB85BC8580839183C9
:103DC000A283B383B5CF8091D0028F3F39F40E9494
:103DD00097159093CB028093CA02DCCF8F5F8093BC
:103DE000D0028A3008F495CFF2CFE090A603F12CF0
:103DF000F701E555FC4F7F01F80180819181A28197
:103E0000B3818093080690930906A0930A06B093A5
:103E10000B0688E096E00E94B20B80930706809123
:103E20000C0690910D06A0910E06B0910F06F701B9
:103E300080839183A283B383C0901006D090110633
:103E4000E0901206F09013068091C6029091C7028E
:103E5000A091C802B091C902C816D906EA06FB06AD
:103E6000B1F0C092C602D092C702E092C802F092AE
:103E7000C9020E94970AC61AD70AE80AF90AC0922C
:103E80001F06D0922006E0922106F092220688E0DA
:103E9000E4E1F6E0AFE6B6E001900D928A95E1F735
:103EA00047CFCDB7DEB72B970FB6F894DEBF0FBE66
:103EB000CDBF85B7806885BF85B7806885BF84B76B
:103EC000877F84BF0FB6F894A895809160008861C1
:103ED00080936000109260000FBE80E890E00FB603
:103EE000F89480936100909361000FBE81E080930D
:103EF000440181E399E090939D0280939C020E948B
:103F0000930B0E94570C8091E20084608093E20042
:103F100078948091AA03811599F08091E90010911D
:103F2000EC008F70179511271795182B1092E90048
:103F30008091E80083FD0E94EA0E1F701093E90053
:103F400082E084BD93E095BD9AEF97BD80936E00AB
:103F500010921F061092200610922106109222063F
:103F60008091D80080618093D8002AE12A95F1F7EA
:103F700000C08091D900182F117080FD04C00E94EC
:103F8000930B1092AA0310931D0610931E06109314
:103F9000050111110E94FF26809105018091050104
:103FA00091E08927880F880F8093A70394E0981BDE
:103FB0009093A60384E90E94330986E60E943309A0
:103FC00087E90E94330986EC0E94330900E212E07F
:103FD000B6E2EB2EB2E0FB2ED8018D918D018F3F22
:103FE00011F00E943309E016F106B1F788E0EBEA20
:103FF000F3E0DF01282F1D922A95E9F7EEE9F3E0BF
:10400000DF011D928A95E9F780E090E00E94172970
:10401000853E9E4F09F461C065EE7EEF80E090E042
:104020000E944B2960E082E090E00E942D2981E00F
:1040300090E090937C0680937B0661E083E090E0C3
:104040000E942D2960E074E184E090E00E944B29F9
:1040500060E086E090E00E942D2960E087E090E03B
:104060000E942D2940E050E0BA0188E090E00E94D3
:104070003F2960E083E290E00E942D2960E08CE01F
:1040800090E00E942D2960E08DE090E00E942D29B3
:1040900019821A821B821C821D821E821F82188630
:1040A00048E050E067E170E0CE0101960E941D29D2
:1040B00040E050E0BA018FE190E00E943F2940E0EB
:1040C00050E0BA018FE090E00E943F2940E050E0CC
:1040D000BA0183E190E00E943F2982E090E00E94D3
:1040E0000F298093B30384E090E00E9417299093F6
:1040F0008106809380060E94C51DEFEFF6E721E060
:10410000E150F0402040E1F700C000000E94C51DD2
:10411000E0911E0611E0E127EE0FEE0FF0E0E5550D
:10412000FC4F808181FF08C06FEF7FEF80E090E05F
:104130000E944B290E94D80A83E090E00E940F2938
:1041400090E00E94A9050E94CA091093770648E0F2
:1041500050E067E170E08FE696E00E94FF28109241
:10416000770680916F068430F8F485E080936F06BF
:104170008091470190914801A09149018093700678
:1041800090937106A09372068FE7809373068FEF6A
:104190008093740648E050E067E170E08FE696E0B7
:1041A0000E941D291092770680911D0691E08927B3
:1041B000880F8093E60580E88093BE030E948025E7
:1041C0006BE070E089E298E00E946814811509F4C0
:1041D0003FC08091E60565E070E081FDA0C084E20B
:1041E00098E00E946814811599F16DE070E082E119
:1041F00098E00E946814811559F10E94970ADC0129
:10420000CB01805A9541AF4FBF4F8093EA05909301
:10421000EB05A093EC05B093ED05E6EEF3E080E04E
:1042200092E0DF019C011D9221503040E1F7F093B4
:10423000BD03E093BC038FEF9FEF9093E90580935C
:10424000E80581E08093F1058093EE051092E70583
:1042500080911D06811102C00E94022786E091E034
:104260009093460680934506AAE08A2E912CA12CB5
:10427000B12C8091AA0310E402E1853009F488C0D2
:104280000E94C51D04EB13E0FBEAEF2EF3E0FF2EC6
:10429000D701F80191918D912CEB33E02E173F0758
:1042A00009F480C09817B1F330901D06D12CD701C6
:1042B000CD907D01F80141908F014C1439F14C24CF
:1042C000712C55245394852D84218115C1F031140E
:1042D000B1F07982DA820E9497159C838B83F1E09A
:1042E000FD8391E0852D8C21811101C090E09E839A
:1042F00049815A816B817C818D810E941A1D739442
:10430000550C26E07212DFCFF801C292D39438E048
:10431000D312CDCF0E94A30AFF24F39448C08FE1AB
:1043200098E05FCF8091AA03843039F10E94041392
:104330000E9475141092A80388E190E00FB6F894DB
:10434000A895809360000FBE1093600083B7817FB3
:10435000846083BF83B7816083BF7894889583B777
:104360008E7F83BF0FB6F894A89580916000886116
:1043700080936000109260000FBE0E94C51DEBEAA2
:10438000F3E081918111F2C193E0E33BF907C9F7B2
:104390008091AA03853009F4C5CF0E94B20E0E9415
:1043A000D7096ECF981380CF0E94A21DF12C0E94D6
:1043B00004138091F105811509F4ADC08091EF05DA
:1043C0009091F0050E94A315C29708F484C00E9442
:1043D00097159093F0058093EF0586EE93E0909308
:1043E000BD038093BC0380911D06811509F4E3C0D1
:1043F0008DE998E00E945A1540917D0630917E0625
:10440000832F90E028E0311103C020E0842F932F08
:10441000AC01E4E056954795EA95E1F74115510561
:1044200011F02C5FCA01AC015695479556954795FA
:104430004115510511F02E5FCA0196958795820F9F
:10444000823009F47FC008F075C0811178C085E919
:1044500098E00E94681580916A06805D0E94AB1406
:104460008AE798E00E945A1580916906805D0E9453
:10447000AB1486E798E00E945A154090670650906A
:10448000680680911001909111014816590609F0B3
:104490005FC08091C503803209F05AC0EFEBF3E0B2
:1044A0008F0181918032E1F3F80101900020E9F75A
:1044B0009F012150310969010C151D0508F475C0D3
:1044C00084E798E00E945A15809145010E94AB1440
:1044D00081E00E942B158091E8059091E905892BD8
:1044E00009F06EC08091EE058115A9F00E94970A2F
:1044F0000091EA051091EB052091EC053091ED0556
:10450000601B710B820B930B6F3F7F4F8F4F9F4749
:1045100010F40E947514F1100E9487140E94D709AC
:104520009091F205891709F4A4CE8093F2050E94B8
:10453000970A9FCE833049F08CE798E08ACF8FE8C6
:1045400098E087CF89E898E084CF82E898E081CF2F
:10455000509211014092100180E28093C503612CBA
:10456000712C1092C40354ECC52E53E0D52E00E0FC
:1045700010E0C301B201A50194010E94B828605D5A
:10458000603341F40115110529F0452846284728D4
:1045900009F460E2D6016E936D0129013A010F5FC3
:1045A0001F4F0530110529F779CFD8018D918D0165
:1045B0000E94AB1481CF84E398E00E945A158BCF00
:1045C0008091F105811509F48DCF8091E705811166
:1045D00089CF0E9487142091E8053091E9052115C3
:1045E000310509F47FCF10E0812F90E044244394FB
:1045F000512C012E02C0440C551C0A94E2F7A20172
:1046000042235323452B11F41F5FEECF2091E60583
:1046100020FF99C0912F990F990F990F37E0390F0B
:1046200080E023E0909314018093170130931501EB
:104630002093180124E630E047E050E062E171E0A9
:1046400088E70E94B625892B09F04CCFB0E21B9F6A
:10465000A00111248091E60580FF81C0E6ECF3E023
:1046600080E2DF011D928A95E9F7EAE2F2E0FB873A
:10467000EA8766E272E087E0D82EEA85FB85A191A1
:10468000FB87EA87FB018191BF01840F952F911D64
:104690009C012A513C4F1901EA2FF0E0EA53FC4FEC
:1046A00080E090E03D2D381B3987EE24E394082EFE
:1046B00001C0EE0C0A94EAF7310100E0D3011D912C
:1046C0003D011E212985201B277030E0B12F022ECD
:1046D00001C0BB0F0A94EAF7319521953109277083
:1046E000332701C016952A95EAF71B2B2081212B31
:1046F00020830F5F083011F70196319688309105BD
:1047000089F6EEE2F2E02A853B85E217F30709F02D
:10471000B4CF04E610E020E230E046EC53E060E481
:1047200088E70E945426892B09F0DCCE40945094EF
:104730008091E8059091E905842195219093E90500
:104740008093E805CFCE9695879596958795282FE7
:10475000912F9295990F90763FE1390F63CF4A518F
:104760005C4F04E610E020E230E0D9CF8091A9034D
:10477000811509F40DCEA0E1A9BD09BD09B400FE63
:10478000FDCF8091D8008F7D8093D8008091E0008C
:1047900082608093E0008091E00081FDFCCF0E9468
:1047A000B20EF6CD78941F920F920FB60F9211248D
:1047B0008F939F93AF93BF938091EC029091ED0202
:1047C000A091EE02B091EF020196A11DB11D809360
:1047D000EC029093ED02A093EE02B093EF02BF9132
:1047E000AF919F918F910F900FBE0F901F901895D2
:1047F0001F920F920FB60F9211242F933F934F9356
:104800005F936F937F938F939F93AF93BF93EF9338
:10481000FF938091E10082FF09C08091E20082FF56
:1048200005C08091E1008B7F8093E1008091DA00E8
:1048300080FF24C08091D80080FF20C08091DA00E2
:104840008E7F8093DA008091D90080FFA9C080E13B
:1048500089BD82E189BD09B400FEFDCF81E080936E
:10486000AA038091DB02811109C00E94930B0E9470
:10487000570C8091E20084608093E2008091E10017
:1048800080FF1AC08091E20080FF16C08091E20094
:104890008E7F8093E2008091E20080618093E2004D
:1048A0008091D80080628093D80019BC85E0809305
:1048B000AA0383E0809344018091E10084FF2FC02C
:1048C0008091E20084FF2BC080E189BD82E189BD37
:1048D00009B400FEFDCF8091D8008F7D8093D80071
:1048E0008091E1008F7E8093E1008091E2008F7ED5
:1048F0008093E2008091E20081608093E2008091E9
:10490000DA02811509F452C084E08093AA038091F1
:10491000AA03843009F052C082E080934401809160
:10492000E10083FF2CC08091E20083FF28C08091CA
:10493000E100877F8093E10082E08093AA031092D8
:10494000DA028091E1008E7F8093E1008091E200A5
:104950008E7F8093E2008091E20080618093E2008C
:1049600042E060E080E00E94270C8091F0008860C7
:104970008093F00081E08093440180934301FF9194
:10498000EF91BF91AF919F918F917F916F915F91C7
:104990004F913F912F910F900FBE0F901F90189540
:1049A00019BC1092AA031092DB0268CF8091E30039
:1049B00087FF02C083E0A9CF81E0A7CF81E0ADCF20
:1049C0001F920F920FB60F921124EF92FF920F9346
:1049D0001F932F933F934F935F936F937F938F9387
:1049E0009F93AF93BF93CF93EF93FF9309EE10E0A4
:1049F000F8018081C091EC008F70C795CC27C795D6
:104A0000C82B108280EFE82EF12CF7018081877F80
:104A1000808378940E94EA0EF8011082F701808169
:104A200088608083CF70F801C083FF91EF91CF91B0
:104A3000BF91AF919F918F917F916F915F914F91B6
:104A40003F912F911F910F91FF90EF900F900FBE0C
:104A50000F901F901895FF920F931F93CF93DF93A2
:104A6000182FEB011092BC0084EA8093BC000E94D6
:104A70009715082FF92E8091BC0087FF28C08091E0
:104A8000B900887F883029F08091B900887F803113
:104A9000A1F51093BB0084E88093BC000E94971599
:104AA000182F092F8091BC0087FF1FC02091B900EB
:104AB000287F80E090E0283199F081E090E0203478
:104AC00011F480E090E091958195910909C0802FC3
:104AD0009F2D0E94A315C817D90768F68EEF9FEF88
:104AE000CDB7DEB7E5E00C949E28812F902F0E9471
:104AF000A315C817D907B0F6F1CF8FEF9FEFF0CF0E
:104B00001092B9008CE08093B80008950F931F9322
:104B1000CF93DF93EB018093BB0084E88093BC00CC
:104B20000E949715182F092F8091BC0087FF11C094
:104B30002091B900287F81E090E0283211F480E0D4
:104B400090E0919581959109DF91CF911F910F91FF
:104B50000895CF3FDC0741F3812F902F0E94A315CA
:104B6000C817D90708F78EEF9FEFEECFA0E0B0E0AF
:104B7000ECEBF5E20C947A28782EB62EA72E6A017B
:104B800089010E9497154C010431110520F10F3F56
:104B9000100729F1C80164E170E00E946128F62E37
:104BA000E72E6F2D7E2D872D0E942B25EC01892B62
:104BB000C9F4EB2CFA2CCE0CDF1CEC14FD0411F024
:104BC0002097D1F084E98093BC00CE01CDB7DEB749
:104BD000EDE00C949628FF24F394E12CE2CF85E0DD
:104BE000F82EFBCF0F3F1007E1F2C4010E94A3157E
:104BF00008171907B0F6DDCFB801F70181917F01E1
:104C00000E948625EC01D9CFA0E0B0E0EAE0F6E210
:104C10000C947A28782EB62EA72E6A0189010E945C
:104C200097154C010431110520F10F3F100729F1B0
:104C3000C80164E170E00E946128F62EE72E6F2D16
:104C40007E2D872D0E942B25EC01892BC9F4EB2C9E
:104C5000FA2CCE0CDF1CEC14FD0411F02097D1F0DF
:104C600084E98093BC00CE01CDB7DEB7EDE00C94B3
:104C70009628FF24F394E12CE2CF85E0F82EFBCFB9
:104C80000F3F1007E1F2C4010E94A315081719078E
:104C9000B0F6DDCFF7018491B8010E948625EC01C2
:104CA000FFEFEF1AFF0AD7CFA0E0B0E0EAE5F6E2A7
:104CB0000C947928682E962E5A01690178010E9479
:104CC0009715782E892E0431110530F10F3F10070A
:104CD00031F1C80164E170E00E946128162F072FAE
:104CE000612F702F862D0E942B25EC01892BC9F096
:104CF000FFEFEF16FF06A1F3872D982D0E94A31555
:104D0000E816F90668F784E98093BC00CE01CDB7B8
:104D1000DEB7EEE00C94952811E000E0E1CF15E05D
:104D2000FCCFB701892D0E948625EC018501CA0CB4
:104D3000DB1C0C151D0539F3209729F7B701F80185
:104D400081918F010E948625EC01F3CF8EE14A9B71
:104D500002C08A95E1F74A9BFECF08955A9880E2F7
:104D60008A95F1F75A9A0895FC013BE03A95F1F7DC
:104D700098E020E080E031E040E14A95F1F7880FCB
:104D80004A9B02C08160232742E04A95F1F7000068
:104D900040E14A95F1F79A9579F790E19A95F1F704
:104DA00099B132E03A95F1F7000040E14A95F1F708
:104DB00092FB992790F992272081920F9083089572
:104DC000A1E0B0E0E6EEF6E20C94812819828C01B5
:104DD0007C01E60EF11C0E94A626CE0101960E94DF
:104DE000B426F80181938F01EE15FF05A1F781E04C
:104DF0009981911180E02196E6E00C949D28529AC9
:104E00005A9A089552985A9AEA9AE9E6F0E080810F
:104E10008F7C808308956150770B91E001C0990FDA
:104E20006A95EAF7692F90E021E0611108C09115B9
:104E300099F05A9A80E28A95F1F75A980895362F98
:104E40003823311539F05A9A922730E23A95F1F722
:104E50006695EBCF5A98F9CF5A98ECCFFF920F9303
:104E60001F93CF93DF93EC018C01060F111DF99076
:104E70000E94AE2668E08F2D0E940B27C017D10735
:104E8000B1F7CDB7DEB7E5E00C949E281F920F92E4
:104E90000FB60F9211240F931F932F933F934F93AD
:104EA0005F936F937F938F939F93AF93BF93EF9392
:104EB000FF93CF93DF930F92CDB7DEB719820E9495
:104EC000A626CE0101960E94B426082F06950695C7
:104ED0000695982F92959570202F2570920F292F67
:104EE000237096959695920F982797708981892BB4
:104EF000811509F05CC0063008F059C080E18A9540
:104F0000F1F75A9A529A82E08A95F1F700C05A98BE
:104F100088E0089F80011124D801A75EBE4F169635
:104F2000ED91FC9117973097A9F060912E02709146
:104F30002F0214962D913C911597260F371F11962D
:104F40008D919C911297680F791F13964C9113972E
:104F50008C910995F801E75EFE4F6381611551F070
:104F600020912E0230912F0284819581820F931F10
:104F70000E942E270E94AE2680E18A95F1F75A986A
:104F800052985A9A80E18A95F1F7F801E75EFE4F50
:104F90006081611551F020912E0230912F028181A4
:104FA0009281820F931F0E94E0260E94A6260F90F6
:104FB000DF91CF91FF91EF91BF91AF919F918F9131
:104FC0007F916F915F914F913F912F911F910F9121
:104FD0000F900FBE0F901F9018950F931F93CF93B4
:104FE000DF938C0106970CF064C0F894529A5A989B
:104FF00085E08A95F1F70000C02FC695C570802F17
:105000008570C80F8C2F8370C695C69593E0000FEE
:10501000111F9A95E1F7C80FC8018C2BEC010E9473
:10502000AE2600C068E08C2F0E940B2790E19A9575
:10503000F1F752985A9A4A9B35C087E090E04A9916
:1050400033C0F801E75EFE4F6381611561F0209186
:105050002E0230912F0284819581820F931F0E942E
:10506000E026811519F10E94A62680E28A95F1F7C3
:105070005A98529A90E19A95F1F7F801E75EFE4F3F
:105080006081611551F020912E0230912F028181B3
:105090009281820F931F0E942E270E94AE26789441
:1050A00081E008C000C0C7CF019749F4529A5A9ACC
:1050B000789480E0DF91CF911F910F91089500C007
:1050C000BECFAA1BBB1B51E107C0AA1FBB1FA6175F
:1050D000B70710F0A61BB70B881F991F5A95A9F7A1
:1050E00080959095BC01CD0108952F923F924F92EB
:1050F0005F926F927F928F929F92AF92BF92CF9268
:10510000DF92EF92FF920F931F93CF93DF93CDB770
:10511000DEB7CA1BDB0B0FB6F894DEBF0FBECDBFE8
:1051200009942A88398848885F846E847D848C84B9
:105130009B84AA84B984C884DF80EE80FD800C81C2
:105140001B81AA81B981CE0FD11D0FB6F894DEBFA5
:105150000FBECDBFED010895992778E0880F991F04
:10516000961708F0961B881F7A95C9F780950895C1
:10517000A1E21A2EAA1BBB1BFD010DC0AA1FBB1F5B
:10518000EE1FFF1FA217B307E407F50720F0A21BCD
:10519000B30BE40BF50B661F771F881F991F1A943A
:1051A00069F760957095809590959B01AC01BD0164
:1051B000CF010895EE0FFF1F0590F491E02D0994A3
:1051C000FB01DC0102C005900D9241505040D8F720
:1051D0000895FB01DC0104C08D910190801921F438
:1051E00041505040C8F7881B990B0895FB01DC0122
:1051F00002C001900D9241505040D8F70895DC0153
:10520000CB01FC01F999FECF06C0F2BDE1BDF89AD1
:10521000319600B40D9241505040B8F70895F99975
:10522000FECF92BD81BDF89A992780B50895A8E177
:10523000B0E042E050E00C940129DC01A40FB51F5E
:105240004150504048F0CB01840F951F2E910E9491
:105250002E2941505040D0F70895262FF999FECFBE
:1052600092BD81BDF89A019700B4021639F01FBAB9
:1052700020BD0FB6F894FA9AF99A0FBE08950396D6
:10528000272F0E942E290E942D29252F0E942E298A
:10529000242F0C942E290196272F0E942E290C943E
:1052A0002D29F894FFCFCB0FF10FF70FF10FF70F68
:1052B0004A106C10F70F691176119417FC179C17A0
:1052C00066176A17A0176E17A417B0177A17F51785
:1052D0007E17B4178217B817DD178617BC17E417A7
:1052E0008C17C217CA177217A8177617AC17901722
:1052F000C617D417ED17F317601798170318261859
:1053000029185F182E1864183318691838186E1881
:105310003D18731842185518261829185F182E18AA
:1053200064183318691838186E183D1873183D172B
:0C533000411733173917451749174D175F
:10533C0000FF00FFFF01940A310D480DE90A4F0DE3
:10534C00FF000021007F220003000000010000008C
:10535C000000000004010000000405000000000033
:10536C00000409000000000000090D00000000000E
:10537C000000000100200300FF78181712110A0921
:10538C00191613100B081A15140F0C07FFFFFF0E3C
:10539C000D0633322D2C252434312E2B262335307B
:1053AC002F2A2722FFFFFF2928215510320D101418
:1053BC001026323055345F3F55275515550444029D
:1053CC0044134425503A3C373223320D320021032A
:1053DC0021142125102A1018100700070018002985
:1053EC008B10AE0DD014D026AE308B34813F8B2772
:1053FC008B158B049C029C139C25903AA437AE23EE
:10540C00AE0DAE00BF03BF14BF25D02AD018D007F5
:10541C00E007E018E029020202020202010404047F
:10542C00040404010104040404040404040401013C
:10543C000102020202020201040404040404010138
:10544C00040404040404040404010101946697C6D2
:10545C00F4F5F6F731330008101818100800070699
:10546C00E200E900EA00B500B600B700CD00830108
:10547C00CC008A019201940121022302240225020C
:10548C00260227022A02B300B4006F0070009F01AD
:10549C00CB019F02A002E200E900EA00B500B600D1
:1054AC00B700CD008301CC008A0192019401210246
:1054BC00230224022502260227022A02B300B4008A
:0C54CC006F0070009F01CB019F02A00246
:00000001FF
