:100000000C948A050C94A7050C94A7050C94FE2764
:100010000C94A7050C94A7050C94A7050C94A705B0
:100020000C94A7050C94A7050C94F5150C94B91520
:100030000C9456210C94A7050C94A7050C94A705C5
:100040000C94A7050C94A7050C94A7050C94A70580
:100050000C94A7050C94DD160C94A7050C94A70529
:100060000C94A7050C94A7050C94A7050C94A70560
:100070000C94A7050C94A7050C94A7050C94A70550
:100080000C94A7050C94A7050C94A7050C94A70540
:100090000C94A7050C94A7050C94A7050C94A70530
:1000A0000C94A7050C94A7050C94A70520202020EC
:1000B0006162636465666768696A6B6C6D6E6F70B8
:1000C0007172737475767778797A31323334353664
:1000D00037383930524542545F2D3D5B5D5C233BE0
:1000E00027602C2E2F2020200000000000000000A0
:1000F0000000000000000000000000000000000000
:100100000000000000000000000000007E0F00D48E
:10011000FFFFFFC7000000780000000000000000A3
:100120002A2B280000000000000000000000000052
:1001300000000029000000002C1E3420212224345D
:100140002627252E362D3738271E1F20212223242F
:1001500025263333362E37381F0405060708090ACB
:100160000B0C0D0E0F101112131415161718191A67
:100170001B1C1D2F3130232D350405060708090AE5
:100180000B0C0D0E0F101112131415161718191A47
:100190001B1C1D2F3130354C2100000014001A00AB
:1001A00008001500170000000421162207000900AE
:1001B0000A0000001D001B000600190005000000D9
:1001C00000000000E30022522C0000001300120087
:1001D0000C0018001C00000034310F320E000D001E
:1001E0000B0000003800370036001000110000003E
:1001F00000000000E2002941283200003A003B00E4
:100200003C003D003E0000001E211F002000210098
:1002100022000000E1000100010001004300000095
:1002200000000000E30023522B0000002A004200DF
:10023000410040003F000000273126002500240037
:1002400023000000E500010001004500440000001B
:1002500000000000E200010028000000000036025B
:100260003500370238020000407E23022E002102B2
:1002700020020000E10024021F02220236000000DA
:1002800000000000E30001002C0000002A00300202
:1002900035022F02570000003102270256002602C5
:1002A00025020000310030002D022F003300000035
:1002B00000000000E2002352330200004800AC00BE
:1002C000AE00AB0000000000E0004A224E004D00EE
:1002D0003900000000001B1306131913500400001E
:1002E00000000000E30001002C0000004C002B0186
:1002F0002B134B0000000000E4004F00520051009F
:10030000500000000000A800A900AA004F0400004F
:1003100000000000E2000100280000DA0281FFD99D
:10032000F1DB20A4A62EAF00A0C0D30000A1C8D34B
:100330000000AED580A81F408D142000556E646566
:10034000660041646A757374005261697365004C9C
:100350006F7765720044656661756C74004C6179F5
:1003600065723A20003A002C206B00780080818270
:10037000838485868788898A8B8C8D8E8F909192D5
:100380009394A0A1A2A3A4A5A6A7A8A9AAABACAD2B
:10039000AEAFB0B1B2B3B4C0C1C2C3C4C5C6C7C8A2
:1003A000C9CACBCCCDCECFD0D1D2D3D4000001019D
:1003B0000101010101010102020202020202020224
:1003C00003030303030303030404040404040405F4
:1003D00005050505060606060607070707070808B8
:1003E0000808090909090A0A0A0B0B0B0C0C0C0D69
:1003F0000D0D0E0E0E0F0F0F101011111112121302
:10040000131414151516161717181819191A1A1B7C
:100410001B1C1D1D1E1E1F202021222223242425DB
:100420002626272829292A2B2C2D2D2E2F30313214
:1004300032333435363738393A3B3C3D3E3F404124
:1004400042434445464748494A4C4D4E4F5051530C
:1004500054555658595A5B5D5E5F616264656668C3
:10046000696B6C6D6F7072737577787A7B7D7E8047
:1004700082838587888A8C8E8F91939596989A9C93
:100480009EA0A2A3A5A7A9ABADAFB1B3B5B7BABCA7
:10049000BEC0C2C4C6C9CBCDCFD1D4D6D8DBDDDF78
:1004A000E2E4E7E9EBEEF0F3F5F8FAFDFF00AF0068
:1004B000AE05010980A101850319012AB7001501C4
:1004C00026B700950175108100C0050C0901A10136
:1004D000850419012AA002150126A00295017510B4
:1004E0008100C005010906A1018506050719E0295B
:1004F000E7150025019508750181020507190029F6
:10050000EF1500250195F0750181020508190129F3
:1005100005950575019102950175039101C00501CD
:100520000906A101050719E029E71500250195082D
:10053000750181029501750881010507190029FFE0
:10054000150026FF00950675088100050819012988
:100550000515002501950575019102950175039119
:1005600001C009023B00020100A0FA0904000001D9
:100570000301010009211101000122440007058146
:100580000308000109040100010300000009211112
:10059000010001226D000705820320000112010005
:1005A0000200000008534601000100010200010C96
:1005B0000343006F0072006E0065000000100366C8
:1005C000006F006F007300740061006E0000000493
:1005D0000309040000000000003E5B4F5B3E003E4C
:1005E0006B4F6B3E001C3E7C3E1C00183C7E3C1852
:1005F000001C577D571C001C5E7F5E1C0000183CD1
:10060000180000FFE7C3E7FF00001824180000FFF0
:10061000E7DBE7FF0030483A060E00262979292655
:1006200000407F05050700407F05253F005A3CE755
:100630003C5A007F3E1C1C0800081C1C3E7F001416
:10064000227F2214005F5F005F5F0006097F017F49
:1006500000006689956A0060606060600094A2FF97
:10066000A2940008047E04080010207E20100008D8
:10067000082A1C0800081C2A0808001E1010101068
:10068000000C1E0C1E0C0030383E383000060E3EAA
:100690000E060000000000000000005F00000000E7
:1006A0000700070000147F147F1400242A7F2A12F9
:1006B00000231308646200364956205000000807E2
:1006C000030000001C224100000041221C00002AFF
:1006D0001C7F1C2A0008083E0808000080703000BB
:1006E00000080808080800000060600000201008EA
:1006F0000402003E5149453E0000427F4000007226
:1007000049494946002141494D33001814127F10D0
:10071000002745454539003C4A49493100412111EE
:10072000090700364949493600464949291E000053
:1007300000140000000040340000000008142241B2
:10074000001414141414000041221408000201596A
:100750000906003E415D594E007C1211127C007F5B
:1007600049494936003E41414122007F4141413ED5
:10077000007F49494941007F09090901003E414183
:100780005173007F0808087F0000417F410000206E
:1007900040413F01007F08142241007F404040401B
:1007A000007F021C027F007F0408107F003E414151
:1007B000413E007F09090906003E4151215E007F4C
:1007C000091929460026494949320003017F0103DE
:1007D000003F4040403F001F2040201F003F403866
:1007E000403F0063140814630003047804030061AD
:1007F00059494D4300007F41414100020408102047
:1008000000004141417F00040201020400404040D9
:100810004040000003070800002054547840007F47
:100820002844443800384444442800384444287F4D
:100830000038545454180000087E0902001824247B
:100840001C78007F080404780000447D40000020EC
:1008500040403D00007F102844000000417F4000E0
:10086000007C04780478007C080404780038444450
:100870004438007C1824241800182424187C007C98
:10088000080404080048545454240004043F442439
:10089000003C4040207C001C2040201C003C40309C
:1008A000403C004428102844004C9090907C004428
:1008B00064544C44000008364100000000770000FA
:1008C000000041360800000201020402003C262319
:1008D000263C0000000000000000000000000000B6
:1008E000000000C0E0F0F8F81800C0F0FCFEFFFFC8
:1008F000FFFFFFFFFF7E00000000000000000080FF
:10090000C0E0E0E0E0E0E0E0E0C080000000008067
:10091000C0E0E0E0E0E0E0E0E0C080000000E0E017
:10092000C0C0E0E0E0E00000E0E0C0C0E0E0E0E007
:10093000E0C0800000000080C0E0E0E0E0E0E0E037
:10094000E0C0800000000000000000000000000087
:1009500000E0F0F0F0E0ECEEF7F37020007C7C7C3F
:100960007E007E7E7E7F7F7F000080C0E07E5B4FCA
:100970005BFEC00000C000DCD7DEDEDED7DC00C0DE
:100980000000000000000000000000000000000067
:10099000000000000000000000000000F8FCFEFF66
:1009A000E000FFFFFFFFFFFF80FFFFFFFFFFFFFFF4
:1009B000FFFF1F0701000000000000000000FFFF14
:1009C000FF8100000000000081C3C3C30000FFFFDF
:1009D000FF8100000000000081FFFFFF0000FFFF1B
:1009E000FF01000000000000FFFFFF010000000009
:1009F00001FFFFFF0000FFFFFF9D1C1C1C1C1C1CB7
:100A00009DDFDFDF000000000000000000000000AC
:100A1000000F1F3F7F7F7F7F7F3F1E0C001F1F1F28
:100A20003F003F3F3F7F7F7F00307B7F783020203B
:100A300030787F3B0003000F7F0F0F0F7F0F000305
:100A400000000000000000000000000000000000A6
:100A5000000000000000000000000000030F1F3F26
:100A60003F3F3F1F1F3F3F7F7F7F3F3F1F3F7F7FB6
:100A70007F7F7C7878381C0F0000000000000001A8
:100A80000307070707070707070301000000000126
:100A90000307070707070707070301000000070709
:100AA000070000000000000007070700000000002A
:100AB00000070707000000010307070707070707EC
:100AC000070301000000000000000000000000001B
:100AD0000000000000000000000000000000000016
:100AE0000000000000000000000000000000000006
:100AF00000000000000000000000000000000000F6
:100B000000000000000000000000000000000000E5
:100B10000000000011241FBECFEFDAE0DEBFCDBF22
:100B200012E0A0E0B1E0EAE1F4E502C005900D9228
:100B3000AA36B107D9F726E0AAE6B2E001C01D92B5
:100B4000A239B207E1F70E947F210C940B2A0C9482
:100B5000000090917F04937071F080938004609303
:100B60008104493708F048E74093820480917E046D
:100B7000816080937E040895482F20917A0490919B
:100B8000410457E0291302C080E0089530E0529FED
:100B9000F001539FF00D1124EE5BFB4F8181681330
:100BA00006C08081481303C085818111EECF2F5F7D
:100BB0003F4F2770E7CFFC01AC014C5F5F4F8FEFD9
:100BC00091E32191822728E030E087FF09C0880F58
:100BD000892721503109C9F7E417F50791F70895DE
:100BE000880FF7CFE8EDF0E080818E7F8083109250
:100BF000E2001092DA001092E100A0EEB0E08C91D9
:100C000081608C9380818F77808319BCA7EDB0E0E1
:100C10008C918E7F8C9380818F7E808310922C04A8
:100C200008952091E4003091E50085E69091EC0074
:100C300090FF06C09091E80090FF06C080E0089504
:100C40009091E80092FDFACF90913704992391F0AA
:100C5000953091F09091EB0095FD10C04091E4002B
:100C60005091E5002417350709F381509A01F1F6F8
:100C700084E0089582E0089583E0089581E0089576
:100C80008091390487FF13C08091E80082FF06C07D
:100C90008091E8008B778093E80004C0809137044E
:100CA0008111F2CF0895809137048823D9F3809180
:100CB000E80080FFF8CF8091E8008E77ECCF982F86
:100CC0009093E900242F762F50E0891731F070912E
:100CD000EC002091ED005091F00021FD07C09F5FD6
:100CE000973071F78093E90081E008953091EB002F
:100CF0003E7F3093EB003091ED003D7F3093ED006F
:100D00003091EB0031603093EB007093EC00209356
:100D1000ED005093F0002091EE0027FDE0CF80E041
:100D20000895B0E0A0E0E7E9F6E00C943929C8EDB9
:100D3000D0E088818F7E8883E7EDF0E0808181605C
:100D4000808384E082BF81E080932C0488818E7F41
:100D5000888302EE10E0F80110821092DA0081EE32
:100D6000C82ED12CF601108288818F7788838881E4
:100D70008068888388818F7D888319BC10923704AE
:100D800010923804109236041092350490EEE92E39
:100D9000F12CF70180818B7F80838881816088833B
:100DA00042E060E080E00E945F06F60180818E7F75
:100DB0008083F80180818160808380818860808366
:100DC000F70180818E7F8083888180618883CDB7A1
:100DD000DEB7E8E00C945529FC0180913F04909126
:100DE000400486179707A0F06115710529F49091CA
:100DF000E8009E779093E80090E06115710551F44A
:100E0000911108C08091E80082FF35C080E008950C
:100E1000BC01F2CF809137048823C9F18530C9F134
:100E20008091E80083FD31C08091E80082FDEACF27
:100E30008091E80080FFE1CF2091F3008091F200E3
:100E4000322F282F6115710519F02830310558F01F
:100E500091E02830310509F090E02091E8002E77EC
:100E60002093E800CACF81918093F100615071090D
:100E70002F5F3F4FE7CF80913704882341F08530C3
:100E800041F08091E80083FFBDCF81E0089582E0CA
:100E9000089583E00895089587E797E79093010800
:100EA0008093000888E19AE00FB6F894A8958093A3
:100EB00060000FBE90936000FFCF2FB7F894609151
:100EC00028047091290480912A0490912B042FBF4B
:100ED0000895809144010895909145019130D1F495
:100EE0009091250497FF16C0E82FE695E695E695C4
:100EF000EE31D8F4F0E0EC58FD4F282F277081E058
:100F000090E001C0880F2A95EAF7809592818923A5
:100F100082830895ECE6F2E09281891301C0128287
:100F2000319692E0E237F907B9F7089590914501BB
:100F30009130C1F49091250497FF14C0E82FE695F5
:100F4000E695E695EE31F8F4F0E0EC58FD4F877049
:100F500021E030E001C0220F8A95EAF78281822BDE
:100F600082830895AEE6B2E0EFEF90E02D91821714
:100F700051F0EF3F19F4211101C0E92F9F5F963026
:100F8000A9F7EF3F09F408950E2E000CFF0BE4596A
:100F9000FD4FE6CFA3E0B0E0E0EDF7E00C943F2991
:100FA000209123043091240428173907A1F090934D
:100FB000240480932304E0912104F09122043097CB
:100FC00051F024E029839B838A830084F185E02DFE
:100FD000CE01019609952396E2E00C945B29A3E0EB
:100FE000B0E0E5EFF7E00C943F2920911F04309129
:100FF000200428173907A1F09093200480931F0440
:10100000E0912104F0912204309751F023E02983EC
:101010009B838A830084F185E02DCE01019609959A
:101020002396E2E00C945B2980911D04882359F0FB
:10103000E0912104F0912204309729F00190F08191
:10104000E02D0995089580E00895FC01EE0FFF1F43
:10105000E80FF91FE558FC4F618340832283089510
:10106000539A0895EFE7F4E0248130E1231B08F45C
:1010700020E0248380917E04816080937E04089523
:10108000EFE7F4E0248130E1230F08F42FEF24830D
:1010900080917E04816080937E040895EFE7F4E000
:1010A000438120E1421B08F440E08181628190E0AD
:1010B0000E94A9050895EFE7F4E0438120E1420F83
:1010C00008F44FEF8181628190E00E94A9050895A4
:1010D000EFE7F4E0628120E1621B08F460E08181C7
:1010E000438190E00E94A9050895EFE7F4E0628152
:1010F00020E1620F08F46FEF8181438190E00E944C
:10110000A9050895EFE7F4E0818143816281885069
:10111000990B0E94A9050895EFE7F4E0818190E022
:101120004381628108960E94A905089580917F04F9
:10113000837051F0846080937F041092420180910B
:101140007E04816080937E04089580917F04837083
:1011500051F0846080937F041092420180917E045C
:10116000816080937E040895EFE7F4E0808191E050
:10117000892780831092420180917E048160809350
:101180007E0408959BE0899F802D1124980F97334A
:1011900008F096E320911E04222321F09C3128F0D0
:1011A0009BE108958B3108F48BE10895FF920F9332
:1011B0001F93CF93DF93182F062FF42ED0E0C0E0BB
:1011C000CE0120911E04211103C0CB3108F04B97B2
:1011D0002F2D402F612F0E9425082196C633D1055F
:1011E00079F7CDB7DEB7E5E00C94582980E0089593
:1011F000F894E82FE295EF70F0E031A1282F2F70DE
:1012000081E090E001C0880F2A95EAF7982F909529
:10121000932391A392A1892B82A3789408950F938D
:101220001F9380911D04882329F00E945D071F9160
:101230000F9108950E945D0700911A0310911B03FE
:1012400020911C0330911D03600F711F821F931F9B
:10125000EECF9091250492FF10C041E0282F247119
:10126000243009F040E031E0282F2871283009F0BF
:1012700030E0431711F02CE0822793FF10C041E0CB
:10128000282F2471243109F040E031E0282F287103
:10129000283109F030E0431711F02CE0822730911B
:1012A000260430FF10C051E0282F2171213009F0B1
:1012B00050E041E0282F2871283009F040E0541711
:1012C00011F029E0822731FF10C041E0282F217161
:1012D000213109F040E031E0282F2871283109F050
:1012E00030E0431711F029E0822794FD877E0895AE
:1012F00082389105B9F1B0F48133910509F47DC0CC
:1013000048F48932910509F46DC08A32910509F4D7
:1013100079C008958533910509F45FC0893391053B
:1013200009F10895833E9105D9F138F4803E910585
:1013300029F1823E910579F10895863E9105D9F112
:10134000873E910509F43EC0843E910541F5209108
:10135000260421FF24C08091250484FD19C087EE56
:1013600090E0089520912504237009F056C0209143
:10137000260423FF14C089E290E0089520912504FB
:1013800020FD38C03091260430FF09C024FF3FC043
:1013900090E080E008952091250422FDF7CF089584
:1013A0002091250422FD36C03091260430FD35C041
:1013B00024FDEECFF4CF2091250423FFF0CF24FDB0
:1013C000E7CFCDCF2091250423FD2AC030912604FC
:1013D00031FFEECF84EE90E008952091250425FDA5
:1013E000CACF08952091250425FD1DC02091260413
:1013F00023FFD5CF89E390E008952091250426FDB1
:1014000015C008952091250426FD13C0089583EE8C
:1014100090E0089582EE90E0089580EE90E00895C7
:1014200086EE90E0089585E390E008958AE290E0EA
:10143000089581E390E0B3CF7830B8F46630A8F433
:101440008430B0F4E62FF0E096E0799FE00DF11DD6
:10145000112490E3899FE00DF11D1124EE0FFF1F71
:10146000E656FE4F85919491089580E090E00895AE
:1014700081E0FCCF1F93CF93DF930E947809EC01AA
:10148000C11580E5D807E8F5C11580E4D80708F054
:101490009BC0C03ED10518F5CD3CD10508F081C0F8
:1014A000C83AD10570F4C53AD10508F072C0C13010
:1014B000D10511F118F0C430D105F0F4D0E0C0E04E
:1014C0001BC0C33CD105D0F7C85AD0E0CC0FDD1FFC
:1014D000C35BDE4F0990D881C02DD4640DC0C11507
:1014E00080E2D80708F0CBC0C11581E0D80708F02A
:1014F0005AC0C83ED10510F7CE01DF91CF911F91A0
:101500000895C03682E5D80718F5C03482E5D807BB
:1015100008F069C0C03282E5D80708F05DC0C11587
:1015200082E5D80708F493C02C2F2695269580E2F3
:10153000289F900111248C2F8370C1E0D0E002C05D
:10154000CC0FDD1F8A95E2F7C22BD32BDD68D4CFF9
:10155000C03A82E5D80760F4C03882E5D80708F4BD
:1015600057C0CF71D0E0DC2FCC27C46FD06AC4CF76
:10157000C03C82E5D80708F45EC0C03E82E5D807CB
:1015800008F09CCFDC2FCC27CC27DF71C06FD06A4E
:10159000B3CFC55AD0E0C65BDE4FC881D0E0D0647F
:1015A000ABCFD065A9CF8D2F0E942909182FCE016E
:1015B00099270E947809C12FD0E0DC2FCC27CC27B7
:1015C000DF71C82BD92B98CFCE0199270E947809BB
:1015D000CC27DF70D06AF5CFCF71D0E0DC2FCC27DD
:1015E000C16FD06A89CF2C2F26952695277080E26F
:1015F000289F900111248C2F8370C1E0D0E002C09D
:10160000CC0FDD1F8A95E2F7DC68C22BD32B74CF99
:101610002C2F26952695277080E2289F9001112473
:101620008C2F8370C1E0D0E002C0CC0FDD1F8A9503
:10163000E2F7DA68EACF8C2F8F710E942909C82F50
:10164000D0E0DC2FCC27CC27DF71D06255CF8C2F98
:101650008F710E94290955E0D695C7955A95E1F7F3
:10166000CF70D0E0DC2FCC27282F30E084FF05C0DE
:1016700044E0220F331F4A95E1F7D069C6CF8D2F82
:101680008F710E942909182FCE0199270E9478098D
:10169000C12FD0E0DC2FCC27CC27DF71906291CF17
:1016A000982F90958091E20289238093E202089519
:1016B0008091E2029091B902892B9091B80299230E
:1016C00091F0892B90914501913071F4909125040E
:1016D00097FF0AC09EE1E6E7F2E020E0915040F477
:1016E00021111092B802089596E0EEE6F2E0F5CFEF
:1016F0003191332399F32F5FF1CF80917A04909148
:101700004104981301C008958F5F8770FACFB0E04D
:10171000A0E0EDE8FBE00C9438297C0100913B034C
:1017200010913C038091280390912903082B192BD9
:10173000CFE0D0E0CC24C394D12CBC2EC6010C2E1B
:1017400002C0880F991F0A94E2F780239123892B06
:1017500049F4219790F7B12C8B2DCDB7DEB7E9E096
:101760000C945429B7018C2F0E941C0A0E943A0A3B
:10177000019779F3F1CFCF93DF93EC010E94870BB0
:10178000BE010E941C0A0E943A0ADF91CF9108957F
:10179000983078F5863068F5E82FF0E086E0989F7D
:1017A000E00DF11D11249E2F977083E0F695E795CB
:1017B0008A95E1F7EE0FFF1FEE0FFF1FE856FD4F72
:1017C00050E040E080E0219130E0092E02C03695E3
:1017D00027950A94E2F721703327042E01C0220FC7
:1017E0000A94EAF7822B4F5F5F4F4430510559F757
:1017F000089580E00895983098F5863088F5E82FB0
:10180000F0E086E0989FE00DF11D11248E2F877087
:1018100041E001C0440F8A95EAF783E0F695E79529
:101820008A95E1F7EE0FFF1FEE0FFF1FE856FD4F01
:1018300030E020E070E05191DF011197CB01022EE2
:1018400002C0969587950A94E2F781708195852765
:10185000842385278C932F5F3F4F2430310559F720
:10186000089590933C0380933B03089521E030E07A
:1018700002C0220F331F8A95E2F7209530958091A0
:101880003B0390913C03822393230E94310C0895E3
:101890009091B702809589238093B702282F2770F3
:1018A00069F4891759F09091260492FF07C0869534
:1018B000869586950E94360C1092B702089521E015
:1018C00030E002C0220F331F8A95E2F780913B037C
:1018D00090913C03822B932B0E94310C089590939E
:1018E0002903809328030895FC0124812223B9F061
:1018F000808191810E94BB0B92959F70963089F0F8
:1019000050F49250923058F4803F19F030F4883EF1
:1019100030F481E008959A50F5CF843FD1F380E010
:101920000895883EB0F3813FD1F7F3CFA6E0B0E051
:10193000ECE9FCE00C943E2949835A8349815A81A1
:101940009923A1F0222391F0CA010E94870B182F3E
:10195000682F89819A810E94FB0B69817A81812F8E
:101960000E941C0A2696E3E00C945A29CA010E94A0
:10197000C80B182FF2CFCF93DF93682F81E06A3026
:1019800019F06D3031F480E00E944A0DDF91CF9163
:101990000895809190069091910626E0FC01AAE8B6
:1019A000B6E001900D922A95E1F7603E08F459C027
:1019B00026E0FC0111922A95E9F7C0919006D0919A
:1019C000910646E050E0BE018AE896E00E94F529C3
:1019D000892B59F1CE018A5894409C0145E03695F7
:1019E00027954A95E1F741E050E0BA0102C0660F41
:1019F000771F2A95E2F79B01609188047091890412
:101A0000262B372B059665E0969587956A95E1F725
:101A1000FA0102C0EE0FFF1F8A95E2F7CF01822B79
:101A2000932B90938904809388049E01245834401A
:101A300040918704642F70E0C9010E941B29481B54
:101A4000463010F4240F311D2115F2E03F0710F04D
:101A500030E020E026573B4F3093910620939006CC
:101A600095CFF6E06F9FB00111246D527A4F46E09A
:101A700050E00E946629A1CFCF93DF93EC01FE01D5
:101A80008491811103C0DF91CF9108950E94BB0C16
:101A90002196F5CFCF93382FE0919006F0919106E3
:101AA000EA58F44020918704622F70E0CF010E9431
:101AB0001B29281B822F332361F066E00E94C12975
:101AC000C82FC15010F4CF91089580E20E94BB0C42
:101AD000F8CF9F01280F311D2115324018F080E00A
:101AE000F0E0E0E08E0F9F2F911D86579B4F909363
:101AF000910680939006E7CF0E943C0D81E00E9402
:101B00004A0D089580914501813059F58091250451
:101B100087FF27C00E94580B8093750240E250E077
:101B20006AEB72E084E792E00E94F529892BC1F00C
:101B300080E2E4E7F2E0AAEBB2E001900D928A9530
:101B4000E1F7E0912104F0912204309749F086E01A
:101B5000809374020480F581E02D84E792E009957A
:101B600008950E94580B80936C0248E050E06AEDA3
:101B700072E08CE692E00E94F529892B89F388E0D7
:101B8000ECE6F2E0AAEDB2E001900D928A95E1F761
:101B9000E0912104F0912204309711F30280F38147
:101BA000E02D8CE692E0DBCF1092E20280914501BD
:101BB0008130C1F48091250487FF14C0E6E7F2E08C
:101BC0008EE1DF011D928A95E9F790E080E00E94A6
:101BD000EF0790E080E00E94CA071092B9020E94CD
:101BE000820D0895EEE6F2E086E0EBCFAAE2B0E0E7
:101BF000ECEFFDE00C943E29E9E3F4E08091F10084
:101C0000819324E0E134F207C9F780913A048330EC
:101C100009F47DC008F5813009F454C0823009F41C
:101C2000C2C08091E80083FFFCC08091390490918C
:101C30003A049A3008F0F5C0E92FF0E0EE5DF14F7C
:101C40000C94EF29E40E0A0F110F0A0F110F620F07
:101C5000840F110F82108F108A3009F493C08B30DB
:101C600009F472C08930E9F6809139048132C9F6ED
:101C700080913D0490913E04029798F68091E8008F
:101C8000877F8093E8008091E80082FF3BC08091CD
:101C9000F3009091F200892798278927029731F461
:101CA0008091F100813011F0863021F48091F100B3
:101CB000809344018091E8008B778093E8000E9434
:101CC0004006AFCF80913904813A09F0AACF8091C4
:101CD000E800877F8093E80080913D0490913E0466
:101CE000892B61F060E090E080E070E00E94EC06FB
:101CF0008091E8008B778093E80093CF68E08DE2D5
:101D000094E0F3CF809137048111BDCF8ACF8091C9
:101D10003904813A09F085CF80913D0490913E04C9
:101D2000892B09F07ECF8091E800877F8093E800BF
:101D30008091E80080FFFCCF809145018093F10005
:101D40008091E8008E77B9CF80913904813209F013
:101D500068CF80913D0490913E04892B09F061CFBA
:101D60008091E800877F8093E8000E94400681E030
:101D700090913B04911101C080E0809345010E9445
:101D8000D40D4FCF80913904813209F04ACF809130
:101D9000E800877F8093E8000E94400680913C0421
:101DA000809343013ECF80913904813A09F039CFC5
:101DB0008091E800877F8093E8008091E80080FFB1
:101DC000FCCF80914301BACF803889F0823849F541
:101DD00080913D048F70873020F58093E9008091D9
:101DE000EB0085FB882780F91092E90006C08091FE
:101DF000350490913604911182609091E800977FAC
:101E00009093E8008093F1001092F1008091E80037
:101E10008E7727C0282F2D7F21F48823A1F08230D0
:101E200029F18091E80083FF0AC08091E800877F54
:101E30008093E8008091EB0080628093EB00AA968B
:101E4000E3E00C945A2980913B04813051F79330A0
:101E500009F080E0809336041092E9008091E80058
:101E6000877F8093E8000E944006DBCF80913B048F
:101E70008111F2CF80913D048F702FEF280F263013
:101E800080F68093E9002091EB0020FFE5CF9330AE
:101E900031F48091EB0080628093EB00DDCF909174
:101EA000EB0090619093EB0021E030E001C0220F45
:101EB0008A95EAF72093EA001092EA008091EB00FD
:101EC0008860EACF8111ADCF10913B041F778091DC
:101ED000E3008078812B8093E3008091E800877F86
:101EE0008093E8000E9440068091E80080FFFCCFCC
:101EF0008091E30080688093E30083E0111101C0CA
:101F000082E0809337048DCF8058823008F089CFEB
:101F100080913B0490913C048C3D23E09207A1F515
:101F200083E08A838AE289834FB7F894DE011396AF
:101F300020E03EE051E2E32FF0E050935700E491BF
:101F400020FF03C0E295EF703F5FEF708E2F90E0AF
:101F5000EA30C0F0C7968D939D932F5F243159F7D7
:101F60004FBF8091E800877F8093E8006AE270E0CD
:101F7000CE0101960E94EC068091E8008B77809359
:101F8000E8004FCFC096E7CF40913D0450913E040A
:101F9000292F33272330310509F443C078F5213048
:101FA000310509F46DC08BE390E0E2E6F5E0223004
:101FB000310509F036CF2091E800277F2093E80013
:101FC00020913F04309140048217930708F49C014C
:101FD00040E02115310509F062C0411160C08091D7
:101FE000E80082FDC9CF80913704882329F285302B
:101FF00019F28091E80083FFF2CFBECF2132310584
:1020000099F12232310509F00CCF4115510509F43F
:1020100041C08DE690E0E1EBF4E04130510559F22A
:1020200000CF992781309105B9F058F0029709F057
:10203000F8CEEFEAF5E0E4918E2F90E0EFEAF5E0DC
:1020400007C0EFECF5E0E4918E2F90E0EFECF5E0C7
:10205000009709F4E6CEAFCFEDEBF5E0E4918E2FDB
:1020600090E0EDEBF5E0F4CF4115510571F089E01A
:1020700090E0EDE8F5E04130510509F49CCFD1CE78
:1020800082E190E0EDE9F5E096CF89E090E0E4E7C9
:10209000F5E091CF84E490E0EEE1F5E08CCF809123
:1020A0003704882309F468CF853009F465CF80911F
:1020B000E80083FD61CF8091E80082FD90CF8091A0
:1020C000E80080FF86CF8091F3009091F20089278D
:1020D000982789272115310519F08830910550F08E
:1020E00041E0089709F040E08091E8008E77809306
:1020F000E8006FCF44914093F100319621503109AF
:102100000196E8CF803809F08CCE8091E800877F77
:102110008093E800809138048093F10077CE81119C
:1021200080CE10913B04123008F07BCE8091E80005
:10213000877F8093E800109338040E9440061123A3
:10214000A9F084E08093370442E061EC81E00E94D2
:102150005F0642E261EC82E00E945F0680913704F4
:10216000843051F482E0809346015BCE8091E3009D
:1021700087FDE7CF81E0E6CF81E0F5CF882321F02E
:102180000E94500B0E94820D0895882339F090918F
:10219000E202892B8093E2020E94820D0895882337
:1021A00039F19CEF980F913A28F40E946C070E9435
:1021B000820D089590E2980F983050F4877091E066
:1021C00001C0990F8A95EAF7892F0E94500BEFCF33
:1021D0009BE5980F933028F490E080E00E94EF0791
:1021E0000895885A8B3120F490E080E00E94CA075D
:1021F0000895CF938823B9F1C82F8CEF8C0F813AC3
:10220000A0F580914501813001F58091250487FF7B
:102210001CC0EC2FE695E695E695F0E0EC58FD4FF6
:10222000828190E04C2F477021E030E002C0220F05
:10223000331F4A95E2F782239323892B79F08C2F61
:102240000E946C070E94820D09C0EEE6F2E08191C7
:10225000C817A9F382E0E437F807C9F78C2F0E946A
:1022600096070E94820DCF91089580E28C0F8830EE
:1022700068F4C77021E030E001C0220FCA95EAF788
:102280008091E202822B8093E202EBCFEBE5EC0F30
:10229000E33040F4F0E0E65BFE4F808190E00E9486
:1022A000EF07E1CFC85ACB31F0F6EC2FF0E0EE0F9C
:1022B000FF1FE35BFE4F808191810E94CA07D3CF4D
:1022C0000F931F93CF93DF938B01EA019091370413
:1022D000943061F58093E9008FEF9091E800815090
:1022E00095FD06C095ED9A95F1F700008111F5CFA7
:1022F0008091E80085FF1AC00E941106811111C06B
:102300008091E80085FD06C08091E8008E7780937B
:10231000E800F2CFF80181918F018093F1002197BD
:1023200079F78091E8008E778093E800DF91CF9174
:102330001F910F91089543E050E0BC0182E00E949C
:102340006011089540E250E0BC0182E00E946011FB
:102350000895CF93DF93EC0148E050E0BC0181E0A9
:102360000E94601188E0FE01ADE2B4E001900D92A0
:102370008A95E1F7DF91CF9108958BB1877F9BB16B
:1023800098602FB7F894EBE7F3E034E0ED31F30712
:1023900041F42FBF8FE594E00197F1F700C00000F2
:1023A0000895319148E09BB9000000C037FF8BB918
:1023B000330F000000C000C000C08BB900C04A95B8
:1023C00091F7E3CFB0E0A0E0E8EEF1E10C9437291B
:1023D0007C015B016A018091190301E010E08A3001
:1023E00010F40AE010E0C1E0D0E0B501C701F60149
:1023F0000995811104C021960C171D072CF4CDB747
:10240000DEB7EAE00C945329CC9F9001CD9F300DAC
:10241000300D112490E080E045E34A95F1F700008B
:10242000019682179307C1F7E0CF0E94D40D2FEFDA
:1024300084E39CE0215080409040E1F700C0000020
:1024400088E19AE00FB6F894A895809360000FBEDB
:1024500090936000FFCFAB0124E630E0BC0188E739
:102460000E94CE2621E0892B09F020E0822F0895DA
:102470008091790390917A03911103C091E08927AB
:102480000895882369F062E070E08FEA94E00E948A
:102490002B12811103C08091790308951092790362
:1024A00080917903EBCFCF93C091790380917A0328
:1024B0008823D1F00E945D07605A75418F4F9F4F6E
:1024C00060937503709376038093770390937803FA
:1024D000C11108C062E070E08DEA94E00E942B1206
:1024E000811105C0C09179038C2FCF91089581E0AF
:1024F00080937903F7CFB0E0A0E0E1E8F2E10C943B
:1025000035290E940F0960936D0370936E038093C9
:102510006F039093700330917F04232F2370132F48
:1025200016951695211101C010E02091420121302D
:10253000D1F058F0223009F417C1233009F41EC13C
:10254000CDB7DEB7ECE00C94512910923F016093B7
:10255000710370937203809373039093740381E00B
:1025600080934201EDCF90913E0181E019130BC0A1
:10257000832F837020913D0130E091E08217130694
:1025800009F490E0892F8170809341018091840447
:1025900090914001981739F08093400140E060E04D
:1025A00080E00E94D608112341F0113089F080911B
:1025B0003F018F5F80933F0133C0809141018823A9
:1025C00041F140E060E080E00E94D60880E021C058
:1025D00080913F010E94C2086C018090800440916C
:1025E0008104E0918204F0E0E355FC4F411128C0E2
:1025F000C4910C2FDC2FEC2CF12C20911E04ED1437
:1026000008F490C081E0222309F4A6C09AE19D1548
:10261000E8F290913F019F5F90933F018111A1C02B
:1026200082E0809342018091410181119AC011237F
:1026300009F4A2C080913F0181500E94C20880CF5E
:10264000E42EF12CD4919D2EED2FF0E026E0829E19
:10265000C00111242FEF30E0B9010E941B29882D01
:1026600090E0880F991F55E5569FD001579FB00DF8
:1026700011248A1B9B0B882E880C880ED901AE1959
:10268000BF09AE9FC001AF9F900DBE9F900D11245A
:10269000092F489DA0011124452F5527D901A41BBE
:1026A000B50BAE9F5001AF9FB00CBE9FB00C112474
:1026B000CB2DD901A819B109AE9DA001AF9D500D38
:1026C000BE9D500D1124452F5527241B350B2E9FE1
:1026D000A0012F9F500D3E9F500D112462307105B7
:1026E000B1F058F46115710579F06130710509F4A4
:1026F00082CFCD2FD92F0B2D7ECF6430710571F095
:1027000048F066307105A9F7CD2FD52F74CFC92FAA
:10271000052F71CFC92F0D2FDB2D6DCFD92F092D8F
:10272000C52F69CFF701D701AD5CBD4F9C9180915A
:102730004001982369F0211105C0BBE1EB16F104BB
:102740000CF07B97202F4D2F6C2FCF010E94250876
:102750002FEFE21AF20A51CFA5E3AD1508F059CFD9
:1027600035CF111167CFECCE10933E01832F8370CC
:1027700080933D010E94BD1183E0F2CE80917E04E2
:10278000882351F048E050E067E170E08FE794E083
:102790000E948D2910927E04C0907103D090720324
:1027A000E0907303F090740380911D048823C1F0BE
:1027B0002FB7F894609128047091290480912A041D
:1027C00090912B042FBF6C197D098E099F096031F0
:1027D00071058105910508F4B3CE10924201B0CE87
:1027E0000E940F09F0CF9091260492FB222720F936
:1027F000281779F080FB92F99093260460912504C4
:102800007091260484E090E00E94BB2982E00E943F
:10281000480C0895A4E0B0E0E0E1F4E10C943E2916
:1028200040911103509112036091130370911403AE
:102830002FB7F8948091280490912904A0912A043C
:10284000B0912B042FBF841B950BA60BB70B11E087
:1028500084369105A105B10570F10E940F096E5FE4
:102860007F4F8F4F9F4F69837A838B839C838091A7
:10287000190190911A0185509D4F4091180150E027
:102880004530510510F044E050E0BE016F5F7F4FCE
:102890000E94022A83E090E00E94A428182F882337
:1028A00051F00E945D0760931103709312038093AF
:1028B000130390931403812F2496E3E00C945A2978
:1028C000EF92FF921F93CF93DF9300D000D01F921F
:1028D000CDB7DEB77B0190E080E00E94A428182FDE
:1028E000882309F470C04091030150E0411551055F
:1028F00011F041E050E060910401709105016550D4
:102900007D4FCE0105960E94022A4091F30250911C
:10291000F4026091F5027091F6022FB7F89480915D
:10292000280490912904A0912A04B0912B042FBF70
:10293000841B950BA60BB70B84369105A105B10539
:1029400038F48CEF92E00E94DB059D818917D9F164
:1029500081E090E00E94A428182F882391F04091F4
:102960000B0150E04530510510F044E050E060911B
:102970000C0170910D0165507D4FCE0101960E94B2
:10298000022A8CEF92E00E94DB0591E02D81281352
:1029900090E0192331F10E945D076093F302709378
:1029A000F4028093F5029093F60289819A81AB81BB
:1029B000BC818093EF029093F002A093F102B09358
:1029C000F20211E00EC08091FC029091FD02A091F4
:1029D000FE02B091FF0289839A83AB83BC831111FD
:1029E000E4CF8091EF029091F002A091F102B091BA
:1029F000F202F70180839183A283B383812F0F902A
:102A00000F900F900F900F90DF91CF911F91FF903B
:102A1000EF900895B0E0A0E0E0E1F5E10C943529F5
:102A2000FB0180809180A280B3809FB7F894C09012
:102A30002804D0902904E0902A04F0902B049FBF32
:102A4000C818D908EA08FB0894E6C916D104E104BD
:102A5000F10418F4C1E0442341F1C82F880FDD0BC5
:102A6000DE0183E0AA0FBB1F8A95E1F7A050BF4F9C
:102A700011968D919C91129785509D4F4C9150E0ED
:102A80000417150708F4A801B9018F010E94022A52
:102A9000CE010E94A428C82F882339F00E945D0728
:102AA000F80160837183828393838C2FCDB7DEB767
:102AB000ECE00C945129A9E0B0E0E1E6F5E10C94DA
:102AC0003D2988E0EFE7F4E0DE01119601900D92D8
:102AD0008A95E1F7198649E050E068E073E0CE019D
:102AE00001960E94F52941E0892B09F440E009E0B4
:102AF00010E09E012F5F3F4F65E173E084E00E948C
:102B00000A152996E4E00C9459290F931F93CF934B
:102B1000DF93EC0144E050E060E073E00E94F529AF
:102B200041E0892B09F440E004E010E09E0167EFEA
:102B300072E082E00E940A15DF91CF911F910F9100
:102B400008951F93CF93DF93182FEB010E94F91084
:102B5000209739F4812F0E94CF10DF91CF911F91E0
:102B600008958FE99FE00197F1F700C000002197D9
:102B7000EFCF1F920F920FB60F9211242F933F9316
:102B80004F935F936F937F938F939F93AF93BF9375
:102B9000CF93EF93FF93C091E900CF708091EC0049
:102BA0001092E9008091F000877F8093F000789484
:102BB0000E94F60D1092E9008091F00088608093E9
:102BC000F000C093E900FF91EF91CF91BF91AF91D9
:102BD0009F918F917F916F915F914F913F912F9135
:102BE0000F900FBE0F901F9018951F920F920FB667
:102BF0000F9211242F933F934F935F936F937F9383
:102C00008F939F93AF93BF93EF93FF938091E100D6
:102C100082FF09C08091E20082FF05C08091E1003F
:102C20008B7F8093E1008091DA0080FF24C0809147
:102C3000D80080FF20C08091DA008E7F8093DA0078
:102C40008091D90080FFA9C080E189BD82E189BD62
:102C500009B400FEFDCF81E08093370480912C04FD
:102C6000811109C00E94F2050E9491068091E20044
:102C700084608093E2008091E10080FF1AC080911F
:102C8000E20080FF16C08091E2008E7F8093E20018
:102C90008091E20080618093E2008091D8008062A0
:102CA0008093D80019BC85E08093370483E080933B
:102CB00046018091E10084FF2FC08091E20084FFF3
:102CC0002BC080E189BD82E189BD09B400FEFDCF42
:102CD0008091D8008F7D8093D8008091E1008F7E15
:102CE0008093E1008091E2008F7E8093E2008091EA
:102CF000E20081608093E20080913804882309F427
:102D000052C084E08093370480913704843009F402
:102D100052C081E0809346018091E10083FF2CC086
:102D20008091E20083FF28C08091E100877F80933B
:102D3000E10082E080933704109238048091E10032
:102D40008E7F8093E1008091E2008E7F8093E2008D
:102D50008091E20080618093E20042E060E080E0E8
:102D60000E945F068091F00088608093F00081E00F
:102D70008093460180934501FF91EF91BF91AF9100
:102D80009F918F917F916F915F914F913F912F9183
:102D90000F900FBE0F901F90189519BC109237041A
:102DA00010922C0468CF8091E30087FD02C081E07F
:102DB000A9CF83E0A7CF82E0ADCF78941F920F9286
:102DC0000FB60F9211248F939F93AF93BF9380916F
:102DD000280490912904A0912A04B0912B04019613
:102DE000A11DB11D8093280490932904A0932A0467
:102DF000B0932B04BF91AF919F918F910F900FBE15
:102E00000F901F9018959C014FB7F894809128045B
:102E100090912904A0912A04B0912B044FBF821BEA
:102E2000930B08952FB7F89480912804909129046A
:102E3000A0912A04B0912B042FBF08950F931F93E4
:102E4000CF93DF93C62FD42F122FFC0185818823C7
:102E5000A9F060937D040E94121790937C048093E4
:102E60007B04C77081E001C0880FCA95EAF70E9411
:102E7000C510DF91CF911F910F91089580917D042E
:102E8000681334C080917B0490917C040E940317E6
:102E9000803A910558F500E20D0FCD17B9F080E2A8
:102EA0008C0F883040F4C77081E001C0880FCA954C
:102EB000EAF70E94BE10083000F581E09D2F977060
:102EC00001C0880F9A95EAF70E94C51070E060E093
:102ED000812F0E94A115083060F6D77081E001C0F3
:102EE000880FDA95EAF70E94BE10C3CFC77081E061
:102EF00001C0880FCA95EAF7F6CF70E060E0812F35
:102F00000E94A115B6CFACE0B0E0E9E8F7E10C947F
:102F100032298E010F5F1F4F88E0D8011D928A95DC
:102F2000E9F785E8E82E81E0F82E680199E8692E36
:102F300091E0792EAA24A394B12C3FE8832E31E0AE
:102F4000932EF70181917F018F3F09F440C0F894DF
:102F5000E82FE295EF70F0E021A18F70A50102C08B
:102F6000440F551F8A95E2F7CA01922F982B91A31F
:102F700092A18095892382A3789400C0E9E8F1E0CA
:102F8000512C31E021912F3F09F4A0C0A22FA2952E
:102F9000AF70B0E090968C9190E02F7002C0959544
:102FA00087952A95E2F780FD91C0832F582A330F29
:102FB0008E169F0639F7F701319780818F3F11F008
:102FC0000E94F80850EA5A95F1F7D6015C92BFEFDB
:102FD000CB1ADB0A6E147F0409F0B3CF48E050E04F
:102FE000B8018EE193E00E94F529009741F028E0B6
:102FF000F801AEE1B3E001900D922A95E1F700915E
:10300000270310E0065D1C4F892B09F461C081E0A5
:103010008093E7020E9412179093E6028093E502E4
:10302000F12CE0901D04EE2009F4AEC019861A863A
:103030001B861C86809119038A3008F06DC040E61B
:1030400054E1BE01675F7F4FC8010E94E2118823EF
:1030500009F487C045E855E1BE01675F7F4FC801AD
:103060000E94E211882309F47CC04AE054E1BE01C9
:10307000675F7F4FC8010E94E211882309F471C085
:103080004BE555E1BE01675F7F4FC8010E94E21129
:10309000882309F466C0109219038091260390E0FA
:1030A00044E050E0BE01675F7F4F865D9C4F0E9409
:1030B000F52921E02093EE02892B09F044C0E12C90
:1030C0008E2D8F292C96EFE00C944E2980E06ECF48
:1030D000F090E702FF2009F4A3CF8091E5029091E0
:1030E000E6020E940317059708F49ACF44E050E0E7
:1030F0006EE173E0C8010E94F529892B59F084E044
:10310000EEE1F3E0D80101900D928A95E1F710927B
:10311000E70287CFF12CFBCF8091E8029091E90282
:103120000E940317843F914008F089CF8091EE02FE
:10313000882329F2FE01399684E0DF011D928A95E9
:10314000E9F71092EE02E0912603F0E0E65DFC4F15
:1031500089859A85AB85BC8580839183A283B3835F
:10316000AFCF809119038F3F19F08F5F80931903C0
:10317000809119038A3008F490CF0E94121790931F
:10318000E9028093E802D2CFC0902603D12CF60149
:10319000E65DFC4F6F0184E0F801ACEFB2E0019016
:1031A0000D928A95E1F78CEF92E00E94DB05809307
:1031B000FB0284E0E0E0F3E0D60101900D928A95F5
:1031C000E1F78090040390900503A0900603B0906F
:1031D00007038091EA029091EB02A091EC02B0917A
:1031E000ED0288169906AA06BB06B1F08092EA02A3
:1031F0009092EB02A092EC02B092ED020E945D0769
:10320000861A970AA80AB90A80921A0390921B0399
:10321000A0921C03B0921D0388E0E8E0F3E0AFE762
:10322000B4E001900D928A95E1F74ACFB0E0A0E0BA
:10323000ECE1F9E10C943529FC018481882309F43F
:103240004DC08F0121E04081518162817381958160
:103250000E94960CEC01F8019581992309F466C54A
:1032600081818093470380818093460380E280932D
:103270003501D0934503C09344039E01305221157C
:10328000304288F5F8018681807F09F4D2C0FE01C2
:10329000FF27ED33F10528F4E455FF4FE491E09367
:1032A0003501C0342EE7D20709F0C3C00E941217BF
:1032B000909395028093940280EE0E94F910809181
:1032C000B702877059F0F8018581882339F0809121
:1032D000260482FF03C082E00E94480CCDB7DEB70F
:1032E000ECE00C9451299E0130542115304120F41A
:1032F000F8018681807F59F69E013A9521153F415C
:1033000030F29E01205A32452032310550F2FE0142
:10331000C0CF823039F42296FE0184910E94F910C8
:1033200021961AC5833031F42296FE0184910E94C1
:10333000CF10F6CF843009F07AC02296FE01249196
:1033400090E080E0FE0131962053330B2A303105A6
:1033500050F0009729F3EFE9FFE03197F1F700C053
:1033600000000197F6CF889EA001899E500D112480
:10337000C901840F951F2491EF01E4CFE22FF0E003
:10338000E85EFE4F9490822F86958695869590E014
:10339000FC01E85FFE4FC4902770D12C022E02C0C2
:1033A000D594C7940A94E2F7F1E0CF22DD24FC0122
:1033B000E850FF4FA490B12C022E02C0B594A79400
:1033C0000A94E2F731E0A322BB24FC01E851FF4F4D
:1033D000E490F12C02C0F594E7942A95E2F781E09D
:1033E000E822FF24C114D10419F081EE0E94F910E3
:1033F000A114B10419F086EE0E94F91070E060E0AB
:10340000892D0E94A115A114B10419F086EE0E9425
:10341000CF10C114D10419F081EE0E94CF10E11435
:10342000F10409F47DCF70E060E08CE2ABC4EF0101
:1034300077CFFE01E851FC47E730F10548F5ED5D37
:10344000F54E0C94EF29351A391A2A1A311A3D1AF9
:10345000411A451A26E241EE61EEC8010E941E178C
:103460002ECF27E245EE65EEF8CF26E241EE60EE84
:10347000F4CF27E245EE64EEF0CF26E241EE62EEB5
:10348000ECCF27E245EE66EEE8CF28E241E0EBCF55
:10349000992309F48BC410927D049E013057233286
:1034A000310508F072C484E090E00E94872990936F
:1034B000260480932504FE01E150F047E232F10535
:1034C00008F026C0EA59F54E0C94EF29C21A371BB2
:1034D000CA1A941A981ACE1A9C1AD21ADE1AA81A64
:1034E000301BAC1AE21AB01AE61A0E1BB41AEA1A0A
:1034F000151BBA1AF01AF81AA01AD61AA41ADA1A50
:10350000BE1AF41A041B1E1B2E1B8E1AC61A3E1B53
:103510008091250481608093250495C080912604C4
:103520008860809326048FC0809125048260F3CF49
:10353000809125048460EFCF809125048860EBCFD3
:10354000809126048160EDCF809126048260E9CFCE
:10355000809125048061DFCF809125048062DBCFDC
:10356000809125048064D7CF0E94D40D80912504DA
:103570008068D1CF809125048860DCCF80912604BB
:103580008260E0CF809125048E7FC5CF8091260494
:10359000877FC7CF809125048D7FBDCF8091250483
:1035A0008B7FB9CF80912504877FB5CF809126048A
:1035B0008E7FB7CF809126048D7FB3CF8091250475
:1035C0008F7EA9CF809125048F7DA5CF8091250482
:1035D0008F7BA1CF0E94D40D809125048F779BCF44
:1035E00080912504877FDCCF809126048D7FE0CFFA
:1035F0008091250482FB992790F921E0922790FB86
:1036000082F990FB83F987CF80912604982F9095BB
:1036100091708E7F892B90FB81F983CF9091250447
:10362000892F8F7B96FF806476CF0E94D40D909176
:103630002504892F97FB87F980586DCF61E08EE0D4
:1036400090E00E949D29609125047091260484E0F9
:1036500090E00E94BB290E94D40D31CE60E0EFCFF4
:1036600090912504892F8F7E94FF806154CF909193
:103670002504892F8E7F90FF81604DCF9091260485
:10368000892F877F93FF88604CCF809196028111AC
:103690000AC089E20E946C0703C085E30E94960776
:1036A0000E94820D0CCE85E3F5CF8272FE01E052BE
:1036B000F847EB30F10508F060C0EF59F44E0C9478
:1036C000EF296C1B6F1BA41B741BA91B791BAE1B62
:1036D0007E1BB31B831BB81B0E94B408F0CD88234C
:1036E000A9F10E949608EBCD8823A9F10E948208D7
:1036F000E6CD8823A9F10E946808E1CD8823A9F1CD
:103700000E944E08DCCD8823A9F10E943208D7CD53
:1037100080917F04837011F41092420180917F04A4
:103720008C7F816080937F0480917E048160809390
:103730007E04C5CD80917F04837011F01092420108
:1037400080917F048C7FEECF882359F20E94A508D8
:10375000B6CD882359F20E948C08B1CD882359F246
:103760000E947508ACCD882359F20E945B08A7CD52
:10377000882359F20E944008A2CD9E01205E324566
:1037800020323105A8F4911125C0CF7181E090E07D
:10379000FC0102C0EE0FFF1FCA95E2F7EF016E2F8A
:1037A00083E090E00E949D29CE010E946F0C87CD9E
:1037B000992381F0C330FCE7DF0709F484C008F0E7
:1037C00067C0C1153CE7D30709F470C0C130DC47BE
:1037D00009F47FC0F8018581C081D181882309F473
:1037E00086C0CE010E94870BF82E682FCE010E9462
:1037F000FB0BBE018F2D0E941C0A0E943A0AD82F93
:10380000C92FB82EF801D580C680C2943FE0C322EC
:103810008091B702877009F1ED2CDD20F9F0892F36
:10382000807F803469F080E28D0F8830B0F0892F7E
:10383000807E803229F4F1E0FD1778F4CC2069F025
:103840008091260482FF09C082E00E94480C80918A
:10385000B7028770EE24E3948111E12CFC2EF294E0
:103860002FE0F2222BE02F1508F4A6C0EF2DF0E098
:10387000E45CF34E0C94EF297C1C7C1CB41CB41C3F
:10388000531DDC1CDC1CDC1C741DFD1D0E1E0E1EDD
:10389000CB359CE7D90749F1CC35ECE7DE07D9F009
:1038A000CA35DC4709F096CF81E01CC00E94D40DD8
:1038B0002FEF34E38CE0215030408040E1F700C02E
:1038C00000000E944C076FEF7FEF90E080E00E94C5
:1038D000BB290E9415128091260482FB882780F95B
:1038E00091E089270E94F31375CF80E0FBCFCE01D2
:1038F0000E94C80BF82E7DCF3C2F3F70F32EC07F67
:1039000019F0F29490EFF9228D2FDD20B9F0FF200D
:1039100069F090E29D0F983010F0D11109C08091AC
:10392000E202F82AF092E2020E94820D8D2F42C03C
:103930008091B902F82AF092B902F6CF0E94CF1016
:10394000FF20D1F1D05ED83010F0B11004C08F2D1F
:103950000E94500B06C0F0948091B902F822F092B8
:10396000B9020E94820D28C08C2F8F70F82EC07F64
:10397000C03219F0F29480EFF822BB2059F091E0A8
:10398000B91609F470C0DD2009F47CC0CC2009F41C
:103990003FC0CCCF8091260482FD36C0DD2071F17E
:1039A000FF2039F08091E202F82AF092E2020E94B0
:1039B000820D80E00E94F910EE20A9F08091B702FC
:1039C00080FD11C0F80115828695869586950E9426
:1039D0005F0CC8010E9416198091B70286958695E2
:1039E00086950E94360C20E0F80140815181628169
:1039F0007381848195810E94960C70CC80E00E9436
:103A0000CF10FF20C9F2A3CFDD2099F0C11004C070
:103A10008F2D0E94C510D0CFE1E0CE12CDCF809186
:103A2000B8029F2D9823F91639F2F82AF092B802BD
:103A3000C3CFC110C1CF8F2D0E94BE109091B8028C
:103A40008F2D892329F08F2D809589238093B802AB
:103A5000809197029F2D982309F4AECFF094F8221D
:103A6000F0929702A9CFDD2029F0F5E0FC1508F4CB
:103A7000A3CFCECF24E02C1508F49ECF8F2D0E942B
:103A8000BE109ACFCC20D1F3D93349F43FEF87EE63
:103A900093E0315080409040E1F700C000008D2F4E
:103AA0000E94CF1089CF8C2F86958695837041F028
:103AB000813081F088EF8F0D843008F07DCF48C0D1
:103AC0008D2F9C2F9370D11002C080E090E00E9457
:103AD000EF0772CF8D2F9C2F9370D11002C080E022
:103AE00090E00E94CA0768CF8C2F837009F041C014
:103AF000D1102EC04D2F429546954770440F440F6C
:103B00002D2F2F7030E0042E02C0220F331F0A9495
:103B1000E2F790E080E0D4FF09C08FE090E002C0BF
:103B2000880F991F4A95E2F780959095C695C6959E
:103B3000C370C230A9F088F4409128035091290342
:103B4000C13049F0822B932B842395230E946F0C64
:103B50000E94140831CF242B352B822B932BF6CFC8
:103B6000822B932B209128033091290382279327BE
:103B7000EDCF8695DD2011F08C2F8170882341F3E5
:103B80004D2F429546954770440F440F2D2F2F70AF
:103B900030E0042E02C0220F331F0A94E2F790E0B7
:103BA00080E0D4FF09C08FE090E002C0880F991F29
:103BB0004A95E2F780959095C695C695C370C23038
:103BC00099F078F440913B0350913C03C13039F0B7
:103BD000822B932B842395230E94310CB9CF242B65
:103BE000352B822B932BF8CF822B932B20913B03E9
:103BF00030913C0382279327EFCFCF70DD2039F03F
:103C00008C2F0E945F0C8D2F0E94C510A1CF8D2F8D
:103C10000E94BE108C2F0E94360C9ACF8D2FE2EF9F
:103C2000BE1609F43FC0EB1580F0F0EFBF16F1F0BF
:103C300021EFB216A1F0DD2009F464C0CC2009F414
:103C40005EC08D2F0E94F91035CF33EFB31689F186
:103C500094EFB912F0CF9091260492FD37C08C2FCB
:103C60008F71DD2019F10E945F0C24CFDD20A9F0B7
:103C7000E4E0EC1508F41ECFCF7181E090E002C0C3
:103C8000880F991FCA95E2F720913B0330913C03BE
:103C9000822793270E94310C0DCFF5E0FC1508F424
:103CA00009CFEACF8C2F8F71DD20E9F20E94360C0C
:103CB00001CF90E080E0DD2069F3CF7181E090E0FA
:103CC00002C0880F991FCA95E2F7E4CFDD2061F0AA
:103CD0008C2F8F7192FFC7CF98E0899F900111249C
:103CE00023602093B702BFCF81E00E94480CE1E03F
:103CF000EC1508F0DFCE82E00E94480CDBCE8C2F62
:103D00008F71B1CFCC2079F0893349F4FFEF27EEE2
:103D100033E0F15020403040E1F700C000008D2F2B
:103D20000E94CF10C7CE8C2F8F71C0CFC034FEE75A
:103D3000DF0709F07ECB80EE0E94CF1080919402C5
:103D4000909195020E940317803A910508F0B7CA36
:103D5000C8E9D1E04AE0842EFE012491222309F42F
:103D6000AECA213009F00ACB31968491813009F036
:103D7000D0CA2296FE01849160E570E0893311F08B
:103D800070E060E00E94A115CBCA8091E202C631CA
:103D90002CE7D20709F089CC8A7A91E009F490E007
:103DA00090939602811179CC89E278CCC6313CE7B8
:103DB000D30709F46ACC8091E2028272FE01E054DA
:103DC000F847ED30F10508F0D8CCE751F14E0C94EE
:103DD000EF29881B9A1B6C1B6F1BA41B741BA91B50
:103DE000791BAE1B7E1BB31B831BB81BCF93DF93CA
:103DF0008091B602807F09F04DC08091B502882382
:103E000009F448C0E0917A0450914104C091B10294
:103E1000D091B0026091B2027091B30247E05E1798
:103E2000C9F18E2F90E0E49FF0011124EE5BFB4F6F
:103E30002481222391F1489FF001499FF00D112424
:103E4000DF01AE5BBB4F11962C9111972C1325C04F
:103E50002C912D1322C015962C91159721111DC060
:103E600012962D913C91261B370B203A3105A8F470
:103E70008091B6028F7080618093B602E85BFB4F41
:103E800080818F708061808380EB92E00E941619A0
:103E90000E947D0BDF91CF910895FC013196E77070
:103EA000BECFA4E1B0E0E7E5FFE10C9435298C0139
:103EB00086E0F801DE011F9601900D928A95E1F7E8
:103EC000F8018481E58090EBA92E92E0B92E9091C3
:103ED000B402911128C0882319F1EE20F1F0C80135
:103EE0000E94740CF82E8823C1F087E0F801D501F8
:103EF00001900D928A95E1F78091B402813031F4FE
:103F00008091B0029091B1020E94BB0B0E94F61EFC
:103F10008F2D6496ECE00C945129C8010E9416196B
:103F2000FF24F394F5CFD080C18082809380F090FD
:103F3000B5022091B2023091B302A401421B530B8F
:103F4000FF2009F4E4C0403A510508F09DC08823E1
:103F5000F9F29091B1028091B602282F207F09F0EA
:103F600055C0C91214C09091B002D91210C0E1100E
:103F700047C08F7080618093B60280EB92E00E9410
:103F800016198091B602F8018683F12CC1CFE11099
:103F900037C06C2D8D2D0E94BC056C2D8D2D0E947F
:103FA000BC05E82E8111F1CFDF86C88A8F859889FC
:103FB0000E94BB0B292F22952F70243058F49F703C
:103FC000223080F0992391F0F8019681907F71F46E
:103FD000FE2C9ECF2A50223068F0C8010E9416198C
:103FE000EF2CF6CF992311F0882391F3805E88306F
:103FF000A0F7EECF803F60F3815F833070F7E8CFAA
:104000008091B60281608093B602BFCFC91213C0FF
:104010009091B002D9120FC0E1100DC08683C80183
:104020000E94161987E0F801A0EBB2E001900D9212
:104030008A95E1F76DCFC8010E94740C882309F4BA
:104040006CCFEE2009F469CF8091B602803288F0FF
:104050002091B0023091B102398728879B868A86E9
:104060009091B4029C871D868E87CE0108960E948F
:10407000161987E0F801A0EBB2E001900D928A9545
:10408000E1F70E94F61E4CCF9091B602292F207FB7
:1040900051F480EB92E00E94161987E0F50111922D
:1040A0008A95E9F772CF882309F432CF8091B10263
:1040B0008C1110C08091B002D8120CC0E1100AC05F
:1040C0009683C8010E94161987E0F50111928A951E
:1040D000E9F71ECFC8010E94740C882309F41DCF94
:1040E000EE2009F41ACF8091B602803210F22091AE
:1040F000B0023091B1023A8329839C828B829091E5
:10410000B4029D831E828F83CE010196B0CF403AC8
:104110005105D0F6882309F403CFFE2CEE2009F4D4
:10412000FCCE8091B1028C1105C08091B002D816EE
:1041300009F478CFC8010E94740C81119ACF809144
:10414000B60281608093B602C8010E941619E0CEC3
:10415000ABE1B0E0EEEAF0E20C943D294E8B5F8BD0
:10416000688F798F8A8F9B8F192F91111092B902C6
:104170001D8A86E0FE017696DE011F9601900D9263
:104180008A95E1F70A8D002341F021E04F85588997
:1041900069897A89C8010E94960C0B8B1C8B87E079
:1041A000FE013F96DE01189601900D928A95E1F787
:1041B000CE0108960E94511F81112AC087E0FE019E
:1041C0003896DE01119601900D928A95E1F78C8563
:1041D0008823F1F02091410430E0C90101968770F5
:1041E000992740917A044817190659F197E0929F50
:1041F000D001939FB00D1124AE5BBB4FFE013196F1
:1042000001900D929A95E1F7809341040E947D0BF5
:1042100017E080917A04909141048917F9F0819F09
:10422000C00111248E5B9B4F0E94511F8823B1F067
:1042300080917A0490E001968770992780937A04A0
:10424000E8CF0E94D40D1092410410927A0487E0C6
:10425000E0EBF2E0DF011D928A95E9F76B96E4E06E
:104260000C945929A6E0B0E0E8E3F1E20C943D2972
:104270000E9412178C018091E3029091E402801752
:10428000910781F019821A820E941217682F4981C2
:104290005A81792F80E090E00E94A8201093E402D8
:1042A0000093E3022696E4E00C9459291F920F92A2
:1042B0000FB60F9211248F939F93AF93BF9380916A
:1042C0002704811113C08091280490912904A091A2
:1042D0002A04B0912B044196A11DB11D809328049E
:1042E00090932904A0932A04B0932B04BF91AF911B
:1042F0009F918F910F900FBE0F901F901895ADE07A
:10430000B0E0E5E8F1E20C942F2985B7806885BF1D
:1043100085B7806885BF84B7877F84BF0FB6F89460
:10432000A895809160008861809360001092600081
:104330000FBE80E890E00FB6F894809361009093F0
:1043400061000FBE81E08093460186EF98E0909374
:104350006B0280936A020E94F2050E94910680918E
:10436000E20084608093E20078948091370488238F
:1043700099F01091E9001F708091EC0080FF05C159
:1043800080E8182B1092E9008091E80083FD0E94DC
:10439000F60D1F701093E90082E084BD93E095BD97
:1043A0009AEF97BD80936E0010921A0310921B0330
:1043B00010921C0310921D038091D800806180939D
:1043C000D8002AE12A95F1F700C08091D900182F72
:1043D000117080FD04C00E94F20510923704109302
:1043E0001D0410931E041093280111110E94B82778
:1043F000809128018091280190E0811101C094E012
:104400009093270384E0891B8093260384E90E940C
:10441000F80886E60E94F80887E90E94F80886EC0A
:104420000E94F80809E811E0D8018D918D018F3FB5
:1044300011F00E94F808B1E00F381B07A9F788E0D7
:10444000EAE2F3E0DF01282F1D922A95E9F7EEE179
:10445000F3E0DF011D928A95E9F790E080E00E9489
:104460008729853E9E4F09F461C065EE7EEF90E09E
:1044700080E00E94BB2960E082E090E00E949D29DC
:1044800081E090E0909329038093280361E083E02A
:1044900090E00E949D2960E074E184E090E00E9439
:1044A000BB2960E086E090E00E949D2960E087E003
:1044B00090E00E949D2940E050E0BA0188E090E041
:1044C0000E94AF2960E083E290E00E949D2960E0B5
:1044D0008CE090E00E949D2960E08DE090E00E94D9
:1044E0009D2919821A821B821C821D821E821F82B4
:1044F000188648E050E067E170E0CE0101960E9426
:104500008D2940E050E0BA018FE190E00E94AF2990
:1045100040E050E0BA018FE090E00E94AF2940E017
:1045200050E0BA0183E190E00E94AF2982E090E080
:104530000E947F298093320384E090E00E948729C3
:1045400090932604809325040E948317EFEFF6E7EB
:1045500021E0E150F0402040E1F700C000000E945F
:10456000831780911E04E0E0811101C0E4E0F0E0D7
:10457000E65DFC4F808181FF0AC06FEF7FEF90E026
:1045800080E00E94BB290E944C0780E0FACE83E0C5
:1045900090E00E947F2990E00E946F0C0E943008FA
:1045A00081E080937E0448E050E067E170E08FE7AF
:1045B00094E00E946F2910927E0480917F048C7F8A
:1045C000F9F485E080937F04809147019091480140
:1045D000A09149018093800490938104A093820468
:1045E0008FE7809383048FEF8093840448E050E04A
:1045F00067E170E08FE794E00E948D2910927E04BD
:1046000080911D048111B1C082E08093680380E82D
:10461000809387040E9456266BE070E081E393E06C
:104620000E942B128823E9F18091680365E070E015
:1046300081FD9DC08CE293E00E942B12882389F1BA
:104640006DE070E08AE193E00E942B12882349F12B
:104650000E945D07605A75418F4F9F4F60937503AD
:10466000709376038093770390937803EAE8F4E0FD
:1046700080E092E0DF019C011D9221503040E1F783
:10468000F0939106E09390068FEF9FEF909389044B
:104690008093880481E080937A0380937903109259
:1046A000690380911D04811102C00E94BB2789E229
:1046B00091E09093220480932104AAE08A2E912C09
:1046C000A12CB12C8091370410E4853009F488C006
:1046D0000E94831703E313E0FAE2CF2EF3E0DF2E0C
:1046E000D601F80191918D9123E0EB33F20709F4A3
:1046F00081C09817B9F320901D04712CD6016D90DC
:104700006D01F80131908F01361431F1512C4424A0
:1047100043943624832D8421B9F02220A9F05982B4
:104720007A820E9412179C838B83F1E0FD8391E0D3
:10473000862D842109F490E09E8349815A816B8102
:104740007C818D810E94A8205394440C26E0521253
:10475000E1CFF80131976082739438E07312CECFC5
:104760000E940F0981E089874AC080E04ECF87E22E
:1047700093E062CF80913704843039F10E947B123C
:104780000E9438121092270488E190E00FB6F89446
:10479000A895809360000FBE1093600083B7817F5F
:1047A000846083BF83B7816083BF7894889583B723
:1047B0008E7F83BF0FB6F894A895809160008861C2
:1047C00080936000109260000FBE0E948317EAE29F
:1047D000F3E08191811102C293E0E233F907C9F756
:1047E00080913704853009F4C5CF0E94D40D0E9412
:1047F00014086ECF98137FCF0E94322119860E9431
:104800007B1280917A03882309F4BEC180916A03E8
:1048100090916B030E940317C29708F4C2C00E94D4
:10482000121790936B0380936A038AE894E0909345
:1048300091068093900680911D04882309F4EDC0B1
:104840008DE593E00E943C0D90913B0380913C03E9
:10485000E82EF12CE114F10459F5E92EF82E80E050
:104860009701E4E036952795EA95E1F721153105A2
:1048700011F08C5F7901970136952795369527952C
:104880002115310511F08E5F790197013695279535
:10489000232B09F08F5F813009F4B0C058F08230CB
:1048A00009F4AFC0833009F4AFC08CE393E004C0D7
:1048B00088E0D6CF85E593E00E947C0D8091470388
:1048C000805D0E94BB0C8BE693E00E943C0D8091C2
:1048D0004603805D0E94BB0C87E693E00E943C0D7E
:1048E00040904403509045038091330190913401EE
:1048F0004816590621F480914303803299F1509271
:1049000034014092330180E280934303712C612C87
:104910001092420302E413E05DE3C52E53E0D52E6E
:10492000C301B201A50194010E94CD29605D6033ED
:1049300029F4A2E4B3E0A017B10731F04114510407
:104940006104710409F460E2F80162938F01C3010C
:10495000B201A50194010E94CD2929013A01C01696
:10496000D106F1F68DE393E08C010196D8012C91EC
:104970002032D1F3F80101900020E9F79F01215086
:10498000310969010C151D0508F441C085E693E065
:104990000E943C0D809135010E94BB0C81E00E9479
:1049A0004A0D8091880490918904892B09F4D3C021
:1049B00080917A03882309F4CEC080916903811124
:1049C000CAC00E9453122091880430918904211595
:1049D000310509F4C0C080E0082F10E0442443945E
:1049E000512C082E02C0440C551C0A94E2F7A20177
:1049F00042235323452BB1F48F5FEECF8FE493E036
:104A00005BCF89E493E058CF82E493E055CFD8019F
:104A10008D918D010E94BB0CB5CF8DE693E00E9475
:104A20003C0DBFCF9091680390FFBEC0880F880FE8
:104A3000880F8093380110923B01895F8093390180
:104A400083E080933C0124E630E047E050E066E3F9
:104A500071E088E70E948A26892B09F07CC0B801A2
:104A600085E0660F771F8A95E1F78091680380FFE4
:104A7000ADC0E8E4F3E080E2DF011D928A95E9F73A
:104A8000E3E9F1E0FD87EC874FE851E0AC85BD85B7
:104A90008D91BD87AC87FA012191AF01260F372F89
:104AA000311DD901A657BB4FBB87AA8790E0885B11
:104AB0009C4FFC0107E09F01281B390BCC24C394B9
:104AC00001C0CC0C2A95EAF72A843B84D12CD10171
:104AD0001D911D011C21202F2D192770622E022EE1
:104AE000000C330BB12F01C0BB0F6A94EAF76B2E99
:104AF0003195219531092770332701C016952A95E4
:104B0000EAF7612A1081612A6082D39428E0D212E8
:104B1000DECF015031960F3F71F68C859D85875908
:104B2000914009F0B3CF04E610E020E230E048E421
:104B300053E060E488E70E941427892B61F44094D5
:104B4000509480918804909189044822592250926F
:104B5000890440928804809179038823A9F00E94F7
:104B60005D070091750310917603209177033091D2
:104B70007803601B710B820B930B6F3F7F4F8F4F3E
:104B80009F4710F40E943812E985E1110E945312E8
:104B90000E94140890916C03891709F493CD8093B7
:104BA0006C030E945D078ECD8295880F807680937E
:104BB00038019801369527953695279520933B0126
:104BC000815E8093390120933C013DCFAB01465774
:104BD0005B4F04E610E020E230E0ABCF809136047A
:104BE000882309F4FDCDA0E1A9BDB2E1B9BD09B4A6
:104BF00000FEFDCF8091D8008F7D8093D8008091FA
:104C0000E00082608093E0008091E00081FDFCCFB5
:104C10000E94D40DE5CDEF92FF920F931F93CF9397
:104C2000DF93182FEB011092BC0084EA8093BC0044
:104C30000E9412177C018091BC0087FF0DC08091FB
:104C4000B900887F8830A9F08091B900887F8031D1
:104C500081F08FEF9FEF08C0C7010E940317C817AC
:104C6000D90748F78EEF9FEFCDB7DEB7E6E00C949B
:104C700057291093BB0084E88093BC000E94121750
:104C80008C018091BC0087FF0AC08091B900887FA9
:104C9000883111F08034E9F690E080E0E5CFC8017A
:104CA0000E940317C817D90760F7DCCF1092B9002C
:104CB0008CE08093B80008950F931F93CF93DF93F8
:104CC000EB018093BB0084E88093BC000E94121724
:104CD0008C018091BC0087FF11C02091B900287F12
:104CE00081E090E0283211F490E080E09195819588
:104CF0009109DF91CF911F910F910895CF3FDC076C
:104D000041F3C8010E940317C817D90710F78EEFA7
:104D10009FEFEFCFB0E0A0E0E0E9F6E20C94342999
:104D2000782E5B016A0189010E9412174C01C1E0D3
:104D3000D0E00431110558F0C5E0D0E00F3F100776
:104D400031F0C80164E170E00E941B29EB01BE0153
:104D5000872D0E940B267C0197FF09C00F3F10078B
:104D6000B1F3C4010E9403170817190780F7E50182
:104D7000CA0CDB1CCC15DD0511F0F7FE09C084E977
:104D80008093BC00C701CDB7DEB7EDE00C9450298D
:104D9000B80189910E945C267C01ECCFB0E0A0E0D4
:104DA000E4EDF6E20C943429782E5B016A01890166
:104DB0000E9412174C01C1E0D0E00431110558F0F7
:104DC000C5E0D0E00F3F100731F0C80164E170E0AA
:104DD0000E941B29EB01BE01872D0E940B267C013E
:104DE00097FF09C00F3F1007B1F3C4010E940317DA
:104DF0000817190780F7E501CA0CDB1CCC15DD0587
:104E000011F0F7FE09C084E98093BC00C701CDB75B
:104E1000DEB7EDE00C945029FE018491B8010E94A8
:104E20005C267C012196EACFB0E0A0E0EAE1F7E25F
:104E30000C943329682E762E5A0169010E941217AC
:104E40004C01C1E0D0E00431110558F0C5E0D0E0DC
:104E50000F3F100731F0C80164E170E00E941B2988
:104E6000EB01BE01862D0E940B267C0197FF1DC021
:104E70000F3F1007B1F3C4010E9403170817190769
:104E800080F784E98093BC00C701CDB7DEB7EEE0C0
:104E90000C944F29B80189910E945C267C01CC16A4
:104EA000DD0679F3F7FEF6CFECCFB801872D0E942F
:104EB0005C267C01E501CA0CDB1CF1CF8EE14A9B2C
:104EC00002C08150E1F74A9BFECF08955A9880E2D4
:104ED0008A95F1F75A9A0895FC013BE03A95F1F76B
:104EE00098E020E080E031E040E14A95F1F7880F5A
:104EF0004A9B02C08160232742E04A95F1F70000F7
:104F000040E14A95F1F7915079F790E19A95F1F7E0
:104F100099B132E03A95F1F7000040E14A95F1F796
:104F200092FB992790F992272081920F9083089500
:104F3000A1E0B0E0EEE9F7E20C943B2919828C0184
:104F40007C01E60EF11C0E151F0541F481E09981EC
:104F5000911180E02196E6E00C9457290E945E278B
:104F6000CE0101960E946C27F80181938F01EBCF4F
:104F7000529A5A9A089552985A9AEA9AE9E6F0E0B3
:104F800080818F7C808308956150770B91E001C010
:104F9000990F6A95EAF720E031E0911108C02223C9
:104FA00091F05A9A80E28A95F1F75A980895492F1C
:104FB000482339F05A9A232740E24A95F1F796950B
:104FC000ECCF5A98F9CF5A98EDCFFF920F931F93D9
:104FD000CF93DF93EC018C01060F111DC017D10791
:104FE00029F4CDB7DEB7E5E00C945829F9900E947A
:104FF000662768E08F2D0E94C427F0CF1F920F9282
:105000000FB60F9211240F931F932F933F934F933B
:105010005F936F937F938F939F93AF93BF93EF9320
:10502000FF93CF93DF931F92CDB7DEB719820E9413
:105030005E27CE0101960E946C27082F06950695E3
:105040000695982F92959570202F2570920F292FF5
:10505000237096959695920F877089135FC089810A
:1050600081115CC0063008F059C080E18A95F1F7E3
:105070005A9A529A82E08A95F1F700C05A9888E0CD
:10508000089F80011124D801A050BF4F1696ED91C2
:10509000FC9117973097A9F060918301709184017A
:1050A00014962D913C911597260F371F11968D91CF
:1050B0009C911297680F791F13964C9113978C91BE
:1050C0000995F801E050FF4F6381662351F080910C
:1050D00083019091840124813581820F931F0E9466
:1050E000E5270E94662780E18A95F1F75A98529841
:1050F0005A9A80E18A95F1F7F801E050FF4F6081FC
:10510000662351F080918301909184012181328145
:10511000820F931F0E9498270E945E270F90DF91B5
:10512000CF91FF91EF91BF91AF919F918F917F911F
:105130006F915F914F913F912F911F910F910F9020
:105140000FBE0F901F9018950F931F93CF93DF936F
:10515000863091050CF04DC0EC01F894529A5A98A3
:1051600085E08A95F1F700009C2F969595708C2F1D
:105170008570980F892F83709695969523E0CC0FB4
:10518000DD1F2A95E1F7980F8E01092B0E946627F3
:1051900000C068E0802F0E94C42780E18A95F1F763
:1051A00052985A9A4A9B1EC087E090E04A991CC0C8
:1051B000FE01E050FF4F63816623F9F08091830187
:1051C0009091840124813581820F931F0E9498273A
:1051D000811113C0529A5A9A7894DF91CF911F91FE
:1051E0000F91089500C0DECF019729F4529A5A9A80
:1051F000789480E0F2CF00C0D9CF0E945E2780E291
:105200008A95F1F75A98529A80E18A95F1F7C05041
:10521000DF4F6881662351F0809183019091840172
:1052200029813A81820F931F0E94E5270E946627F9
:10523000789481E0D2CFAA1BBB1B51E107C0AA1F03
:10524000BB1FA617B70710F0A61BB70B881F991F27
:105250005A95A9F780959095BC01CD0108952F929C
:105260003F924F925F926F927F928F929F92AF92F6
:10527000BF92CF92DF92EF92FF920F931F93CF9343
:10528000DF93CDB7DEB7CA1BDB0B0FB6F894DEBFDA
:105290000FBECDBF09942A88398848885F846E8400
:1052A0007D848C849B84AA84B984C884DF80EE804A
:1052B000FD800C811B81AA81B981CE0FD11D0FB653
:1052C000F894DEBF0FBECDBFED010895FB01DC01F8
:1052D00002C005900D9241505040D8F70895DC016E
:1052E000CB01FC01F999FECF06C0F2BDE1BDF89AF1
:1052F000319600B40D9241505040B8F70895F99995
:10530000FECF92BD81BDF89A992780B50895A8E196
:10531000B0E042E050E00C947129DC01A40FB51F0D
:105320004150504048F0CB01840F951F2E910E94B0
:105330009E2941505040D0F70895262FF999FECF6D
:1053400092BD81BDF89A019700B4021639F01FBAD8
:1053500020BD0FB6F894FA9AF99A0FBE08950396F5
:10536000272F0E949E290E949D29252F0E949E2959
:10537000242F0C949E290196272F0E949E290C947D
:105380009D29991B79E004C0991F961708F0961B78
:10539000881F7A95C9F780950895A1E21A2EAA1B55
:1053A000BB1BFD010DC0AA1FBB1FEE1FFF1FA217D5
:1053B000B307E407F50720F0A21BB30BE40BF50BD2
:1053C000661F771F881F991F1A9469F7609570955B
:1053D000809590959B01AC01BD01CF010895EE0F22
:1053E000FF1F0590F491E02D0994FB01DC0104C03E
:1053F0008D910190801921F441505040C8F7881BCD
:10540000990B0895FB01DC0102C001900D924150FF
:0A5410005040D8F70895F894FFCF3C
:10541A00000000010000000000000004010000007C
:10542A00040500000000000004090000000000005C
:10543A00090D000000000000016907A911A2114B23
:10544A00079B11FF00200021007F220003FFFF00BD
:10545A00FF00030000010000FF78818283E200E977
:10546A0000EA00B500B600B700CD008301CC008A7F
:10547A000192019401210223022402250226022715
:10548A00022A02B300B4006F0070009F01CB019F93
:10549A0002A002FB02946697C6F4F5F6F7313300D0
:1054AA0008101818100800181712110A09191613EB
:1054BA00100B081A15140F0C07FFFFFF0E0D063309
:1054CA00322D2C252434312E2B262335302F2A2712
:1054DA0022FFFFFF2928215510320D101410263201
:1054EA003055345F3F55275515550444024413443B
:1054FA0025503A3C373223320D3200210321142140
:10550A0025102A101810070007001800298B10AE62
:10551A000DD014D026AE308B34813F8B278B158B60
:10552A00049C029C139C25903AA437AE23AE0DAE80
:10553A0000BF03BF14BF25D02AD018D007E007E068
:10554A0018E029020202020202010404040404040B
:10555A000101040404040404040404010101020214
:10556A000202020201040404040404010104040402
:0A557A00040404040404010101000C
:00000001FF
